:020000040800F2
:1000000080120020ED01000879270008D52400089F
:100010007527000805030008E9300008000000000B
:100020000000000000000000000000008127000820
:100030002D030008000000007D2700088527000828
:10004000070200080702000807020008070200086C
:10005000070200080702000807020008070200085C
:100060000702000807020008070200080903000849
:100070001503000821030008070200080702000812
:10008000070200080702000807020008070200082C
:10009000070200080702000807020008070200081C
:1000A000070200080702000807020008070200080C
:1000B00007020008070200080702000807020008FC
:1000C00007020008070200080702000807020008EC
:1000D00007020008DD3000080702000807020008D8
:1000E00007020008070200080702000807020008CC
:1000F00007020008070200080702000807020008BC
:1001000007020008070200080702000807020008AB
:100110000702000807020008070200089D270008E0
:10012000070200080702000807020008070200088B
:10013000070200080702000807020008070200087B
:10014000070200080702000807020008070200086B
:10015000070200080702000807020008070200085B
:10016000070200080702000807020008070200084B
:10017000070200080702000807020008070200083B
:10018000070200080702000807020008070200082B
:10019000070200080000000007020008070200082C
:1001A000070200080702000807020008070200080B
:1001B00007020008070200080702000807020008FB
:1001C00007020008070200080702000807020008EB
:1001D0000702000807020008DFF80CD000F07AF8E8
:1001E00000480047ED300008801200200648804794
:1001F00006480047FEE7FEE7FEE7FEE7FEE7FEE70C
:10020000FEE7FEE7FEE7FEE789270008D9010008C0
:100210002DE9F05F0546002092469B46884606463B
:10022000814640241BE0284641464746224600F0CE
:1002300041F853465A46C01A914110D31146184608
:10024000224600F028F82D1A67EB01084F46224697
:100250000120002100F01FF817EB00094E41201E7D
:10026000A4F10104DFDC484631462A464346BDE896
:10027000F09FD2B201E000F8012B491EFBD270477B
:100280000022F6E710B513460A4604461946FFF762
:10029000F0FF204610BD202A04DB203A00FA02F1CC
:1002A000002070479140C2F1200320FA03F3194364
:1002B00090407047202A04DB203A21FA02F0002106
:1002C000704721FA02F3D040C2F120029140084366
:1002D000194670471CB50948009009480190054629
:1002E000009C06E0E06840F0010394E807009847AE
:1002F0001034AC42F6D3FFF773FF0000E83100087A
:1003000008320008FEE7000040F27400C2F200006C
:1003100000F08CB840F2D400C2F2000000F086B8C1
:1003200040F21400C2F2000000F080B870470000F4
:10033000EFF3108072B600BFFEE70000014690F8B0
:100340002500022827D180B50868D1E910CE8A6C33
:10035000036823F00E030360136823F480731360B3
:10036000026822F0010202600EF01F00012202FA70
:1003700000F0CCF80400D1E913205060486D30B192
:10038000026822F480720260D1E916024260002005
:10039000BDE8804002E00420C8630120012281F80A
:1003A0002520002281F824207047000090F82510B5
:1003B000022930D180B50168D0E910CE826C0B687B
:1003C00023F00E030B600B6823F001030B60116830
:1003D00021F4807111600EF01F02012101FA02F276
:1003E000CCF80420D0E913325A60426D32B1136860
:1003F00023F480731360D0E91623536080F825102E
:10040000826B002180F824100AB190470021BDE8DA
:100410008040084670470421C1630121002280F812
:10042000251080F82420084670470000B0B5D0E9B8
:1004300010C30268DCF8001003F01F030424D2F894
:1004400000E09C400C4218BF1EF004051BD10224A2
:100450009C400C4218BF1EF0020520D1D94009076C
:100460001CD51EF0080108BFB0BD116821F00E01B7
:100470001160012101FA03F2CCF80420C16380F875
:100480002510416B18E01168890603D4116821F02A
:1004900004011160CCF80440016B91B9B0BD116842
:1004A000890606D4116821F00A011160012180F843
:1004B0002510CCF80440C16A0022002980F82420CD
:1004C000ECD0BDE8B040084700284FF0010100F033
:1004D00083802DE9F04740F2000CC4F2020C03685F
:1004E0004FF6F8320CF5816ECBF6FD72734538BFCE
:1004F00002F580624CF6CD441A44CCF6CC44A2FB03
:10050000042903F0FC02A2F10802A2FB04280CF566
:1005100080646FF00305D0E902A607693CBF0024A0
:10052000C4F2020405EA9905C0E91045022480F8E6
:1005300025401C6847F6F07224EA020232434669FD
:100540003A4387693243C6693A43076A32433A43BA
:1005500042EA0A021A600CF50262734538BF0CF5D4
:100560000062AB180CF50862C264C8F3041201FA09
:1005700002F540F68401BAF5804FC4F202018364AB
:10058000056504D1002242601A600D6016E04268E1
:10059000D4B2013A032A4FF000021C600D600DD85E
:1005A000631E01EB830747F87C2F03F01F02012332
:1005B0009340C1F8C030BC313A4601E0002100232D
:1005C000C0E9152100210122C365C16380F82520FF
:1005D00080F82410BDE8F047084670472DE9F04F39
:1005E00083B00E68002E00F0CE8000F1200241F2B0
:1005F000004C009200F13847C4F6000C06224FEA86
:10060000B725604508BF0522052D38BF4FEAB72240
:10061000002500274FF0000801920AE00E6808F15B
:10062000010836FA08F207F1020705F1040500F0A7
:10063000AA80012202FA08FE16EA0E09EED0D1F8CD
:1006400004C003220CF0030BABF1010602FA07F41D
:10065000012E6FEA040A11D88468CE6804EA0A04FD
:10066000BE4034438460446824EA0E06CCF3001490
:1006700004FA08F42643466006E000BFBBF1030F0E
:1006800002D14FF0030B21E0C6688C6806EA0A0627
:10069000BC402643BBF1020FC66017D16FF00302C6
:1006A000009B02EA580605F01C020F2453F806C00E
:1006B00004FA02FE0C692CEA0E0C04FA02F242EA79
:1006C0000C029A51D1F804C00CF0030B02680BFA2B
:1006D00007F302EA0A021A431CF4403F02609DD06D
:1006E00041F26003C4F202031A6840F2004E42F085
:1006F00001021A601A68C4F2010E02F001020292AD
:10070000029A28F003024FF6084C7244CFF6FF7CA1
:1007100052F80C3005F00C060F24B440A343019CA2
:1007200004FA06F6334342F80C30DEF808204B6832
:1007300042EA090640F20C4CDC0258BF22EA0906E4
:10074000CEF80860C4F2010CDCF800209C0242EAFA
:10075000090658BF22EA0906CCF80060DEF804203A
:100760009C0342EA090658BF22EA0906CEF8046053
:10077000DEF80020DB0342EA090658BF22EA090638
:10078000CEF800604AE703B0BDE8F08F426902EAA4
:100790000103914341EA0341816170471823002A14
:1007A00008BF2823C150704740F27820C2F20000F1
:1007B0000068704740F2040040F27821C2F2000065
:1007C000C2F2000100680A68104408607047000027
:1007D00080B5032000F09AF80F2000F009F80028F7
:1007E0001CBF012080BD00F031F8002080BD00005A
:1007F00040F20401C2F200010968002904BF01208F
:10080000704710B5044640F20000C2F200004FF4F9
:100810007A720068B2FBF1F1B0FBF1F000F08AFFF0
:1008200001460F2C4FF001000ED8002918BF10BD53
:100830004FF0FF302146002200F03CF840F2080162
:100840000020C2F200010C6010BD000080B582B033
:1008500041F25800C4F20200816841F00101816058
:10086000816801F0010101910199016841F0805115
:100870000160006800F080500090009800F048FF90
:10088000022000F04DFF02B0BDE8804000F0D4B877
:10089000002848BF704700F01F01012202FA01F151
:1008A0001C2202EAD0004EF20012CEF20002815069
:1008B0007047000010B54EF60C5CCEF2000CDCF870
:1008C0000030C3F3022E8EF00704042C28BF04244A
:1008D000BEF103034FF0FF3E0EFA04F438BF0023CD
:1008E000A14399400EFA03F39A43114300F00F021B
:1008F00000F160430901043A03F5644362440028AF
:1009000048BF02F10C03197010BD00004EF60C51E7
:10091000CEF200010A684FF6FF031A4060F30A2284
:1009200042F0806040F0FD700860704747F21401AB
:10093000C4F2000151F8142CB0F5007F3CD000281F
:1009400073D1C86E02F4C06220F48070B2F5806F7B
:10095000C8662FD151F8140C012262F34A2041F8E5
:10096000140C40F20000C2F2000000683222504332
:100970004DF68362C4F21B32A0FB0202900C00BF52
:100980000A68520511D5421C0FD00A6852050CD5D1
:1009900058B10A68520508D5012806D00A685205E0
:1009A00003D50228A0F10400EAD10868400544BF3D
:1009B0000320704700207047C86E02F4C06240F404
:1009C0008070B2F5806FC866F4D151F8140C012222
:1009D00062F34A2041F8140C40F20000C2F2000019
:1009E0000068322250434DF68362C4F21B32A0FBF2
:1009F0000202900C0A68520511D5421C0FD00A68F9
:100A000052050CD558B10A68520508D5012806D000
:100A10000A68520503D50228A0F10400EAD108684B
:100A2000400544BF03207047C4E7022060F34A2218
:100A300041F8142C0020704747F20800C4F200006F
:100A4000016841F480410160704700002DE9F041E8
:100A500082B00446807841F288060007C4F202069C
:100A600001D400202FE056F8300C5FEAC0080BD408
:100A700056F8300C40F0805046F8300C56F8300CE8
:100A800000F080500190019847F20007C4F200077F
:100A9000386840F480703860FFF786FE054600BF76
:100AA0003868C00500F10A81FFF77EFE401B02286E
:100AB000F6D90320B8F1000F05D456F8301C21F008
:100AC000805146F8301C2168CA0716D18A071CD409
:100AD0004A0722D40A0728D4CA062ED48A0634D458
:100AE0004A063AD40A0640D4CA0546D48A034CD4EE
:100AF0008A0552D44A0558D466E03268636822F009
:100B000003021A4332608A07E2D53268A36822F0F2
:100B10000C021A4332604A07DCD53268E36822F0DF
:100B200030021A4332600A07D6D53268236922F0B0
:100B3000C0021A433260CA06D0D53268636922F413
:100B400040721A4332608A06CAD53268A36922F419
:100B500040621A4332604A06C4D53268E36922F41F
:100B600040521A4332600A06BED53268236A22F424
:100B700040421A433260CA05B8D53268636A22F42B
:100B800040321A4332608A03B2D57269A36A22F0F6
:100B900003021A4372618A05ACD53268E36A22F413
:100BA00040221A4332604A050ED53268236B22F484
:100BB00040121A43B3F5801F326005D156F87C2CE1
:100BC00042F4801246F87C2C0A050ED53268636B1D
:100BD00022F440021A43B3F5800F326005D156F873
:100BE0007C2C42F4801246F87C2CCA040ED5326864
:100BF000A36B22F040721A43B3F1807F326005D1BB
:100C000056F87C2C42F4801246F87C2C8A040ED5CF
:100C10003268E36B22F040621A43B3F1006F326036
:100C200005D156F87C2C42F4801246F87C2C4A04FC
:100C30000ED53268236C22F040621A43B3F1006F84
:100C4000326005D156F87C2C42F4801246F87C2C98
:100C50000A040ED53268636C22F040521A43B3F195
:100C6000805F326005D156F87C2C42F4803246F821
:100C70007C2CCA030ED53268A36C22F040421A4382
:100C8000B3F1804F326005D156F87C2C42F48032AB
:100C900046F87C2C49030ED57169E26C21F44011B1
:100CA0001143B2F5001F716105D156F87C1C41F467
:100CB000801146F87C1C02B0BDE8F081B06810F4E9
:100CC000407010D0216D88420BD0B068B16820F41C
:100CD000407041F48031B160B16821F48031B1607D
:100CE000B060C0070BD1B068216D20F4407008439C
:100CF000B0600020B8F1000F3FF5E5AEDDE6FFF78C
:100D000053FD054641F28837B0688007EBD4FFF702
:100D10004BFD401BB842F7D9CBE600002DE9F04768
:100D2000002862D042F2000AC4F2020A0446DAF84D
:100D300000000D4600F00F0088420CD2DAF80000E7
:100D400020F00F002843CAF80000DAF8000000F095
:100D50000F00A84249D1216841F20808C807C4F22F
:100D6000020803D1880740F1CD80B2E0606858F8EE
:100D7000082C022837D003283AD1920135D5D8F86B
:100D80000420D8F8043042F20046C3F3031302F003
:100D90000302D8F804700133C0F2F406032A04BF3A
:100DA00043F20066C0F26E16B6FBF3F2D8F80430D8
:100DB000C7F306277A43C3F34163022707EB4303D4
:100DC000B2FBF3F24BF20043C0F2C4439A4256D94D
:100DD000D8F8002012F0F00F47D089074FD5A1684E
:100DE00000294CD141E0910304D40120BDE8F087F3
:100DF0005105FAD5D8F8001001F00C0104293ED0B5
:100E0000D8F8001001F00C01082938D0D8F80010EB
:100E100001F00C010C2932D1D8F80410D8F80420C4
:100E200042F20047C2F3031201F00301D8F8043084
:100E30000132C0F2F407032904BF43F20067C0F295
:100E40006E17B7FBF2F1D8F80420C3F30623594319
:100E5000C2F34162022303EB4202B1FBF2F14BF217
:100E60000042C0F2C442914209D9D8F800100822C9
:100E700062F307114FF00109C8F8001001E04FF0CC
:100E80000009D8F8001021F003010843C8F8000059
:100E9000FFF78AFC064641F2883700BFD8F8000009
:100EA000616800F00C00B0EB810F07D0FFF77CFC0D
:100EB000801BB842F2D90320BDE8F087216888077B
:100EC00007D4B9F1000F1DD0D8F8000020F0F000D1
:100ED00016E0480705D5D8F8000040F4E060C8F8EF
:100EE0000000080706D5D8F80000072262F30D209D
:100EF000C8F80000D8F80000A26820F0F000104305
:100F0000C8F80000DAF8000000F00F00A8421AD973
:100F1000DAF8000020F00F002843CAF80000FFF7BD
:100F200043FC064641F28837DAF8000000F00F0073
:100F3000A84207D0FFF738FC801BB842F4D9032041
:100F4000BDE8F0872168480707D5D8F80000E268B7
:100F500020F4E0601043C8F80000080708D5D8F86E
:100F60000000216920F4605040EAC100C8F8000088
:100F7000D8F8000042F20041C0F2F40100F00C0089
:100F8000042808462DD0D8F8000000F00C000828EE
:100F900043F20060C0F26E1023D0D8F8002002F0B7
:100FA0000C020C2A1CD1D8F80420D8F8043002F026
:100FB0000302C3F30313D8F804700133032A08BFF4
:100FC0000146B1FBF3F0D8F80410C7F30627C1F3CC
:100FD00041610222784302EB4101B0FBF1F000E0F5
:100FE0000020D8F8001043F29812C1F30311C0F6A4
:100FF0000002515C40F2000201F01F0120FA01F1F1
:1010000040F20800C2F200000068C2F20002116063
:10101000BDE8F047FFF7ECBB40F2000041F20801E9
:10102000C2F20000C4F202010068096843F2A8128B
:10103000C1F30221C0F60002515C01F01F01C8405B
:101040007047000040F2000041F20801C2F20000C7
:10105000C4F202010068096843F2A812C1F3C22178
:10106000C0F60002515C01F01F01C840704700004B
:1010700041F20C01C4F2020151F8040C42F20042A8
:10108000C0F2F40200F00C000428104608BF7047BC
:1010900051F8040C00F00C00082843F20060C0F284
:1010A0006E1025D051F8043C03F00C030C2B1CBF30
:1010B0000020704780B5D1F800C00B680CF0030C1D
:1010C000C3F3031E0B680EF1010EBCF1030F08BF42
:1010D00002460968B2FBFEF0C3F30623C1F3416187
:1010E0000222584302EB4101B0FBF1F0BDE8804021
:1010F00070470000002804BF012070472DE9F0412F
:1011000082B00446007841F20006C007C4F202062D
:101110001DD1207880073BD4207800075ED420784A
:1011200040077CD42078800600F1CA80E569002D54
:1011300000F02482B06800F00C000C2840F0188108
:10114000012D40F07281012002B0BDE8F081B0684D
:1011500000F00C01F068082958D0032281F00C013E
:1011600022EA00000844B0FA80F040094ED16168DC
:101170003068B1F5803F07D0B1F5A02F40F0CF80A7
:1011800040F480203060306840F480303060D0E03F
:10119000B068F16800F00C00042864D001F003018D
:1011A00080F00C0081F002010844B0FA80F04009A0
:1011B00059D1E1683068002900F0C88040F480709F
:1011C0003060FFF7F1FA05463068400500F1F28023
:1011D000FFF7EAFA401B0228F6D922E16169D6F846
:1011E0009400002900F0898040F00100C6F89400C6
:1011F000FFF7DAFA054600BFD6F8940080078ED4D0
:10120000FFF7D2FA401B0228F6D90AE130688003C2
:101210007FF57FAF606800287FF47BAF39E0B06D69
:101220005FEAC00808D4B06D40F08050B065B06D82
:1012300000F080500190019847F20007C4F20007C7
:101240003868C00529D4386840F480703860FFF7EA
:10125000ABFA05463868C0051FD4FFF7A5FA401B56
:101260000228F7D9DDE03068400501D5E06880B19B
:101270007068216920F0FE4040EA0160706040F231
:101280000800C2F200000068FFF7B2FA00283FF43D
:1012900043AF012002B0BDE8F081A168D6F890000C
:1012A000012908D0052940F0A28040F00400C6F8CA
:1012B0009000D6F8900040F00100C6F89000A2E03F
:1012C000A169D6F89800002900F07C8040F0010068
:1012D000C6F89800FFF768FA054600BFD6F89800F0
:1012E00080073FF523AFFFF75FFA401B02284FF05E
:1012F0000300F3D902B0BDE8F08120F00100C6F888
:101300009400FFF751FA0546D6F8940080077FF560
:1013100006AFFFF749FA401B0228F5D981E020F417
:10132000803030603068002920F48020306000F088
:10133000B580FFF739FA0546306880033FF5E9AE1E
:10134000FFF732FA401B6428F6D96AE020F4807077
:101350003060FFF729FA0546306840057FF5DCAEBE
:10136000FFF722FA401B02284FF00300F4D9C1E72F
:10137000306820F080703060FFF716FA022D0546C5
:101380000CD100BF3068800140F1B380FFF70CFA48
:10139000401B02284FF00300F4D9ABE7306880010E
:1013A00040F1E580FFF700FA401B02284FF00300F0
:1013B000F4D99FE77068216920F0FE4040EA01609F
:1013C0007060A9E620F00100C6F89800FFF7ECF97C
:1013D000054600BFD6F8980080077FF5A7AEFFF757
:1013E000E3F9401B02284FF00300F3D982E720F015
:1013F0000100C6F89000D6F89000002920F0040003
:10140000C6F890005AD0FFF7CFF9054641F2883769
:10141000D6F89000800763D4FFF7C6F9401BB842A6
:10142000F6D9032002B0BDE8F081F068216A00F02F
:1014300003028A427FF42DAF626A6FF00F0300F05F
:10144000F00103EB021291427FF423AFA16A00F492
:10145000FE42B2EB012F7FF41CAFE16A00F078424C
:10146000B2EBC16F7FF415AF226B0023CFF6E073B0
:1014700003EA025200F4C001A2F5001291427FF487
:1014800008AF616B4FF07E4202EA016100F0C0607C
:1014900001F17E4188427FF4FCAE6FE0FFF784F9F2
:1014A000054600BF306880037FF533AEFFF77CF957
:1014B000401B64284FF00300F4D91BE7FFF774F9D1
:1014C000054641F2883700BFD6F89000800707D55F
:1014D000FFF76AF9401BB8424FF00300F4D909E75F
:1014E000B8F1000F3FF51EAEB06D20F08050B06532
:1014F00018E6F06848F20C01C0F29F1104F12007D1
:1015000000EA010C8ECF6FF00F00D4E90C5400EB11
:1015100002100022CFF6E07241EA0C0102EA055205
:101520000843A2F500124FF07E4540EA032005EA89
:101530000465104305F17E4540EAC7602843F0602A
:10154000306840F080703060F06840F08070F0608B
:10155000FFF72AF9044600BF306880010ED4FFF778
:1015600023F9001B02284FF00300F5D9C2E6F0680A
:101570004FF6FC71CFF6EE610840F060002002B03B
:10158000BDE8F081002804BF01207047416A19B10D
:1015900000210161142104E04168B1F5827F02D08D
:1015A0001C2100224250B0B50025856290F85D10E4
:1015B00029B980F85C50044600F056F82046022114
:1015C00080F85D100168D0F80CE00B68BEF5E06FA4
:1015D00023F040030B6098BF01254EF40063B3F580
:1015E000706F4FEA053C1CBF00258562D0E90154AD
:1015F000D0E9043205F4827504F404442C4403F069
:1016000002032344846902F00102C5691A4404F408
:1016100000731A4405F03803056A1A4405F0800384
:10162000856A1A4405F400531A430A600422436A87
:101630000EF4706502EA1442446B45EA0C0503F0AF
:1016400010032A4304F008041A4322434A60CA697B
:1016500022F40062CA6100210122016680F85D2047
:10166000BDE8B0400846704770B586B004460068D3
:1016700043F60041C4F2000100268842CDE9046629
:10168000CDE90266019601D006B070BD41F24C0072
:10169000C4F20200C16841F40041C160C16801F4B4
:1016A000004100910099016841F002010160006869
:1016B00001A900F00200009000982820019002206B
:1016C000CDE9020604900620059040F20040C4F6E1
:1016D0000000FEF783FF40F214053020C2F200053F
:1016E000C4F202000F211022802385E8470028461B
:1016F000C5E90436C5E906662E62FEF7E5FE002858
:1017000018BFFEF715FE6565AC6206B070BD00003F
:101710003020C4F20100016821F00101016070472E
:101720003021C4F201010A6822F00202104308606D
:1017300070470000411E0020B0EB116F1CBF01205C
:1017400070474EF21002CEF2000251604EF6235165
:10175000CEF20001F0230B700721906011607047FA
:10176000704700007047000070470000704700009D
:10177000704700007047000090F83C20012A4FF0AD
:10178000020263D070B580F83D20026842F6004C3A
:1017900054689368C4F2010C45F2000E6245C4F22D
:1017A000010E18BF72452AD14D6824F470042C43F1
:1017B0004FF68F75CFF6FF550E682C4042F6FF3579
:1017C000C4F201053443AA4254600DDC40F2FF76B6
:1017D000C4F20006B24219DCB2F1804F29D040F2C7
:1017E0000046C4F2000622E043F6FF74C4F201048E
:1017F000A24216DC62451CD043F2004615E043F2DB
:101800000045C4F20105AA42CED0D1E740F6000659
:10181000C4F20006B2420CD040F60046C4F2000604
:1018200005E0724505D044F20006C4F20106B2425A
:1018300004D1896823F080031943916001210022BB
:1018400080F83D1080F83C20BDE87040104670479D
:1018500070470000002804BF0120704710B50446FF
:1018600090F83D0028B9002084F83C00204600F0A4
:1018700023F8022084F83D002068211D00F094FF29
:10188000012084F8480084F83E0084F83F0084F882
:10189000400084F8410084F8420084F8430084F852
:1018A000440084F8450084F8460084F8470084F832
:1018B0003D00002010BD0000006841F20041C4F26C
:1018C0000001884218BF704780B582B041F25800CD
:1018D000C4F202000168002241F0200101600068AA
:1018E000012100F02000019001983720FEF7E2FF6F
:1018F000372002B0BDE88040FEF7CABF90F83D1027
:1019000001291BD1022180F83D10016842F6FF3207
:10191000C868C4F20102914240F00100C8600FDCC7
:1019200040F2FF70C4F20000814218DCB1F1804F38
:101930002CD040F20040C4F2000025E001207047A6
:1019400043F6FF70C4F20100814213DC42F600400E
:10195000C4F20100814219D043F2004012E040F687
:101960000000C4F20000814210D040F60040C4F2F2
:10197000000009E045F20000C4F20100814205D0F8
:1019800044F20000C4F2010081420CD188680722B1
:10199000C0F201020240062A4FF00000CFD0B2F59B
:1019A000803F08BF7047086840F0010008600020D1
:1019B0007047000070470000F0B581B00446006831
:1019C000C5680669B10716D515F0020113D06FF08E
:1019D00002010161012121778069800703D020463F
:1019E000FFF7E8FF05E0204600F0CAF8204600F0C7
:1019F000C9F800202077700718D515F0040015D01D
:101A000020686FF00401016102212177806910F4E0
:101A1000407F03D02046FFF7CDFF05E0204600F0D1
:101A2000AFF8204600F0AEF800202077300717D539
:101A300015F0080014D020686FF00801016104213E
:101A40002177C069800703D02046FFF7B3FF05E088
:101A5000204600F095F8204600F094F8002020770A
:101A6000F00618D515F0100015D020686FF01001A1
:101A7000016108212177C06910F4407F03D020461E
:101A8000FFF798FF05E0204600F07AF8204600F0C6
:101A900079F800202077F00718BF15F0010006D074
:101AA00020686FF001010161204600F06DF816F426
:101AB000025F05F0800718BF002F02D1F00509D49E
:101AC00010E020686FF4025101612046FFF74AFEE2
:101AD000F00507D537B120686FF4807101612046A9
:101AE000FFF73EFE700609D515F0400006D02068CD
:101AF0006FF040010161204600F062F8B00609D5A0
:101B000015F0200006D020686FF02001016120460A
:101B1000FFF72AFEF00209D515F4801006D02068E0
:101B20006FF4801101612046FFF722FEB00209D553
:101B300015F4001006D020686FF4001101612046F2
:101B4000FFF714FE700209D515F4800006D0206856
:101B50006FF4800101612046FFF70CFE30020CD5C6
:101B600015F4000009D021686FF4000220460A61D4
:101B700001B0BDE8F040FFF76BBE01B0F0BD000062
:101B8000704700007047000040F29811C2F2000157
:101B9000884218BF704740F21002C2F2000210885B
:101BA000013081B2C829108009D140F6000000231D
:101BB000C4F600004FF400511380FEF7E7BD7047F4
:101BC0007047000090F88410012904BF022070477C
:101BD0002421C0F8881001680A680B6822F00052BE
:101BE00023F001030B60002343660A602021C0F844
:101BF000881080F884300020704700007047000093
:101C00007047000090F88420012A04BF022070472A
:101C1000B0B52422C0F888200268D0F864E0D2F879
:101C200000C01368BEF1000F23F001031360936836
:101C300023F0606341EA0301916019D093689168D1
:101C400043F2D81E490FC0F6000E43F2E0151EF80D
:101C50000140C0F60005695CC3F34263E400B4FBD5
:101C6000F1F11EF80340EB5CE500B5FBF3F301E096
:101C700001210123A0F86A102021A0F86830C2F8E1
:101C800000C0C0F88810002180F884100020B0BD8A
:101C900090F88420012A04BF02207047B0B52422A6
:101CA000C0F888200268D0F864E0D2F800C0136859
:101CB000BEF1000F23F001031360936823F060432B
:101CC00041EA0301916019D09368916843F2D81EEC
:101CD000490FC0F6000E43F2E0151EF80140C0F6B1
:101CE0000005695CC3F34263E400B4FBF1F11EF844
:101CF0000340EB5CE500B5FBF3F301E001210123B8
:101D0000A0F86A102021A0F86830C2F800C0C0F81E
:101D10008810002180F884100020B0BD70470000BA
:101D2000704700007047000070B5026840F62F044D
:101D3000D369116896681C40202C0AD101F0200458
:101D400006F080552D1915D0416F61B3BDE8704084
:101D5000084740F60F052B420CD00125C1F20005C3
:101D600006EA050C40F22015C0F200450D4015EBC7
:101D70000C0527D1C46EDD0616D5012C14D111F047
:101D8000100511D0102111629168490600F17A8185
:101D9000B0F85C10B0F85E20B0F85E30002B18BFD1
:101DA000914240F0458270BDDD0240F12D8116F474
:101DB000800500F029814FF480111162BDE8704068
:101DC000FFF7AEBFDD0718BF11F4807507D00125FE
:101DD0001562D0F8905045F00105C0F890509D076D
:101DE00006F0010E0AD5BEF1000F07D002241462DE
:101DF000D0F8904044F00404C0F890405C070AD545
:101E0000BEF1000F07D004251562D0F8905045F0C0
:101E10000205C0F890501D070CD501F0200555EAC9
:101E20000C0507D008251562D0F8905045F008053C
:101E3000C0F890501D050BD511F0806508D04FF407
:101E400000651562D0F8905045F02005C0F890501C
:101E5000D0F89050002DA6D09B060BD501F02001A4
:101E600006F08053C91805D0416F19B10446884760
:101E700022682046D0F89010926801F0280102F004
:101E80004002891806D10446FFF74CFF0020C4F831
:101E9000900070BD016851E8001F026821F4907144
:101EA00042E80013DBB1016851E8001F026821F429
:101EB000907142E8001393B1016851E8001F026875
:101EC00021F4907142E800134BB1016851E8001F02
:101ED000026821F4907142E80013002BDAD14FF62A
:101EE000FE71CEF6FF7100BF026852E8022F036850
:101EF0000A4043E80226C6B1026852E8022F03688E
:101F00000A4043E8022686B1026852E8022F0368BD
:101F10000A4043E8022646B1026852E8022F0368ED
:101F20000A4043E80226002EDED1C16E012924D1E9
:101F3000016851E8001F026821F0100142E8001317
:101F4000DBB1016851E8001F026821F0100142E88E
:101F5000001393B1016851E8001F026821F01001DD
:101F600042E800134BB1016851E8001F026821F0FC
:101F7000100142E80013002BDAD12021C0F88C10A8
:101F80000021C166026841679168490640F1D78126
:101F9000016851E8021F026821F0400142E8021383
:101FA000DBB1016851E8021F026821F0400142E8FC
:101FB000021393B1016851E8021F026821F0400149
:101FC00042E802134BB1016851E8021F026821F098
:101FD000400142E80213002BDAD1D0F8801000292A
:101FE00000F0AD8142F64532C0F6000204460846D4
:101FF0008A63FEF7DBF900283FF4D5AED4F8800001
:10200000816BBDE8704008471A0606D501F08002D2
:1020100006F40006921940F08B815A0640F1FD80CB
:1020200011F0400200F0F980016851E8001F0268D9
:1020300021F0400142E80013DBB1016851E8001FC4
:10204000026821F0400142E8001393B1016851E8B1
:10205000001F026821F0400142E800134BB1016803
:1020600051E8001F026821F0400142E80013002BF4
:10207000DAD12021C0F8881000218167BDE87040C6
:1020800000F026BAD0F880100A685368B0F85C40B7
:1020900099B2002900F0B880A14280F0B580A0F884
:1020A0005E301168890600F1A38000BF016851E825
:1020B000001F026821F4807142E80013E3B1016857
:1020C00051E8001F026821F4807142E800139BB1BF
:1020D000016851E8001F026821F4807142E8001392
:1020E00053B1016851E8001F026821F4807142E891
:1020F0000013002BDAD100BF016851E8021F02680B
:1021000021F0010142E80213BBB3016851E8021F4C
:10211000026821F0010142E8021373B3016851E83B
:10212000021F026821F0010142E802132BB301688B
:1021300051E8021F026821F0010142E80213002B5E
:10214000DAD11AE0016851E8021F026821F040016B
:1021500042E80213DBB1016851E8021F026821F076
:10216000400142E8021393B1016851E8021F02687E
:1021700021F0400142E802134BB1016851E8021F0F
:10218000026821F0400142E80213002BDAD120213D
:10219000C0F88C100021C166016851E8001F026878
:1021A00021F0100142E80013DBB1016851E8001F83
:1021B000026821F0100142E8001393B1016851E870
:1021C000001F026821F0100142E800134BB10168C2
:1021D00051E8001F026821F0100142E80013002BB3
:1021E000DAD1D0F8801004460846FEF7A7F820465A
:1021F00002210167B0F85C10B0F85E20891A89B23C
:10220000BDE87040FFF7FABC8C427FF4CCAD126899
:1022100092067FF5C8AD022285E01A0240F1938054
:1022200011F0804200F08F80BDE87040FFF776BD6E
:10223000891A00BF026852E8002F036822F49072E6
:1022400043E80026DEB1026852E8002F036822F45A
:10225000907243E8002696B1026852E8002F0368A6
:1022600022F4907243E800264EB1026852E8002F33
:10227000036822F4907243E80026002EDAD14FF66C
:10228000FE72CEF6FF7200BF036853E8023F066895
:10229000134046E80235C5B1036853E8023F0668BB
:1022A000134046E8023585B1036853E8023F0668EB
:1022B000134046E8023545B1036853E8023F06681B
:1022C000134046E80235002DDED12022C0F88C20D4
:1022D0000022C266426700BF026852E8002F03680E
:1022E00022F0100243E80026DEB1026852E8002F17
:1022F000036822F0100243E8002696B1026852E813
:10230000002F036822F0100243E800264EB1026855
:1023100052E8002F036822F0100243E80026002E46
:10232000DAD1022289B20267BDE87040FFF766BCCD
:10233000816F00293FF437ADBDE870400847BDE824
:102340007040FFF7EFBCDA017FF52DADB1F1FF3F33
:10235000C8BF70BDBDE87040FFF752BC10B5D0B12A
:102360000446D0F8880028B9002084F8840020466C
:1023700000F026F82420C4F888002068A16A0268CA
:1023800022F00102026011B1204600F0B5FA2046A9
:1023900000F0E0FB08B1012010BD2168486820F47E
:1023A00090404860886820F02A008860086840F003
:1023B000010220460A60BDE8104000F011BB000099
:1023C0002DE9F0419CB0044602A8002508304C21BC
:1023D0001B95CDE91955CDE91755FDF751FF20683B
:1023E00043F60001C4F20101884202D01CB0BDE8EE
:1023F000F0810120CDE9020502A8FEF727FB0028A5
:1024000018BFFDF795FF41F24C00C4F2020041698C
:1024100040F2080841F4804141614169002601F41D
:102420008041019101990168C4F2020841F0010163
:102430000160006817A900F00100019001984FF4B5
:10244000C06017900220189007201B904FF090401A
:10245000CDE91966FEF7C2F840F27405C2F2000534
:1024600018208027C5E900802846C5E90266C5E92D
:102470000476C5E906662E62FEF726F8002818BF26
:10248000FDF756FFC4F88050AC6240F2D40508F165
:102490001400C2F200051921102285E8C700284661
:1024A000C5E90566C5E90766FEF70EF8002818BFFE
:1024B000FDF73EFF252000210022E567AC62FEF714
:1024C000F9F92520FEF7E4F91CB0BDE8F081000021
:1024D00070470000FEE7000080B582B041F248007E
:1024E000C4F202000168002241F0040101600168A9
:1024F00001F0040101910199016841F001010160BD
:102500000068002100F00100009000980B20FEF709
:10251000D1F90B20FEF7BCF90C2000210022FEF7B8
:10252000C9F90C20FEF7B4F90D2000210022FEF7B6
:10253000C1F90D2002B0BDE88040FEF7A9B9000046
:102540002DE9F04F87B0002441F24C000694CDE90C
:102550000444CDE90244C4F20200016841F20008DB
:1025600041F0100101600168C4F6000801F010019B
:10257000019101990168A8F5006541F0040101602D
:102580000168012201F004010191019901684FF0F5
:10259000010941F020010160016801F02001019171
:1025A0000199016841F001010160016801F0010138
:1025B00001910199016841F008010160016801F091
:1025C000080101910199016841F002010160006870
:1025D0004FF4604100F00200019001982846FEF798
:1025E000DDF8A8F580663046802100224FF0800A91
:1025F000FEF7D4F84046032100224FF0030BFEF70C
:10260000CDF8782002AFCDE9020440463946049463
:10261000FDF7E4FF4FF46040CDE902092846394652
:10262000CDE90444FDF7DAFF022530463946CDE90D
:1026300002A904940595FDF7D1FF40463946CDE93E
:1026400002B9CDE90445FDF7C9FF07B0BDE8F08F39
:10265000B0B540F2341043F60041C2F20000C4F2BB
:1026600000014FF4827200234FF4E06C4FF0020E31
:1026700080E80E5000F114014FF40074082538C1B1
:102680000721C0E90833C0E90A31C0E90C35FEF77B
:1026900079FF002808BFB0BDBDE8B040FDF748BED7
:1026A00010B584B040F2981041F200410024C2F20B
:1026B0000000C4F2000140F2E7330294A92280E84E
:1026C0001600C3608461FFF7C5F8002818BFFDF746
:1026D0002FFE40F29810C2F2000001A90194039469
:1026E000FFF74AF8002818BFFDF722FE04B010BD1E
:1026F00080B540F2E41043F60001C2F20000C4F2DB
:10270000010100234FF00C0C4FF4E13280E80E0081
:10271000C0E90333C0E905C3C0E90733C0E90933A1
:10272000FFF71CFE002818BFFDF702FE40F2E41080
:10273000C2F200000021FFF7ABFA002818BFFDF736
:10274000F7FD40F2E410C2F200000021FFF75AFA50
:10275000002818BFFDF7ECFD40F2E410C2F20000C3
:10276000FFF730FA002808BF80BDBDE88040FDF7C4
:10277000DFBD0000FEE70000FEE70000704700003C
:1027800070470000FEF716B84EF68850CEF20000F3
:10279000016841F4700101607047000040F2981038
:1027A000C2F20000FFF708B940F6FF330268C4F236
:1027B000000343F2FF3C9842C4F2010C0ADD60457D
:1027C0002EDC40F60043C4F20003984234D042F6B7
:1027D00000432DE0B0F1804F2ED040F20043C4F210
:1027E0000003984228D040F60003C4F20003984248
:1027F00022D0604526DC40F2FF73C4F20003984209
:1028000035DD40F60003C4F20003984245D040F69F
:102810000043C4F2000398423FD042F6004338E040
:1028200045F20003C4F20103984205D043F200438D
:10283000C4F201039842DCD14B6822F070021A43C3
:102840006045D8DD44F2FF33C4F20103984218DD3D
:1028500044F20043C4F2010398421ED045F2000343
:10286000C4F20103984218D044F6000311E0B0F11D
:10287000804F12D040F20043C4F2000398420CD0C3
:102880000FE043F20043C4F20103984205D044F242
:102890000003C4F20103984203D1CB6822F44072D2
:1028A0001A4380B54B6922F0800E8A6843EA0E0312
:1028B000D1F800C00360C262A0F18042A2F5963256
:1028C0004FEAB222092AC0F828C0BDE8804008D8E3
:1028D000012303FA02F240F2E5231A421CBF096900
:1028E0000163012141610169C90708BF704701699E
:1028F00021F0010101617047816A0A070CD4CA07FF
:1029000015D18A071ED44A0727D4CA0630D48A06AE
:1029100039D44A0642D457E00268D0F838C0536828
:1029200023F4004343EA0C035360CA07E9D002686A
:10293000D0F82CC0536823F4003343EA0C035360EF
:102940008A07E0D50268D0F830C0536823F480339A
:1029500043EA0C0353604A07D7D50268D0F834C065
:10296000536823F4802343EA0C035360CA06CED590
:102970000268D0F83CC0936823F4805343EA0C0308
:1029800093608A06C5D50268D0F840C0936823F4E6
:10299000005343EA0C0393604A0615D5D0F800C0F3
:1029A000436CDCF80420B3F5801F22F4801242EA65
:1029B0000302CCF8042007D1DCF80420836C22F455
:1029C000C0021A43CCF80420090658BF70470168BA
:1029D000C06C4A6822F4002210434860704700002F
:1029E000B0B582B004460020C4F89000FDF7DCFECC
:1029F000216805460A68120736D56FF07E4C2046DE
:102A00004FF4001100222B46CDF800C000F0F0F981
:102A100048B300BF206850E8000F216820F0800014
:102A200041E80002DAB1206850E8000F216820F088
:102A3000800041E8000292B1206850E8000F216850
:102A400020F0800041E800024AB1206850E8000F01
:102A5000216820F0800041E80002002ADAD103203A
:102A60002021882268E02168086840075BD56FF064
:102A70007E4C20464FF4800100222B46CDF800C04A
:102A800000F0B6F900284ED0206850E8000F216809
:102A900020F4907041E80002BAB3206850E8000FBB
:102AA000216820F4907041E8000272B3206850E879
:102AB000000F216820F4907041E800022AB32068DA
:102AC00050E8000F216820F4907041E80002002ACD
:102AD000DAD11AE0206850E8020F216820F00100E6
:102AE00041E80202DAB1206850E8020F216820F0C4
:102AF000010041E8020292B1206850E8020F21680B
:102B000020F0010041E802024AB1206850E8020FBB
:102B1000216820F0010041E80202002ADAD10320F6
:102B200020218C2208E02020C4F88800C4F88C0002
:102B3000002170220020E166A150002184F8841059
:102B400002B0B0BD806A0021A0F85E10A0F8561057
:102B5000FFF7E8B870B5054605F108041ECC00681B
:102B6000194341EA0403EE69046846F6F311CCF612
:102B7000FF712140194331430160416848F2000C64
:102B800021F4405111434160AA69C4F2000C604530
:102B90001CBF296A0A4381684FF2FF43C1F2FF1349
:102BA000194011438160C16AD5F824E021F00F017A
:102BB00041EA0E01C16244F6FF71C4F2000188428D
:102BC0004FF0100318DC44F20041C4F200018842C7
:102BD00027D044F60001C4F2000188422FD044F609
:102BE0000041C4F2000188423ED141F28801C4F2A2
:102BF000020109688B092FE045F20001C4F20001CF
:102C0000884215D0604521D043F60001C4F201018D
:102C1000884229D141F28801C4F202010B6870A2F6
:102C20001EE041F28801C4F2020109688B0813E03A
:102C300041F28801C4F2020109680B0A0CE041F27A
:102C40008801C4F2020109680B0905E041F288011C
:102C5000C4F2020109688B0A43F2C812C0F60002EE
:102C600003F0030152F82130604542F20040C0F207
:102C7000F40013D0B6F5004F20D1082B4FF001011E
:102C800000F2A580DFE803F005586EA360A3A3A3BC
:102C90006C00FEF7C1F9002859D195E0082B4FF0E0
:102CA000010100F29480DFE803F0059223921A926A
:102CB00092922100FEF7B0F9A8B985E0082B4FF0F9
:102CC000010100F28480DFE803F0053B6A8245825F
:102CD00082826800FEF7A0F900283ED174E0FEF77A
:102CE000C7F9002870D0D5F824E001E04FF4004087
:102CF00043F2B011C0F6000131F81E106A68B0FB53
:102D0000F1F002EB420188424FF001015FD313035F
:102D100098425CD8010E000210EB520041F1000114
:102D20000023FDF775FA4FF60052A0F54071C0F28E
:102D30000F02914246D349E0FEF784F938B943E0E7
:102D4000FEF780F948B93FE0FEF792F9E0B3D5F815
:102D500024E007E0FEF78CF9B0B3D5F824E01EE0DC
:102D60004FF4004043F2B011C0F6000131F81E10DC
:102D70006A68B0FBF1F0510801EB4000B0FBF2F0E3
:102D80004FF6EF72A0F1100191421FD84FF6F0718B
:102D90000140C0F34200084414E04FF4004043F205
:102DA000B011C0F6000131F81E104FF6EF72B0FB03
:102DB000F1F0696800EB5100B0FBF1F0A0F11001F7
:102DC000914203D82968C860002100E001214FF03A
:102DD0000110A866002208466A67AA6770BD00BF96
:102DE00001000000040000000200000008000000D4
:102DF0002DE9F04381B0804600681546C2690E4651
:102E00001140891BB1FA81F14909A94240F0C18002
:102E1000DDF820901F4609F1010408E0C169314046
:102E2000891BB1FA81F14909A94240F0B280002C16
:102E3000F4D0FDF7B9FC0146B9F1000F4FF00300E3
:102E400000F0A880C91B494500F2A480D8F8000012
:102E500001684907E2D5402EE0D0802EDED0C1695E
:102E6000090700F19A80C1690905D7D54FF40061BF
:102E7000016200BFD8F8000050E8000FD8F8001039
:102E800020F4907041E800020AB3D8F8000050E83E
:102E9000000FD8F8001020F4907041E80002B2B1A1
:102EA000D8F8000050E8000FD8F8001020F4907017
:102EB00041E800025AB1D8F8000050E8000FD8F8F5
:102EC000001020F4907041E80002002AD2D14FF6A1
:102ED000FE70CEF6FF7000BFD8F8001051E8021F58
:102EE000D8F80020014042E80213F3B1D8F80010EE
:102EF00051E8021FD8F80020014042E80213A3B1B4
:102F0000D8F8001051E8021FD8F80020014042E82C
:102F1000021353B1D8F8001051E8021FD8F800206E
:102F2000014042E80213002BD6D1D8F86C000128EA
:102F30002CD1D8F8000050E8000FD8F8001020F08D
:102F4000100041E800020AB3D8F8000050E8000F72
:102F5000D8F8001020F0100041E80002B2B1D8F813
:102F6000000050E8000FD8F8001020F0100041E8F1
:102F700000025AB1D8F8000050E8000FD8F800104D
:102F800020F0100041E80002002AD2D103202021C5
:102F900094E0002001B0BDE8F0830821016200BF89
:102FA000D8F8000050E8000FD8F8001020F4907016
:102FB00041E800020AB3D8F8000050E8000FD8F842
:102FC000001020F4907041E80002B2B1D8F800007F
:102FD00050E8000FD8F8001020F4907041E800028B
:102FE0005AB1D8F8000050E8000FD8F8001020F4CB
:102FF000907041E80002002AD2D14FF6FE70CEF662
:10300000FF7000BFD8F8001051E8021FD8F8002068
:10301000014042E80213F3B1D8F8001051E8021F52
:10302000D8F80020014042E80213A3B1D8F80010FC
:1030300051E8021FD8F80020014042E8021353B1C2
:10304000D8F8001051E8021FD8F80020014042E8EB
:103050000213002BD6D1D8F86C0001282CD1D8F857
:10306000000050E8000FD8F8001020F0100041E8F0
:1030700000020AB3D8F8000050E8000FD8F800109A
:1030800020F0100041E80002B2B1D8F8000050E88A
:10309000000FD8F8001020F0100041E800025AB1EB
:1030A000D8F8000050E8000FD8F8001020F0100009
:1030B00041E80002002AD2D1012008212022C8F8CC
:1030C0008C200022C8F86C20C8F87420C8F8901032
:1030D00088F8842001B0BDE8F083000040F2E410DD
:1030E000C2F20000FEF720BEFEE7000094B0FDF73C
:1030F0006FFB002400200C94CDE90A44CDE908447C
:10310000FDF714FC012006904FF480300621079053
:1031100002200F9155210D900325CDE91010CDE926
:10312000120006A80E95FDF7E5FF20B1EFF3108021
:1031300072B600BFFEE70F20CDE9010501A804210A
:10314000CDE903440594FDF7E9FD20B1EFF31080CC
:1031500072B600BFFEE7FFF7F3F9FFF7BDF9FFF71F
:10316000C7FAFFF775FAFFF79BFA40F29810C2F220
:103170000000FEF7C3FB00BFFEE702E008C8121F15
:1031800008C1002AFAD170477047002001E001C150
:10319000121F002AFBD17047000000000000000051
:1031A00001020304060708090000000001020304ED
:1031B000010002000400060008000A000C001000D4
:1031C000200040008000000100000000040000001A
:1031D00002000000080000000101010307010000D7
:1031E0000804020408010101083200080000002060
:1031F000100000007A31000818320008100000208A
:10320000701200008A3100080024F4000100000060
:083210001000000000000000A6
:04000005080001D915
:00000001FF
