:020000040800F2
:10000000C0170120ED010008D93700081D34000891
:10001000D5370008A50700087D5200080000000041
:10002000000000000000000000000000E1370008B0
:10003000CD07000800000000DD370008E5370008A4
:10004000070200080702000807020008070200086C
:10005000070200080702000807020008070200085C
:10006000070200080702000807020008A9070008A5
:10007000B5070008C10700080702000807020008CA
:10008000070200080702000807020008070200082C
:10009000B55100080702000807020008070200081F
:1000A000070200080702000807020008070200080C
:1000B00007020008070200080702000807020008FC
:1000C00007020008070200080702000807020008EC
:1000D00007020008A94000080702000807020008FC
:1000E00007020008070200080702000807020008CC
:1000F00007020008070200080702000807020008BC
:1001000007020008070200080702000807020008AB
:10011000070200080702000879380008853800083F
:10012000070200080702000807020008070200088B
:10013000070200080702000807020008070200087B
:10014000070200080702000807020008070200086B
:10015000070200080702000807020008070200085B
:10016000070200080702000807020008070200084B
:10017000070200080702000807020008070200083B
:10018000070200080702000807020008070200082B
:10019000070200080000000007020008070200082C
:1001A000070200080702000807020008070200080B
:1001B00007020008070200080702000807020008FB
:1001C00007020008070200080702000807020008EB
:1001D0000702000807020008DFF80CD000F0CAFA96
:1001E0000048004711610008C017012006488047F9
:1001F00006480047FEE7FEE7FEE7FEE7FEE7FEE70C
:10020000FEE7FEE7FEE7FEE765380008D9010008D3
:100210002DE9F05F0546002092469B46884606463B
:10022000814640241BE0284641464746224600F0CE
:10023000F2F953465A46C01A914110D31146184656
:10024000224600F0D9F92D1A67EB01084F462246E5
:100250000120002100F0D0F917EB00094E41201ECB
:10026000A4F10104DFDC484631462A464346BDE896
:10027000F09FD2B201E000F8012B491EFBD270477B
:100280000022F6E710B513460A4604461946FFF762
:10029000F0FF204610BD2DE9FE4F804681EA0300A5
:1002A000C00F0C46009021F0004123F00045B8EB50
:1002B0000200A94105D24046214690461C460B4605
:1002C000024623F00040104347D0270DC7F30A0031
:1002D000C3F30A510290401A019040286BDAC3F32D
:1002E000130040F4801B0098924620B10023D2EB0B
:1002F000030A63EB0B0B01985946C0F140025046CC
:1003000000F07AF906460D4650465946019A00F02B
:1003100092F910EB08006141002487EA115284EA47
:10032000E7731A4340D0009A62B3019A012A4FEA58
:10033000075215DC001B61EB02014FF0004202EA9C
:100340000752CDE90042001C41F5801132462B4690
:1003500000F092F903B0BDE8F08F40462146F9E77E
:10036000001B61EB0201001C41F5801300185B418A
:100370002018A2F5001747EB030140EAD570B61923
:100380006D4111E06D084FEA360645EAC0754FEA47
:100390000752001B61EB0201001C41F58011490866
:1003A0004FEA30000019514132462B4603B0BDE8F8
:1003B000F04F00F052B90098012240000023D0EB2A
:1003C000020263EBE073009821464FEAE074B8EB59
:1003D000000061EB0401E9E783F000435BE781F093
:1003E000004158E72DE9FE4F81EA030404F0004480
:1003F00021F0004100944FF0000B23F0004350EA3D
:1004000001045ED052EA03045BD0C3F30A54C1F383
:100410000A552C44A4F2F3340194A0FB0254C1F316
:10042000130141F48011C3F3130343F4801301FB60
:10043000024400FB034E840A970A44EA815447EAC7
:100440008357A4FB076802958D0A05FB07854FEAD1
:10045000932C04FB0C542705029D4FEA065847EAEB
:100460001637B5EB08056EEB070C870E920E47EAC0
:10047000811742EA8312A7FB0201B6EB0B0164EB82
:1004800000042B0D43EA0C335E1844EB1C50DA4693
:100490005146E7FB0201C5F313044FEA0B3343EA6D
:1004A00014534FEA0432019C43EA0603A4F10C04FE
:1004B0000294009CCDE900B400F0DEF803B0BDE882
:1004C000F08F00200146F9E72DE9F04D81EA0304A1
:1004D00004F0004B21F0004514464FF0000A23F0D1
:1004E000004150EA050220D054EA01021DD0C5F3B4
:1004F0000A570246C5F31303C1F31300C1F30A56AA
:1005000040F4801543F48013A7EB0608101BD64671
:1005100008F2FD3873EB050002D308F1010801E091
:1005200092185B41B8F1000F03DA00200146BDE8E4
:10053000F08D00204FF48011064684460EE0171B14
:1005400073EB050705D3121B63EB050306434CEA67
:10055000010C49084FEA300092185B4150EA01074C
:10056000EDD152EA030012D082EA040083EA0501C9
:10057000084305D0101BAB4106D20122002306E040
:1005800000224FF0004302E06FF0010253101AEB1B
:1005900006004CEB085110EB0A0041EB0B01BDE8E3
:1005A000F04D00F05AB800F0004230F000400AD0A0
:1005B000C10D01F56071C0F3160042EA0151C20895
:1005C00040071143704700200146704730B50B4685
:1005D000014600202022012409E021FA02F59D4273
:1005E00005D303FA02F5491B04FA02F52844151E47
:1005F000A2F10102F1DC30BD202A04DB203A00FA2E
:1006000002F1002070479140C2F1200320FA03F369
:10061000194390407047202A04DB203A21FA02F067
:100620000021704721FA02F3D040C2F1200291402C
:10063000084319467047202A06DBCB17203A41FAB7
:1006400002F043EAE07306E041FA02F3D040C2F15F
:100650002002914008431946704710B5141E73F1EB
:10066000000408DA401C41F1000192185B411A4372
:1006700001D120F0010010BD2DE9F04D92469B46BE
:1006800011B1B1FA81F202E0B0FA80F22032904664
:10069000FFF7B2FF04460F4640EA0A0041EA0B01A9
:1006A00053465A46084313D0114653EA010019D065
:1006B000C8F140025046FFF7AEFF05460E465046D1
:1006C00059464246FFF798FF084305D0012004E051
:1006D00020463946BDE8F08D0020054346EAE07625
:1006E0002C4337430A986305E40AA0EB0800002274
:1006F000FD0A44EA47540A3002D500200146E9E7E2
:10070000010510196941DDE9084500196941BDE895
:10071000F04DA2E7C1F30A52C1F3130140F2FF33D7
:1007200041F480119A4202DA00200146704740F2FB
:1007300033439A42A2F2334202DC5242FFF76BBFCC
:10074000FFF75ABF30B5041E71F1000404DB4FF00F
:100750000044404264EB0101141E73F1000405DB08
:100760001C464FF00043524263EB0403994208BF1A
:10077000904230BD1CB509480090094801900546DB
:10078000009C06E0E06840F0010394E80700984709
:100790001034AC42F6D3FFF723FD0000484D0108AA
:1007A000684D0108FEE700004CF2F020C2F20000A4
:1007B00000F0D2B84CF25030C2F2000000F0CCB8D9
:1007C0004CF29020C2F2000000F0C6B87047000062
:1007D000EFF3108072B600BFFEE70000B0B540F244
:1007E000E801C2F20001083904384FF480520023B6
:1007F00050F8045F013A41F8085F4B60F8D140F2CD
:10080000E8044CF68430C2F20004C0F60000214631
:100810000022012304F034FD48F2E805C2F200058D
:10082000204629464FF4805205F00EF995ED000A56
:100830009FED0B1A281F20EE010A85ED000A9FED9F
:10084000090A40F6FF7100BF90ED021A013921EE4E
:10085000001A80ED021A00F10400F5D1B0BD00BF0E
:10086000000080390000003A014690F82500022877
:1008700027D180B50868D1E910CE8A6C036823F0CF
:100880000E030360136823F480731360026822F080
:10089000010202600EF01F00012202FA00F0CCF803
:1008A0000400D1E913205060486D30B1026822F491
:1008B00080720260D1E9160242600020BDE88040EB
:1008C00002E00420C8630120012281F825200022D3
:1008D00081F824207047000090F82510022930D1BB
:1008E00080B50168D0E910CE826C0B6823F00E034E
:1008F0000B600B6823F001030B60116821F4807119
:1009000011600EF01F02012101FA02F2CCF804205E
:10091000D0E913325A60426D32B1136823F4807308
:100920001360D0E91623536080F82510826B0021F4
:1009300080F824100AB190470021BDE880400846A5
:1009400070470421C1630121002280F8251080F83E
:100950002420084670470000B0B5D0E910C30268F3
:10096000DCF8001003F01F030424D2F800E09C40E0
:100970000C4218BF1EF004051BD102249C400C42FF
:1009800018BF1EF0020520D1D94009071CD51EF062
:10099000080108BFB0BD116821F00E0111600121EE
:1009A00001FA03F2CCF80420C16380F82510416BF2
:1009B00018E01168890603D4116821F00401116060
:1009C000CCF80440016B91B9B0BD1168890606D41A
:1009D000116821F00A011160012180F82510CCF87E
:1009E0000440C16A0022002980F82420ECD0BDE830
:1009F000B040084700284FF0010C00F08A802DE934
:100A0000F04F0021C4F2020103684FF6F83201F5FD
:100A1000816ECBF6FD72734538BF02F580624CF6ED
:100A2000CD441A44CCF6CC44A2FB042903F0FC02CA
:100A3000A2F10802A2FB042800F1080B01F5806472
:100A40006FF003069BE8040C3CBF0024C4F20204D0
:100A500001F5026506EA9906734538BF01F50065A0
:100A6000C0E91046022480F825401C6847F6F0775C
:100A700024EA0707D0E9054147EA0A0747EA0B07D6
:100A8000D0E907E93C43214341EA0E0141EA09016B
:100A9000114319600021C4F2020101F50861C1642B
:100AA000C8F3041173190CFA01F58364B2F5804F91
:100AB000056504BF00214160476840F68401FAB231
:100AC0001A607B1EC4F20201032B0D6012D8013A9A
:100AD00001EB8203002702F01F02012643F87C7F0E
:100AE00001F1BC0706FA02F2C0E91537C265C1F888
:100AF000C02003E00021C0E91511C1654FF0000CD2
:100B00000121C0F83CC080F8251080F824C0BDE861
:100B1000F04F60467047000090F824C0BCF1010F10
:100B200043D04FF0010C80F824C090F825C0BCF1F0
:100B3000010F37D12DE9F0414FF0020C80F825C0AC
:100B40004FF0000CC0F83CC0D0F800C000F14C0ED3
:100B50009EE83040DCF80060BEF1000F26F0010690
:100B6000CCF8006065601CBFD0E916456560D0E92F
:100B70001056846806F01F060127D0F8308007FA67
:100B800006F66E60CCF80430102C0B4604BF1346FA
:100B90000A46B8F1000FCCF80830CCF80C2006D08B
:100BA0000E210BE0002180F8241002207047DCF8B1
:100BB000001021F00401CCF800100A21DCF800201C
:100BC0001143CCF80010806C0168C90303D501689B
:100BD00041F480710160BEF1000F05D0DEF8000025
:100BE00040F48070CEF80000DCF8000040F0010016
:100BF000CCF800000020BDE8F0810000B0B504464C
:100C000000F0ECF8054640F2D400C2F200000068A3
:100C1000611C18BF044400BF00F0E0F8401BA04274
:100C2000FAD3B0BD2DE9F04F83B00E68002E00F06E
:100C3000C68000F1200241F2004C009200F13847DA
:100C4000C4F6000C06224FEAB725604508BF05220E
:100C5000052D38BF4FEAB722002500274FF0000AC4
:100C600001920AE00E680AF1010A36FA0AF207F167
:100C7000020705F1040500F0A280012202FA0AFC35
:100C800016EA0C09EED0D1F804B003220BF00308E9
:100C9000A8F10106012E02FA07F610D8D0F808E0F4
:100CA000CC682EEA0602BC40224382604268CBF345
:100CB000001422EA0C0204FA0AF422434260B8F15A
:100CC000030F1ED0C2688C68B243BC402243B8F107
:100CD000020FC26015D16FF00302009C02EA5A0BAA
:100CE00054F80BC005F01C030F22D1F8108002FA53
:100CF00003FE2CEA0E0C08FA03F343EA0C0344F853
:100D00000B3002684B68B24303F00306BE40324327
:100D100013F4403F0260A5D041F26003C4F2020325
:100D20001A6840F2004E42F001021A601A68C4F2DA
:100D3000010E02F001020292029A2AF003024FF61B
:100D4000084C7244CFF6FF7C52F80C3005F00C06CC
:100D50000F24B440A343019C04FA06F6334342F83F
:100D60000C30DEF808204B6842EA090640F20C4CD1
:100D7000DC0258BF22EA0906CEF80860C4F2010C72
:100D8000DCF800209C0242EA090658BF22EA090664
:100D9000CCF80060DEF804209C0342EA090658BF44
:100DA00022EA0906CEF80460DEF80020DB0342EAFE
:100DB000090658BF22EA0906CEF8006052E703B0E0
:100DC000BDE8F08F0069084018BF0120704700009F
:100DD0001823002A08BF2823C150704740F2B8707A
:100DE000C2F201000068704740F2D40040F2B871CE
:100DF000C2F20000C2F2010100680A6810440860F3
:100E00007047000080B5032000F0C0F80F2000F00C
:100E100009F800281CBF012080BD00F057F8002011
:100E200080BD0000B0B586B041F25801C4F20201A5
:100E30000A68044642F010020A60096801A801F03D
:100E4000100101910199694601F034FA01F054FA58
:100E50004DF68361C4F21B31A0FB01014FF0FF305E
:100E600000EB91414CF28C6041F20002C2F20000B2
:100E7000C4F2000240F2E7330025C0E90021C0E9D6
:100E80000253056101F078FD08B106B0B0BD4CF227
:100E90008C60C2F2000001F0C3FD0028F5D10546C8
:100EA000362000F035F80F2C0CD8362021460022D1
:100EB00000F040F840F2D800C2F20000046028467A
:100EC00006B0B0BD012006B0B0BD000080B582B054
:100ED00041F25800C4F20200816841F001018160D2
:100EE000816801F0010101910199016841F080518F
:100EF0000160006800F080500090009801F0ACFCA8
:100F0000022001F0B1FC02B0BDE8804000F0AABEB2
:100F1000002848BF704700F01F01012202FA01F1CA
:100F20001C2202EAD0004EF20012CEF200028150E2
:100F30007047000010B54EF60C5CCEF2000CDCF8E9
:100F40000030C3F3022E8EF00704042C28BF0424C3
:100F5000BEF103034FF0FF3E0EFA04F438BF002346
:100F6000A14399400EFA03F39A43114300F1604202
:100F700000F00F03090102F56442043B63440028BA
:100F800048BF03F10C02117010BD00004EF60C5169
:100F9000CEF200010A684FF6FF031A4060F30A22FE
:100FA00042F0806040F0FD700860704710B5012984
:100FB000044612D009BB607A48B102F015FC4EF627
:100FC0001050CEF20000016821F006010160D4F853
:100FD000D802BDE8104003F0B3B9D4F8D80203F04A
:100FE00023FA607A002808BF10BD4EF61050CEF2EA
:100FF0000000016841F00601016010BD01EB8102B3
:10100000D0F8D83200EBC200426A184603F0A4B808
:1010100001EB8102D0F8D83200EBC200D0F8642195
:10102000184603F0EDB80000027901F00F03934277
:1010300084BF0120704710B501F0070303EB830262
:1010400000EBC2024FFA81FC8E4602F5A871BCF19A
:10105000000F48BF02F110014FEADE124A7090F80B
:1010600090224FF0000C012A81F802C00B7004BFDF
:10107000022010BD0268012380F890320446104619
:1010800003F0A2FD002084F8900210BDB0B501F07D
:1010900007048C464FFA81FE04EB840100EBC10586
:1010A00005F5A871BEF1000F48BF05F110014FEA28
:1010B000DC156FF3DF224D700C700A61022BCB70D0
:1010C00004BF00220A7190F89022012A04BF022076
:1010D000B0BD0268012380F890320446104603F048
:1010E00047FC002084F89002B0BD000010B501F06C
:1010F000070C0CEB8C0100EBC10E00680EF5A8711B
:101100000024CEF86421CEF86831CEF86C418EF818
:1011100051418EF850C103F0AFFD002010BD00001A
:10112000027901F0070C94454FF001022AD810B55E
:1011300001EB810300EBC3034FFA81FE03F5A873B3
:101140000CEB8C04C90900EBC404BEF1000F48BFCE
:1011500004F11003597090F890129A70012983F8E5
:1011600000C001D102220BE00168012280F8902228
:1011700004460846194603F065FD002284F89022D3
:10118000BDE810401046704780B501F0070C0CEB2D
:101190008C0100EBC10101F810CF00684FF0010C89
:1011A00001F1140781F824C04FF0000E87E80C40CD
:1011B0000B6281F801C003F05FFD002080BD0000DC
:1011C0002DE9F04F83B00446006803F0F9FF0104F5
:1011D0001ED4410500F1D283410400F1E083810473
:1011E00000F1F183C10400F1F483010500F11684DC
:1011F000010600F12884810500F13584C00540F125
:10120000CB832068B0F8441021F4807100F001BC59
:101210002068B0F94410B1F1FF3F00F3BD8304F141
:10122000100104F5A875029104F5267140F60F78B7
:10123000019122E0B0F8501094F85021014401EBE4
:10124000C201B1F80634B4F8562101996FF39F2317
:10125000C4F86C3103F0B8FF2068018801EA080186
:1012600080310180204600F067FC00BF2068B0F9A3
:101270004410B1F1FF3F00F38F83B0F8442012F027
:101280000F090DD030F929104FEA490BB1F1FF3F9A
:101290001FFA81FA2EDD5FEA0A60E7D53EE100BF62
:1012A0000188D2065FD401EA080101F500410180FE
:1012B000B0F85010227C084400EBC200B0F80204E1
:1012C000616A6FF39F20E06208446062204600215B
:1012D000FFF794FE207B0028C8D0A06A0028C5D163
:1012E000207B216840F08000C0B2A1F84C000020B3
:1012F0002073BBE730F81B1001EA0801803120F8A9
:101300001B1009EB890105EBC106317B00297AD05E
:10131000F178022940F08680B0F850303178B26917
:1013200003445FEA4A4703EBC10300F19480B3F83A
:10133000067400236FF39F27D21B38BF1A46B26191
:1013400040F29E805FEA4A6200F1AA8030F82120D4
:1013500048F2C00302EA08021A4320F82120002FB5
:1013600040F09F80BEE00A053FF564AF09B2B1F1DD
:10137000FF3F3FF77BAF018801EA08018031018020
:10138000B0F8501094F85021014401EBC201B1F8BB
:1013900006346FF39F23C4F86C318BB1D4F8641119
:1013A00071B1B4F8562103F00FFFD4F86401D4F8FA
:1013B0006C110844C4F8640120460021FFF728FEA0
:1013C000206801880A053FF551AF01F44051B1F59D
:1013D000405F3FF44BAFB0F8501000F20642535A52
:1013E0006FF39F235352D4F86031002B00F0DA8161
:1013F0003E2B00F20F8203F00107565A07EB53030E
:1014000046EA832316E2B0F850103278014401EB2B
:10141000C201B1F806746FF39F27002F62D0716983
:10142000F2885CE0327848F2C00330F8221001EA1A
:101430000801194320F8221030F82230B0F850107B
:10144000D20002445B04114414D4B1F806746FF363
:101450009F2737BB46E0B3F8027400236FF39F2742
:10146000D21B38BF1A46B2611ED95FEA4A622AD43B
:101470009FBB37E0B1F802746FF39F276FBB31E079
:1014800030F8212043F60F731A404CF28003A3F585
:1014900000535A4020F821205FEA4A627FF556AF98
:1014A00007B3716972891AE030F8212043F60F738F
:1014B0001A404CF28003A3F500535A4020F8212033
:1014C0005FEA4A62D4D530F8212048F2C00302EA2C
:1014D00008021A4320F8212027B1716932893B465E
:1014E00003F072FEF169D6E9050239443844F1612E
:1014F000706112B13069B84208D931782046FFF7DF
:1015000087FD5FEA0A607FF5B1AE07E020683146EB
:1015100003F0B2FB5FEA0A607FF5A8AE206809EB32
:10152000890130F81B20029B03EBC10602EA080187
:1015300001F5004120F81B10F178012921D1317B00
:1015400000294FF00001B16100F027815FEA4A6194
:1015500074D47178012900F00D81002940F01D81BB
:10156000B0F850103278084400EBC200B0F806140E
:101570006FF39F21A0F80614B0F8061441F400415F
:10158000FFE05FEACA511CD4B0F850203178024421
:1015900002EBC102B2F80224B3696FF39F229B1AD7
:1015A0004FF0000738BF3B46B36140F2F7807169E6
:1015B000F369114471619918F161314603F05CFBE4
:1015C00054E6B0F850303178A946B5695FEA4A620E
:1015D0004FEAC10700EBC10248D402F2064E3EF8C2
:1015E000033000226FF39F23ED1A38BF1546B56113
:1015F0006ED95FEA4A4708D430F821704CF2800572
:1016000007EA08072F4320F8217096F824104D466A
:10161000012940F0A581D6E904C1D6E9075719444C
:101620001D4467457161F56180F01081002F00F065
:101630003781BC46326286F8242035E17178012971
:1016400000F0A280002940F0A880B0F85010327855
:10165000084400EBC200B0F802146FF39F21A0F819
:101660000214B0F8021441F4004194E002F2024E78
:101670003EF8033000226FF39F23ED1A38BF154662
:10168000B5614FD95FEA4A424D4608D530F821206E
:101690004CF2800702EA08023A4320F8212096F82B
:1016A0002410012940F05C81D6E90471D6E9072CA9
:1016B00019441A44BC457161F26180F0CB80002569
:1016C000BCF1000F86F8245040F0C7809C46C5E06E
:1016D0007378012B68D04D46002B72D1B0F8505072
:1016E00007442F44B7F802546FF39F25A7F802541C
:1016F000B7F8025445F40045A7F80254012B5BD01B
:10170000002B4D465DD1B0F850003EF800306FF32D
:101710009F232EF800303EF8003043F400432EF8AB
:1017200000304EE07378012B52D04D46002B5ED135
:10173000B0F850503EF805206FF39F222EF8052098
:101740003EF8052042F400422EF80520012B46D039
:10175000002B4D464BD1B0F8502038441044B0F81F
:1017600006246FF39F22A0F80624B0F8062442F462
:1017700000423AE0B0F850103278084400EBC20062
:101780000021A0F8061408E0B0F8501032780844A0
:1017900000EBC2000021A0F8021431782046FFF7C8
:1017A0002DFC63E58B5A40E0B0F8505007442F44BD
:1017B000A7F80224012BA3D1B0F850004D462EF813
:1017C00000202046FFF71AFC5FEA4A4016D5C7E022
:1017D000B0F8502000252EF80250012BB8D1B0F8F7
:1017E00050203844104400224D46A0F806242046DC
:1017F000FFF704FC5FEA4A4040F1B280206831788C
:101800004CF2800330F8212002EA08021A4320F843
:101810002120A5E032F801C05F09DE064FF0FF3657
:1018200008BF06EB53174CEA872348F20007CFF6B0
:10183000FF773B438B52018843F60F7211404CF205
:101840008002A2F58052514001800FE5A7EB0C0306
:10185000336229E0ACEB0705BC46356273784D4630
:10186000012B17D0D3B9B0F85030BCF1000F3EF8BF
:1018700003206FF39F222EF8032037D0BCF13E0FD8
:1018800043D80CF001023EF8035002EB5C0245EA3B
:10189000822249E0B0F850202EF802C032895BE085
:1018A000002786F824709C4673784D46012B18D08B
:1018B000002B50D1B0F85030BCF1000F3EF803704F
:1018C0006FF39F272EF8037018D0BCF13E0F30D86D
:1018D0000CF001073EF8035007EB5C0745EA872749
:1018E00036E0B0F850302EF803C034E03EF8032064
:1018F00042F400422EF8032032892DE03EF80370B6
:1019000047F400472EF8037025E05FEACC654FEA04
:101910005C123EF803504FF0FF3708BF07EB5C1234
:1019200045EA822242F400422EF8032032894D46D5
:1019300012E05FEACC654FEA5C173EF803504FF0C7
:10194000FF3208BF02EB5C1745EA872747F40047E0
:101950002EF803704D4672891FFA8CF303F052FC87
:101960002068317840F63F7330F821201A4048F261
:10197000C003103B5A4020F8212077E42068B0F8DB
:10198000441021F48061A0F84410204600F096F83D
:1019900094F89002012808D103B0BDE8F08F2068C8
:1019A000B0F8441021F4804133E00120002584F890
:1019B000900225732068002103F01CFC84F89052EB
:1019C00003B0BDE8F08F2068B0F8441021F4005156
:1019D0001FE02068B0F8401021F00401A0F840108A
:1019E000B0F8401021F00801A0F8401094F8C802A7
:1019F000012806D1002084F8C80220460021FFF704
:101A0000D5FA204600F06CF82068B0F8441021F4B4
:101A10008051A0F8441003B0BDE8F08F2168B1F800
:101A2000400040F00800A1F84000B1F8440020F464
:101A30000060A1F84400B1F8400040F004022046E4
:101A4000A1F840200AE02068B0F8441021F080019D
:101A5000A0F8441094F8C81291B1204603B0BDE834
:101A6000F04F00F071B82168B1F8440020F4007222
:101A70002046A1F8442003B0BDE8F04F00F044B880
:101A8000B0F8401041F00401A0F84010B0F8401048
:101A900041F00801A0F84010012184F8C812B0F804
:101AA00054003C2101EA900220460121C4F8CC22D6
:101AB00003B0BDE8F04FFFF779BA000010B5044657
:101AC0004079022818BFFEF783FED4F8D80201211E
:101AD00002F052FCD4F8D802BDE8104002F0FEBB80
:101AE00010B50446407A48B14EF61050CEF20000D0
:101AF000016821F00601016001F076FED4F8D802F9
:101B0000BDE8104002F01CBCD0F8D80202F022BCA4
:101B100090F89022012A04BF0220704710B50122DC
:101B200080F89022017302680446104603F062FBBD
:101B3000002084F8900210BDD0F8D82200F526715C
:101B4000104602F02FBC000010B50446D0F8D802B1
:101B500002F06AFC607A002808BF10BD4EF61050F3
:101B6000CEF20000016841F00601016010BD0000E6
:101B700047F2000CC4F2000CDCF80020B0F5007F46
:101B800035D0002866D1DCF8800002F4C06220F471
:101B90008070B2F5806FCCF8800026D1DCF80000B0
:101BA000012262F34A20CCF8000040F20000C2F2A9
:101BB00000000068322358434DF68363C4F21B33A0
:101BC000A0FB030302EB9340002200BFDCF81410DB
:101BD000013842F10003490501D5002BF6D1DCF8AC
:101BE0001400400544BF0320704700207047DCF814
:101BF000800002F4C06140F48070B1F5806FCCF8D1
:101C00008000F2D1DCF80000012161F34A20CCF819
:101C1000000040F20000C2F200000068322250438F
:101C20004DF68362C4F21B32A0FB020201EB92402C
:101C3000002200BFDCF81410013842F1000349050E
:101C400001D5002BF6D1DCF81400400544BF032079
:101C50007047CAE7022060F34A22CCF80020002037
:101C60007047000047F20800C4F20000016841F428
:101C700080410160704700002DE9F04381B081464A
:101C8000807841F288060007C4F2020601D40020E1
:101C90004AE056F8300C5FEAC0080BD456F8300C16
:101CA00040F0805046F8300C56F8300C00F0805070
:101CB0000090009847F20004C4F20004206840F449
:101CC00080702060FFF78AF8054600BF2068C705CE
:101CD00008D4FFF783F8401B0328F7D30320002F15
:101CE00003D418E00020002F15D5B16811F440711D
:101CF00000F02981D9F85020914240F02981C9078C
:101D000040F0358138B9B068D9F8501020F44070EF
:101D10000843B0600020B8F1000F05D456F8301C1D
:101D200021F0805146F8301CD9F80010CA0716D1AE
:101D30008A071DD44A0724D40A072BD4CA0632D4F2
:101D40008A0639D44A0640D40A0647D4CA054ED476
:101D50008A0355D48A055CD44A0563D472E032689C
:101D6000D9F8043022F003021A4332608A07E1D521
:101D70003268D9F8083022F00C021A4332604A0760
:101D8000DAD53268D9F80C3022F030021A433260CA
:101D90000A07D3D53268D9F8103022F0C0021A43AE
:101DA0003260CA06CCD53268D9F8143022F44072B9
:101DB0001A4332608A06C5D53268D9F8183022F441
:101DC00040621A4332604A06BED53268D9F81C30E8
:101DD00022F440521A4332600A06B7D53268D9F865
:101DE000203022F440421A433260CA05B0D532682E
:101DF000D9F8243022F440321A4332608A03A9D53C
:101E00007269D9F8283022F003021A4372618A05F8
:101E1000A2D53268D9F82C3022F440221A4332601D
:101E20004A050FD53268D9F8303022F440121A43EF
:101E3000B3F5801F326005D156F87C2C42F4801235
:101E400046F87C2C0A050FD53268D9F8343022F4D4
:101E500040021A43B3F5800F326005D156F87C2C4E
:101E600042F4801246F87C2CCA040FD53268D9F8A7
:101E7000383022F040721A43B3F1807F326005D1CE
:101E800056F87C2C42F4801246F87C2C8A040FD53C
:101E90003268D9F83C3022F040621A43B3F1006F47
:101EA000326005D156F87C2C42F4801246F87C2C26
:101EB0004A040FD53268D9F8403022F040621A4304
:101EC000B3F1006F326005D156F87C2C42F48012D9
:101ED00046F87C2C0A040FD53268D9F8443022F039
:101EE00040521A43B3F1805F326005D156F87C2C22
:101EF00042F4803246F87C2CCA030FD53268D9F8F8
:101F0000483022F040421A43B3F1804F326005D18D
:101F100056F87C2C42F4803246F87C2C49030FD5CD
:101F20007169D9F84C2021F440111143B2F5001F1A
:101F3000716105D156F87C1C41F4801146F87C1C77
:101F400001B0BDE8F0830021C9073FF4DBAE0EE02D
:101F5000B168B26821F4407142F48032B260B26874
:101F600022F48032B260B160C9073FF4CBAE0446C0
:101F7000FEF734FF054641F2893700BFB06880079D
:101F800009D4FEF72BFF401BB842F7D303200028EB
:101F90007FF4C1AEB7E6204600287FF4BCAEB2E6BF
:101FA0002DE9F047002800F0FE8042F2000AC4F25A
:101FB000020A0446DAF800000D4600F00F008842DD
:101FC0000DD2DAF8000020F00F002843CAF8000014
:101FD000DAF8000000F00F00A84240F0E480216829
:101FE00041F20808C807C4F202080CD14FF00009FA
:101FF000206881074BD4B9F1000F61D0D8F80000F8
:1020000020F0F0005AE0606858F8082C022800F030
:10201000C880032840F0CA80920140F1C480D8F8FB
:102020000420D8F8043042F20046C3F3031302F050
:102030000302D8F804700133C0F2F406032A04BF87
:1020400043F20066C0F26E16B6FBF3F2D8F8043025
:10205000C7F306277A43C3F34163022707EB430321
:10206000B2FBF3F24BF20043C0F2C4439A4240F297
:10207000E480D8F8002012F0F00F00F0D480890737
:1020800040F1DB80A168002940F0D780CBE0410718
:1020900005D5D8F8001041F4E061C8F80010000739
:1020A00006D5D8F80000072161F30D20C8F800001C
:1020B000D8F80000A16820F0F0000843C8F800003C
:1020C000DAF8000000F00F00A84219D9DAF8000091
:1020D00020F00F002843CAF80000FEF77FFE0646F6
:1020E00041F28837DAF8000000F00F00A84207D06C
:1020F000FEF774FE801BB842F4D90320BDE8F087D8
:102100002068410707D5D8F80010E26821F4E061A3
:102110001143C8F80010000708D5D8F8000021695D
:1021200020F4605040EAC100C8F80000D8F8000070
:1021300042F20041C0F2F40100F00C00042808460D
:1021400000F09C80D8F8000000F00C00082843F252
:102150000060C0F26E1000F09180D8F8002002F00C
:102160000C020C2A40F08980D8F80420D8F80430FA
:1021700002F00302C3F30313D8F804700133032AF7
:1021800008BF0146B1FBF3F0D8F80410C7F30627E7
:10219000C1F341610222784302EB4101B0FBF1F04F
:1021A0006CE0910304D40120BDE8F0875105FAD515
:1021B000D8F8001001F00C0104293ED0D8F8001026
:1021C00001F00C01082938D0D8F8001001F00C01FA
:1021D0000C2932D1D8F80410D8F8042042F2004774
:1021E000C2F3031201F00301D8F804300132C0F247
:1021F000F407032904BF43F20067C0F26E17B7FB70
:10220000F2F1D8F80420C3F306235943C2F3416224
:10221000022303EB4202B1FBF2F14BF20042C0F2A7
:10222000C442914209D9D8F80010082262F307117C
:102230004FF00109C8F8001001E04FF00009D8F88C
:10224000001021F003010843C8F80000FEF7C6FDA6
:10225000064641F2883700BFD8F80000616800F0F8
:102260000C00B0EB810F3FF4C3AEFEF7B7FD801B4F
:10227000B842F1D90320BDE8F0870020D8F800105B
:1022800046F6D432C1F30311C0F60002515C40F2AD
:10229000000201F01F0120FA01F140F2D800C2F261
:1022A00000000068C2F200021160BDE8F047FEF7CE
:1022B000B9BD00000F22026041F20802C4F202021E
:1022C000136803F003034360136803F0F0038360B3
:1022D000136803F4E063C36012684FF4E06303EA39
:1022E000D202026142F20000C4F20200006800F073
:1022F0000F0008607047000040F2000041F2080142
:10230000C2F20000C4F202010068096846F6E43235
:10231000C1F30221C0F60002515C01F01F01C84068
:102320007047000040F2000041F20801C2F20000D4
:10233000C4F202010068096846F6E432C1F3C22122
:10234000C0F60002515C01F01F01C8407047000058
:1023500041F20C01C4F2020151F8040C42F20042B5
:10236000C0F2F40200F00C000428104608BF7047C9
:1023700051F8040C00F00C00082843F20060C0F291
:102380006E1025D051F8043C03F00C030C2B1CBF3D
:102390000020704780B5D1F800C00B680CF0030C2A
:1023A000C3F3031E0B680EF1010EBCF1030F08BF4F
:1023B00002460968B2FBFEF0C3F30623C1F3416194
:1023C0000222584302EB4101B0FBF1F0BDE880402E
:1023D00070470000002804BF012070472DE9F0413C
:1023E00082B00446007841F20006C007C4F202063B
:1023F0001DD12078800737D4207800075AD4207860
:10240000400778D42078800600F1BF80E569002D70
:1024100000F01E82B06800F00C000C2840F01E8115
:10242000012D40F09881012002B0BDE8F081B06834
:1024300000F00C01F068082954D0032281F00C014F
:1024400022EA00000844B0FA80F040094AD16568E9
:102450003068B5F5A02F00F0C680B5F5803F40F09C
:10246000C98040F48030CBE0B068F16800F00C0027
:10247000042864D001F0030180F00C0081F0020117
:102480000844B0FA80F0400959D1E1683068002969
:1024900000F0D18040F480703060FEF79FFC05466C
:1024A0003068400500F1FC80FEF798FC401B0228D4
:1024B000F6D936E16169D6F89400002900F08180F0
:1024C00040F00100C6F89400FEF788FC054600BF06
:1024D000D6F89400800792D4FEF780FC401B0228B7
:1024E000F6D91EE1306880037FF583AF606800286D
:1024F0007FF47FAF39E0B06D5FEAC00808D4B06DFB
:1025000040F08050B065B06D00F0805001900198AF
:1025100047F20007C4F200073868C00529D43868BC
:1025200040F480703860FEF759FC05463868C005F5
:102530001FD4FEF753FC401B0228F7D9F1E03068A6
:10254000400501D5E06880B17068216920F0FE4047
:1025500040EA0160706040F2D800C2F200000068FA
:10256000FEF760FC00283FF447AF012002B0BDE851
:10257000F081A568D6F89000052D00F0AE80012D01
:1025800040F0B48040F00100B8E0A169D6F89800AE
:10259000002900F08D8040F00100C6F89800FEF799
:1025A0001DFC0546D6F8980080073FF52FAFFEF7D3
:1025B00015FC401B02284FF00300F3D902B0BDE820
:1025C000F08120F00100C6F89400FEF707FC0546F4
:1025D000D6F8940080077FF512AFFEF7FFFB401B93
:1025E0000228F5D99DE040F480203060306840F446
:1025F000803005E020F480303060306820F48020A6
:102600003060FEF7EBFB002D054610D030688003EC
:102610003FF5EFAEFEF7E2FB401B6428F6D980E001
:10262000FEF7DCFB401B64284FF00300C6D830687F
:102630008003F5D4DDE620F480703060FEF7CEFB39
:10264000054600BF306840057FF5D6AEFEF7C6FBF5
:10265000401B02284FF00300F4D9AFE7306820F0A8
:1026600080703060FEF7BAFB022D05460CD100BF2A
:102670003068800140F1A880FEF7B0FB401B0228C3
:102680004FF00300F4D999E73068800140F1D98018
:10269000FEF7A4FB401B02284FF00300F4D98DE79E
:1026A0007068216920F0FE4040EA01607060A3E696
:1026B00020F00100C6F89800FEF790FB054600BF29
:1026C000D6F8980080077FF5A1AEFEF787FB401B88
:1026D00002284FF00300F3D970E740F00400C6F879
:1026E0009000D6F8900040F0010007E020F00100D3
:1026F000C6F89000D6F8900020F00400C6F89000CC
:10270000FEF76CFB002D054641F2883716D000BF5E
:10271000D6F89000800715D4FEF760FB401BB84246
:10272000F6D9032002B0BDE8F08100BFFEF756FBEA
:10273000401BB8424FF003003FF640AFD6F8900080
:102740008007F3D4B8F1000F3FF55CAEB06D20F018
:102750008050B06556E6F068216A00F003028A42B4
:102760007FF403AF626A6FF00F0300F0F00103EB38
:10277000021291427FF4F9AEA16A00F4FE42B2EB7C
:10278000012F7FF4F2AEE16A00F07842B2EBC16F44
:102790007FF4EBAE226B0023CFF6E07303EA025224
:1027A00000F4C001A2F5001291427FF4DEAE616B2D
:1027B0004FF07E4202EA016100F0C06001F17E410B
:1027C00088427FF4D2AE43E0F06848F20C01C0F2D8
:1027D0009F1104F1200700EA010C8ECF6FF00F006B
:1027E000D4E90C5400EB02100022CFF6E07241EA6B
:1027F0000C0102EA05520843A2F500124FF07E4593
:1028000040EA032005EA0465104305F17E4540EAED
:10281000C7602843F060306840F080703060F06836
:1028200040F08070F060FEF7D9FA0446306880010D
:102830000ED4FEF7D3FA001B02284FF00300F5D99F
:10284000BCE6F0684FF6FC71CFF6EE610840F06030
:10285000002002B0BDE8F0813020C4F20100016820
:1028600021F00101016070473021C4F201010A68C2
:1028700022F0020210430860704700007047000019
:10288000704700007047000070470000704700006C
:102890007047000090F83C20012A4FF0020266D0F9
:1028A00070B5012380F83C3080F83D20026842F684
:1028B000004C54689368C4F2010C45F2000E624566
:1028C000C4F2010E18BF72452AD14D6824F4700479
:1028D0002C434FF68F75CFF6FF550E682C4042F60D
:1028E000FF35C4F201053443AA4254600DDC40F2C6
:1028F000FF76C4F20006B24219DCB2F1804F29D053
:1029000040F20046C4F2000622E043F6FF74C4F22F
:102910000104A24216DC62451CD043F2004615E0D9
:1029200043F20045C4F20105AA42CED0D1E740F6F9
:102930000006C4F20006B2420CD040F60046C4F2D3
:10294000000605E0724505D044F20006C4F2010617
:10295000B24204D1896823F08003194391600121B8
:10296000002280F83D1080F83C20BDE87040104601
:102970007047000070470000002804BF0120704726
:1029800010B5044690F83D0028B9002084F83C00BA
:10299000204600F023F8022084F83D002068211D25
:1029A00000F076FF012084F8480084F83E0084F8A7
:1029B0003F0084F8400084F8410084F8420084F825
:1029C000430084F8440084F8450084F8460084F805
:1029D000470084F83D00002010BD0000006841F26F
:1029E0000041C4F20001884218BF704780B582B030
:1029F00041F25800C4F202000168002241F02001B7
:102A000001600068002100F020000190019837204B
:102A1000FEF790FA372002B0BDE88040FEF778BAA2
:102A200090F83D1001291BD1022180F83D1001686A
:102A300042F6FF32C868C4F20102914240F0010040
:102A4000C8600FDC40F2FF70C4F20000814218DC65
:102A5000B1F1804F2CD040F20040C4F2000025E0DC
:102A60000120704743F6FF70C4F20100814213DC7D
:102A700042F60040C4F20100814219D043F2004006
:102A800012E040F60000C4F20000814210D040F68F
:102A90000040C4F2000009E045F20000C4F2010069
:102AA000814205D044F20000C4F2010081420CD101
:102AB00088680722C0F201020240062A4FF0000097
:102AC000CFD0B2F5803F08BF7047086840F00100E2
:102AD000086000207047000070470000F0B581B02A
:102AE00004460068C5680669B10716D515F00201ED
:102AF00013D06FF002010161012121778069800705
:102B000003D02046FFF7E8FF05E0204600F0CAF8B2
:102B1000204600F0C9F800202077700718D515F07E
:102B2000040015D020686FF00401016102212177B3
:102B3000806910F4407F03D02046FFF7CDFF05E009
:102B4000204600F0AFF8204600F0AEF800202077D5
:102B5000300717D515F0080014D020686FF0080171
:102B6000016104212177C069800703D02046FFF767
:102B7000B3FF05E0204600F095F8204600F094F8F9
:102B800000202077F00618D515F0100015D0206829
:102B90006FF01001016108212177C06910F4407FB6
:102BA00003D02046FFF798FF05E0204600F07AF8B2
:102BB000204600F079F800202077F00718BF15F0C4
:102BC000010006D020686FF001010161204600F08D
:102BD0006DF816F4025F05F0800718BF002F02D1D0
:102BE000F00509D410E020686FF40251016120461D
:102BF000FFF746FEF00507D537B120686FF4807106
:102C000001612046FFF73AFE700609D515F0400035
:102C100006D020686FF040010161204600F058F8AE
:102C2000B00609D515F0200006D020686FF020010D
:102C300001612046FFF726FEF00209D515F4801049
:102C400006D020686FF4801101612046FFF71EFE58
:102C5000B00209D515F4001006D020686FF40011F9
:102C600001612046FFF710FE700209D515F48000BF
:102C700006D020686FF4800101612046FFF708FE4E
:102C800030020CD515F4000009D021686FF4000261
:102C900020460A6101B0BDE8F040FFF76BBE01B00D
:102CA000F0BD00007047000070470000016841F26D
:102CB0000002C4F20002914208BFFEF795B84CF240
:102CC000D861C2F20001884218BF704700F0A8BB6B
:102CD0007047000090F88410012904BF022070475B
:102CE0002421C0F8881001680A680B6822F000529D
:102CF00023F001030B60002343660A602021C0F823
:102D0000881080F884300020704700007047000071
:102D10007047000090F88420012A04BF0220704709
:102D2000B0B50123242280F88430C0F888200268DE
:102D3000D0F864E0D2F800C01468BEF1000F24F0AF
:102D400001041460946824F0606441EA0401916015
:102D50001BD0916893684CF6A43E5B0FC0F6000E42
:102D60004CF6AC351EF80340C0F60005EB5CE40001
:102D7000B4FBF3F3C1F34261A0F86A301EF80130EE
:102D8000695CDB00B3FBF1F301E0A0F86A302021BD
:102D9000A0F86830C2F800C0C0F88810002180F8A0
:102DA00084100020B0BD000090F88420012A04BFE8
:102DB00002207047B0B50123242280F88430C0F887
:102DC00088200268D0F864E0D2F800C01468BEF130
:102DD000000F24F001041460946824F0604441EA78
:102DE000040191601BD0916893684CF6A43E5B0F80
:102DF000C0F6000E4CF6AC351EF80340C0F60005D8
:102E0000EB5CE400B4FBF3F3C1F34261A0F86A3079
:102E10001EF80130695CDB00B3FBF1F301E0A0F8C0
:102E20006A302021A0F86830C2F800C0C0F88810CD
:102E3000002180F884100020B0BD00007047000021
:102E4000704700007047000070B5046840F62F031B
:102E5000E2692168A6681340202B05D101F0200308
:102E600006F080555B1938D140F60F0313400CD0A3
:102E70000123C1F2000306EA030C40F22013C0F262
:102E800000430B4013EB0C032DD1C36ED50616D5B2
:102E9000012B14D111F0100311D010212162A1686F
:102EA000490600F1FC80B0F85C10B0F85E20B0F884
:102EB0005E30002B18BF914240F05B8170BDD302A1
:102EC00040F1CB8016F4800300F0C7804FF48011EE
:102ED0002162BDE87040FFF7B3BF416F0029EDD01C
:102EE000BDE870400847D30718BF11F4807307D0BE
:102EF00001232362D0F8903043F00103C0F89030F2
:102F0000930706F0010E0AD5BEF1000F07D0022389
:102F10002362D0F8903043F00403C0F89030530798
:102F20000AD5BEF1000F07D004232362D0F89030F9
:102F300043F00203C0F8903013070CD501F02003D2
:102F400053EA0C0307D008232362D0F8903043F0F3
:102F50000803C0F8903013050BD511F0806308D03A
:102F60004FF400632362D0F8903043F02003C0F8A0
:102F70009030D0F89030002BA0D092060AD501F006
:102F8000200106F08052891804D0416F11B1044627
:102F9000884720460168D0F89020896802F028020E
:102FA00001F04001891807D10446FFF74BFF0020CC
:102FB000C4F8900070BD00BF016851E8001F0268AE
:102FC00021F4907142E80013002BF5D14FF6FE7109
:102FD000CEF6FF71026852E8022F03680A4043E808
:102FE0000226002EF6D1C16E012909D1016851E8EF
:102FF000001F026821F0100142E80013002BF5D1F8
:103000002021C0F88C100021C166026841679168D8
:10301000490640F1A18000BF016851E8021F026823
:1030200021F0400142E80213002BF5D1D0F88010C6
:10303000002900F0918043F68932C0F60002044670
:1030400008468A63FDF748FC00283FF437AFD4F800
:103050008000816BBDE870400847130606D501F07B
:10306000800306F400069B1940F0B380530677D521
:1030700011F0400374D000BF016851E8001F0268DE
:1030800021F0400142E80013002BF5D12021C0F8C7
:10309000881000218167BDE8704000F0BBB9D0F80E
:1030A00080100A6851688BB2002B4AD0B0F85C607F
:1030B000B34246D2A0F85E101168890635D400BF2D
:1030C000016851E8001F026821F4807142E8001392
:1030D000002BF5D1016851E8021F026821F00101BF
:1030E00042E80213002BF5D1016851E8021F026883
:1030F00021F0400142E80213002BF5D12021C0F855
:103100008C100021C16600BF016851E8001F0268F1
:1031100021F0100142E80013002BF5D1D0F8801007
:1031200004460846FDF7A0FB204602210167B0F8DF
:103130005C10B0F85E20891A89B2BDE87040FFF7D4
:10314000E5BDB0F85C1099427FF4B8AE1268920603
:103150007FF5B4AE022237E0BDE87040FFF772BEE3
:1031600013023DD511F080433AD0BDE87040FFF71F
:1031700065BE891A026852E8002F036822F4907233
:1031800043E80026002EF5D14FF6FE72CEF6FF7210
:10319000036853E8023F0668134046E80235002DF5
:1031A000F6D12022C0F88C200022C266426700BF00
:1031B000026852E8002F036822F0100243E800265C
:1031C000002EF5D1022289B20267BDE87040FFF7F8
:1031D0009DBD816F00293FF471AEBDE87040084786
:1031E000D2017FF56BAEB1F1FF3FC8BF70BDBDE846
:1031F0007040FFF78DBD000010B5D0B10446D0F887
:10320000880028B9002084F88400204600F026F8C1
:103210002420C4F888002068A16A026822F0010214
:10322000026011B1204600F0DBFB204600F03CFDBF
:1032300008B1012010BD2168486820F49040486022
:10324000886820F02A008860086840F00102204663
:103250000A60BDE8104000F037BC00002DE9F041E5
:103260009CB00446002502A854211B95CDE91955B0
:10327000CDE91755FDF704F8206843F60001C4F2C4
:103280000101884202D01CB0BDE8F0810120CDE9E7
:10329000020502A8FEF7F0FC002818BFFDF798FA17
:1032A00041F24C00C4F20200416940F2080841F4C6
:1032B000804141614169002601F4804101910199F9
:1032C0000168C4F2020841F001010160006817A919
:1032D00000F00100019001984FF4C06017900220A7
:1032E000189007201B904FF09040CDE91966FDF72C
:1032F00099FC4CF2F025C2F2000518208027C5E9A0
:1033000000802846C5E90266C5E90476C5E9066677
:103310002E62FDF76FFB002818BFFDF759FAC4F8BD
:103320008050AC624CF2503508F11400C2F2000536
:103330001921102285E8C7002846C5E90566C5E9B8
:103340000766FDF757FB002818BFFDF741FA252057
:1033500000210022E567AC62FDF7ECFD2520FDF7BA
:10336000D7FD1CB0BDE8F081D0F88830202B09D102
:10337000944600294FF0010218BFBCF1000F04D1A0
:1033800010467047022210467047B0B50022212334
:103390000165A0F854C0A0F856C0C0F89020C0F84D
:1033A0008830C36F13B343F69935C0F6000543F672
:1033B000614443F6A14E5D630568C0F60004C0F6A3
:1033C000000EC3E90B4E9A6305F128020446184625
:1033D0006346FDF7A1FB0146204639B11021C0F834
:1033E00090102021C0F8881001220EE001684022D0
:1033F0000A6200BF016851E8021F026841F08001C3
:1034000042E80213002BF5D10022BDE8B04010467F
:10341000704700007047000070470000FEE70000A2
:1034200080B582B00DF1070000F056F8013803288E
:103430001FD8DFE800F00211070C9DF807001AA260
:103440001CA10DE09DF807000BA20EA108E09DF85D
:1034500007001BA21DA103E09DF807000CA20FA10D
:10346000002840F20C00C2F2000008BF114601F033
:10347000DBFE02B080BD00BF4B4559332073686F3F
:1034800072740A004B455933206C6F6E670A000056
:103490004B4559322073686F72740A004B4559329C
:1034A000206C6F6E670A00004B4559312073686FBE
:1034B00072740A004B455931206C6F6E670A000028
:1034C0004B4559342073686F72740A004B45593468
:1034D000206C6F6E670A000070B541F20005C4F6FB
:1034E0000005044628464021FDF76CFC4FF001061C
:1034F00010B328462021FDF765FCF8B128461021BD
:10350000FDF760FCE0B128460821FDF75BFCC8B17F
:1035100040F2E201C2F200010A8840F2E003C2F286
:1035200000030020072A187020D8088040F2E40128
:10353000C2F20001087070BD012004E0022002E028
:10354000032000E0042040F2E201C2F200010A88F8
:1035500001320A8040F2E401C2F20001087040F238
:10356000E000C2F200000670002070BD282A08802A
:1035700084BF0120207040F2E400C2F20000007815
:1035800070BD000080B582B041F24800C4F2020074
:103590000168002241F004010160016801F00401AA
:1035A00001910199016841F0010101600068002169
:1035B00000F00100009000980B20FDF7BBFC0B20F1
:1035C000FDF7A6FC0C2000210022FDF7B3FC0C2027
:1035D000FDF79EFC0D2000210022FDF7ABFC0D2025
:1035E00002B0BDE88040FDF793BC00002DE9F04F2C
:1035F00087B0002441F24C000694CDE90444CDE9A3
:103600000244C4F20200016841F2000841F01001D6
:1036100001600168C4F6000801F0100101910199F0
:103620000168A8F5006541F004010160016801220C
:1036300001F004010191019901684FF0010941F085
:1036400020010160016801F02001019101990168E8
:1036500041F001010160016801F00101019101994E
:10366000016841F008010160016801F00801019161
:103670000199016841F00201016000684FF4604166
:1036800000F00200019001982846FDF7A1FBA8F583
:1036900080663046802100224FF0800AFDF798FBBB
:1036A0004046032100224FF0030BFDF791FB7820E9
:1036B00002AFCDE90204404639460494FDF7B2FA60
:1036C0004FF46040CDE9020928463946CDE904446B
:1036D000FDF7A8FA022530463946CDE902A904943F
:1036E0000595FDF79FFA40463946CDE902B9CDE987
:1036F0000445FDF797FA07B0BDE8F08F10B584B028
:103700004CF2D86041F200410024C2F20000C4F241
:10371000000142F20F730394CDE90144A72280E82F
:103720001600C3608461FFF727F9002818BFFDF772
:103730004FF84CF2D860C2F2000001A90194039442
:10374000FFF7A8F8002818BFFDF742F804B010BD35
:1037500080B54CF2247043F60001C2F20000C4F2BE
:10376000010100234FF00C0C4FF4E13280E80E0011
:10377000C0E90333C0E905C3C0E90733C0E9093331
:10378000FFF73AFD002818BFFDF722F84CF224702D
:10379000C2F200000021FFF707FB002818BFFDF769
:1037A00017F84CF22470C2F200000021FFF7B2FAC1
:1037B000002818BFFDF70CF84CF22470C2F200008C
:1037C000FFF788FA002808BF80BDBDE88040FCF7FD
:1037D000FFBF0000FEE70000FEE7000070470000AA
:1037E000704700007047000070B594B006AC2046EA
:1037F0003821FCF745FD002500200595CDE903554E
:10380000CDE90155FEF7B4F9212006904FF4803040
:103810000790012006210C9002200F9155210D9058
:103820000326CDE91010CDE9120020460E96FEF7D2
:10383000D1FD20B1EFF3108072B600BFFEE70F207C
:10384000CDE9010601A80421CDE903550595FEF750
:10385000A7FB20B1EFF3108072B600BFFEE714B0F3
:1038600070BD00004EF68850CEF20000016841F4B1
:1038700070010160704700004CF28C60C2F20000E1
:10388000FFF72CB94CF2D860C2F20000FFF726B95E
:1038900040F6FF330268C4F2000343F2FF3C984253
:1038A000C4F2010C0ADD60452EDC40F60043C4F290
:1038B0000003984234D042F600432DE0B0F1804F2F
:1038C0002ED040F20043C4F20003984228D040F6C4
:1038D0000003C4F20003984222D0604526DC40F287
:1038E000FF73C4F20003984235DD40F60003C4F2D2
:1038F0000003984245D040F60043C4F200039842CA
:103900003FD042F6004338E045F20003C4F2010321
:10391000984205D043F20043C4F201039842DCD13F
:103920004B6822F070021A436045D8DD44F2FF3341
:10393000C4F20103984218DD44F20043C4F20103CB
:1039400098421ED045F20003C4F20103984218D0F9
:1039500044F6000311E0B0F1804F12D040F2004372
:10396000C4F2000398420CD00FE043F20043C4F2CB
:103970000103984205D044F20003C4F201039842C7
:1039800003D1CB6822F440721A4380B54B6922F010
:10399000800E8A6843EA0E03D1F800C00360C26259
:1039A000A0F18042A2F596324FEAB222092AC0F86D
:1039B00028C0BDE8804008D8012303FA02F240F293
:1039C000E5231A421CBF09690163012141610169B4
:1039D000C90708BF7047016921F001010161704703
:1039E000816A0A070CD4CA0715D18A071ED44A0770
:1039F00027D4CA0630D48A0639D44A0642D457E0BE
:103A00000268D0F838C0536823F4004343EA0C033B
:103A10005360CA07E9D00268D0F82CC0536823F479
:103A2000003343EA0C0353608A07E0D50268D0F8FC
:103A300030C0536823F4803343EA0C0353604A07D1
:103A4000D7D50268D0F834C0536823F4802343EA02
:103A50000C035360CA06CED50268D0F83CC0936808
:103A600023F4805343EA0C0393608A06C5D50268A9
:103A7000D0F840C0936823F4005343EA0C039360EA
:103A80004A0615D5D0F800C0436CDCF80420B3F525
:103A9000801F22F4801242EA0302CCF8042007D1EE
:103AA000DCF80420836C22F4C0021A43CCF8042012
:103AB000090658BF70470168C06C4A6822F40022AA
:103AC0001043486070470000B0B582B00446002043
:103AD000C4F89000FDF782F92168054609680907D6
:103AE0001AD56FF07E4C20464FF4001100222B4671
:103AF000CDF800C000F038FA70B100BF206850E87F
:103B0000000F216820F0800041E80002002AF5D172
:103B100003202021882230E020680068400723D558
:103B20006FF07E4C20464FF4800100222B46CDF8EA
:103B300000C000F019FAB8B1206850E8000F216801
:103B400020F4907041E80002002AF5D1206850E886
:103B5000020F216820F0010041E80202002AF5D19D
:103B6000032020218C2208E02020C4F88800C4F81B
:103B70008C00002170220020E166A150002184F811
:103B8000841002B0B0BD0000806A0021A0F85E1071
:103B9000A0F85610FFF756B9806A0368D0F888205D
:103BA000D0F88CC09B681B061BD5212A19D1002296
:103BB000A0F85620026852E8002F036822F0C002E5
:103BC00043E800210029F5D1016851E8021F02688D
:103BD00021F4000142E80213002BF5D12021C0F8A6
:103BE000881001688968490632D5BCF1220F2FD1AF
:103BF0000021A0F85E1000BF016851E8001F0268B4
:103C000021F4907142E80013002BF5D14FF6FE7CB1
:103C1000CEF6FF7C026852E8022F036802EA0C022B
:103C200043E802210029F5D1C16E01290AD100BF64
:103C3000016851E8001F026821F0100142E80013FA
:103C4000002BF5D12021C0F88C100021C1664167FE
:103C5000D0F8901041F01001C0F89010FFF7F2B8C2
:103C60000168806A0968890648BFFFF7D3BB002155
:103C7000A0F85610016851E8021F026821F0800187
:103C800042E80213002BF5D1016851E8001F0268D9
:103C900041F0400142E80013002BF5D170470000CD
:103CA000806AFFF7B9BB0000F0B581B0044604F1AB
:103CB00008064ECE0068194341EA0603E16906682A
:103CC00046F6F315CCF6FF752E4033430B430360E5
:103CD00043684FF2FF4523F440531A43426048F2D1
:103CE0000002A369C4F2000290421CBF266A33435B
:103CF0008668C1F2FF152E4033438360C36A666A4B
:103D000023F00F033343C36244F6FF73C4F200038E
:103D100098424FF0100318DC44F20046C4F200064B
:103D2000B04227D044F60006C4F20006B0422FD0BD
:103D300044F60046C4F20006B0423ED141F2880388
:103D4000C4F202031B689B092FE045F20006C4F28F
:103D50000006B04215D0904221D043F60006C4F2CE
:103D60000106B04229D141F28803C4F202031B6864
:103D700079A61EE041F28803C4F202031B689B0887
:103D800013E041F28803C4F202031B681B0A0CE033
:103D900041F28803C4F202031B681B0905E041F2EB
:103DA0008803C4F202031B689B0A4CF69436C0F6E3
:103DB000000603F0030356F82330904242F200401D
:103DC000C0F2F40013D0B1F5004F1ED1082B00F261
:103DD00064800027DFE803F0056973617161616148
:103DE000B500FEF789FA002840F06A809DE0082BB4
:103DF0004ED80027DFE803F0054C1E4C184C4C4C05
:103E00001C00FEF779FAB8B98FE0082B49D80027D3
:103E1000DFE803F0054F7447724747479C00FEF701
:103E20006BFA00286BD180E0FEF792FA20B97CE0B3
:103E30004FF40040002878D0616A4AF6EC32C0F6B0
:103E4000000232F811206568B0FBF2F305EB450182
:103E50008B424FF001016BD32E03B34268D800218F
:103E60000023FCF7D5F9090241EA1061000210EBCA
:103E7000550041F100012A460023FCF7C9F94FF62D
:103E80000052A0F54071C0F20F0291424BD34EE0B8
:103E9000002001270028CFD147E00020012778B972
:103EA00043E00020012750BB3FE0FEF73BFA38B962
:103EB0003BE0FEF737FA10BB37E0FEF749FAA0B354
:103EC000616A4AF6EC32C0F6000232F811106268FC
:103ED000B0FBF1F0510801EB4000B0FBF2F04FF6FF
:103EE000EF72A0F11001914221D84FF6F07101401C
:103EF000C0F34200084416E0FEF72AFAA8B1616A4E
:103F00004AF6EC32C0F6000232F811106268B0FBDB
:103F1000F1F000EB5200B0FBF2F04FF6EF72A0F1BF
:103F20001001914203D82168C860394600E00121A0
:103F30004FF001100022A06662670846A26701B038
:103F4000F0BD4FF400400028BAD1EEE74FF4004036
:103F50000028D4D1E9E700BF010000000400000000
:103F600002000000080000002DE9F04381B0044683
:103F70000068C0690840401AB0FA80F040099042D9
:103F800057D1DDF8208015460E46994608F1010705
:103F900009E000BF2068C0693040801BB0FA80F0A3
:103FA0004009A84245D1002FF4D0FCF717FF014685
:103FB000B8F1000F4FF003003CD0A1EB09014145DF
:103FC00038D8206801684907E4D5402EE2D0802E19
:103FD000E0D0C169090730D4C1690905DAD54FF4C9
:103FE00000610162206850E8000F216820F49070A1
:103FF00041E80002002AF5D14FF6FE70CEF6FF70C0
:10400000216851E8021F2268014042E80213002B98
:10401000F6D1E06E012809D1206850E8000F216830
:1040200020F0100041E80002002AF5D103202021F1
:104030002CE0002001B0BDE8F0830821016200BF40
:10404000206850E8000F216820F4907041E80002D9
:10405000002AF5D14FF6FE70CEF6FF70216851E8C8
:10406000021F2268014042E80213002BF6D1E06EE5
:10407000012809D1206850E8000F216820F01000C5
:1040800041E80002002AF5D1012008212022C4F8CD
:104090008C200022E2666267C4F8901084F88420C5
:1040A00001B0BDE8F08300004CF22470C2F20000C1
:1040B000FEF7CABED0F8B82222B180B55268904748
:1040C000BDE880400020704780B513460A460021B5
:1040D00000F0F2F8002080BD80B513460A460021AA
:1040E00000F0ACF9002080BD80B50521C0F8941225
:1040F00000210022002300F0DFF8002080BD000036
:1041000080B513460A460221C0F894120021C0E986
:10411000063300F093F9002080BD000080B5042133
:10412000C0F8941200210022002300F087F900203B
:1041300080BD000080B5D0F8C402FCF775FF40F2E6
:104140000032C100C0F2013222FA01F1032888BF17
:104150000321C8B280BD0000B0B569B190F89C22BF
:10416000032A4AD1D0F8B8225269002A45D0904794
:10417000002808BF0020B0BDD0F89412022935D124
:10418000D0E907318B420DD95B1A11461A46C3613B
:104190000446FFF7A1FF204600210022002300F083
:1041A0008BF822E00FD182698A420CD3D0F89812A2
:1041B0008A4208D20021002204460025FFF78CFF26
:1041C000C4F89852E7E790F89C12032906D1D0F87A
:1041D000B812C96811B104468847204680210446B8
:1041E00000F010F92046FFF77FFF204690F8A0125C
:1041F000012904BF002180F8A0120020B0BD0000FA
:1042000010B561B190F89C22032A1AD1D0F8B822D7
:104210009269B2B19047002808BF002010BDD0F8C5
:10422000941203290DD1D0E9571399420BD9C91A19
:10423000C0F85C11994238BF0B4611461A46FFF789
:1042400043FF002010BD90F89C12032906D1D0F83E
:10425000B812096911B1044688472046FFF75EFF8E
:10426000002010BDD0F8C40201F07F034AB203EB76
:10427000830301EB810100EBC30300EBC10000F5F8
:10428000A970002A48BF03F11200007870470000AF
:1042900080B59446D0F8C4021A466346FCF7F6FE91
:1042A00040F20032C100C0F2013222FA01F10328CB
:1042B00088BF0321C8B280BD80B5D0F8C402FCF726
:1042C00015FF40F20032C100C0F2013222FA01F1C2
:1042D000032888BF0321C8B280BD0000F0B581B0BB
:1042E00004460120002184F89C02C4F89412D4F8FA
:1042F000B8026160C4F8A412E8B1D4F8BC1221B1CC
:10430000426812B120460021904720460021002239
:10431000402300254026FFF7BBFF012720468021D0
:1043200000224023A4F86471C4F86061FFF7B0FF75
:10433000A784266200E00325284601B0F0BD0000F6
:1043400090F89C12042904BF90F89D1280F89C12EA
:1043500000207047D0F8B812002904BF032070472E
:1043600090F89C22032A05D1C96919B180B5884704
:10437000002080BD00207047024600201174704765
:1043800080B5D0F8C402FDF7C3FB40F20032C10093
:10439000C0F2013222FA01F1032888BF0321C8B21A
:1043A00080BD0000B0B500F2AA240546204600F00A
:1043B00057F80121C5F8941295F8AA12B5F8B03251
:1043C00001F01F02022AC5F898320ED0012A06D049
:1043D0008AB928462146BDE8B04000F055B82846C5
:1043E0002146BDE8B04000F093BA28462146BDE81A
:1043F000B04000F0F3B901F080012846BDE8B040BC
:10440000AFF3008080B5D0F8C402FCF789FE40F21B
:104410000032C100C0F2013222FA01F1032888BF44
:104420000321C8B280BD0000014690F89C0204221E
:1044300081F89D02002081F89C22704780B5D0F859
:10444000C402FCF7A1FE40F20032C100C0F201320A
:1044500022FA01F1032888BF0321C8B280BD000001
:104460000A7802704A7842704A8842808A8882803C
:10447000C988C18070470000D0F8B822002A04BF64
:10448000032070471268104770B582B00A7812F0A6
:1044900060020BD0402A02D0202A40F0BF80D0F822
:1044A000B822926802B0BDE8704010474A78092AE5
:1044B00000F2B480DFE802F0052CB24FB25A79B2B4
:1044C0001A3C90F89C22013A022A00F2A780C9887F
:1044D000022940F0A380D0F8A4120322002908BFCB
:1044E0000122014641F80C2F022233E1C98801293B
:1044F00040F0948090F89C124A1E022A80F0898035
:104500000024014641F8084F0122FFF7F9FD8EE033
:1045100090F89C22013A022A00F280804988002407
:10452000012940F08480C0F8A442FFF7F7FD7EE047
:10453000498840F2E505C2F2000511F0FE0F29702E
:104540004CD080210446FFF75DFF20460021FFF795
:1045500059FF03246BE04988012940F002810121C1
:10456000C0F8A412FFF7DAFD002460E08A88002A70
:1045700054D1CA88002A51D14D887F2D4ED890F849
:104580009C1203294AD0E9B280F89E520446FFF7F4
:10459000F7FE20462646FFF7C1FD002D14BF02207E
:1045A000012086F89C02002441E04A884FF0FF3346
:1045B00003EB122300260E2BADF8066047D8DFE888
:1045C00003F00854394646636E464646464646461C
:1045D00048000E46D0F8B4120A683FE090F89C22DA
:1045E000032A6CD0022A40F08F800A06BAD001F06C
:1045F0000102C9B242600546FFF73EFF04460028AB
:1046000000F0C78028468021FFF7FCFE28460021E5
:104610000BE0032902D1011D01229BE08021044609
:10462000FFF7F0FE204600210024FFF7EBFE2046B6
:1046300002B070BDD2B2052A09D8DFE802F003C08B
:10464000B6BBB1C50E46D0F8B4124A6805E00E46B6
:1046500029E00E46D0F8B412CA6922B30446007CA1
:104660000DF106019047054666E00E46017C0446C2
:10467000D0F8B80200290CBF816AC16A0DF10600AA
:1046800088470546022056E00E46017C59B904468B
:10469000D0F8B802416B0DF106008847E3E70E46FB
:1046A000017C00293ED080210546FFF7ABFE28465D
:1046B00000212C460025FFF7A5FE00203DE00A065C
:1046C0005BD0426801F001018A423FF44BAFD1B2A6
:1046D0000446FFF7EFFC2978204661602546FFF786
:1046E000CBFE0446002874D028468021FFF78AFEBE
:1046F00028460021FFF786FE29792846FFF7DAFCD5
:10470000022085F89C0292E780210446FFF77AFE9A
:1047100020460021FFF776FE29782046FFF7CAFCE5
:10472000032484E70446D0F8B802016B0DF10600BB
:104730008847054607206870012090B1F2886AB169
:10474000BDF8061079B1914238BF0A46ADF806208F
:1047500020462946FFF7D4FC002468E72046FFF7EF
:10476000DDFC002463E720468021FFF74BFE204656
:104770000021FFF747FE002459E7022280F89C221F
:1047800001F00102C9B242600446FFF793FC2046E3
:10479000E8E62846FFF7C2FC032085F89C0246E7BE
:1047A0000E46D0F8B4124A6957E70E46D0F8B41254
:1047B000CA6852E70E46D0F8B4120A694DE70E46B1
:1047C000D0F8B4128A6848E70E46D0F8B4128A6965
:1047D00043E72846FFF7A2FC29E70000B0B50A78B6
:1047E00012F0600209D0402A01D0202A37D1D0F837
:1047F000B8229268BDE8B04010474A780C46097963
:1048000022B3012A14D0032A29D190F89C22032A2A
:1048100012D1628842B911F07F0205D0E2881AB93C
:104820000446FFF7EFFD2046FFF778FC0020B0BDFF
:1048300090F89C22032A1CD0022A10D14A060ED0DE
:104840000446FFF7DFFD204680210EE090F89C2211
:10485000032A22D0022A08BF5FEA416245D08021A4
:104860000446FFF7CFFD20460021FFF7CBFD0020D7
:10487000B0BD6288002A49D14A0603D00546FFF739
:1048800059FC28460546FFF749FCD5F8B8022146F1
:1048900082682846BDE8B040104701F00F0202EBE5
:1048A0008202802900EB82022CBF928CB2F8642134
:1048B000002AD4D001F07F0202EB820200EB8202D8
:1048C00002F1140401EB810200EB8202802938BF5F
:1048D00002F5AA744A0613D00546FFF7C3FC014649
:1048E0002846002918BF01210BE009064FF01402E9
:1048F0004FF0000358BF4FF4AA728118835002E0B2
:104900000021216021460222FFF7FAFB0020B0BD02
:10491000B0B50A7812F0600218BF402A16D190F89C
:104920009C22013A022A13D88A8812F0FE0F0FD176
:10493000D0F8B822054692680C469047E1880446B4
:10494000002908BF002C0ED02046B0BD202AE6D09A
:1049500080210446FFF756FD204600210024FFF782
:1049600051FD2046B0BD2846FFF7D8FB2046B0BD1C
:104970002DE9F04191F800E00246CD7830F82E00A4
:1049800047F270674FEA4E03032D20EA07040DD863
:104990000020DFE805F002050C0844F4007406E08E
:1049A00044F4806403E044F4C06400E0012048F271
:1049B0008007CFF6FF7744EA070622F8136032F843
:1049C000136040F60F74264046EA0E06374322F87D
:1049D00013700F7B48F2800C002F50D032F8134038
:1049E00040F60F66344048F28006022D08BF06F5F7
:1049F0008076344322F81340B2F850400E8902EB1F
:104A0000CE073C4426F00106A4F80064B2F85060DA
:104A10004C89374424F00106A7F804644F7832F833
:104A20001310002F51D0490409D532F8131040F665
:104A30000F773940614401F5804122F8131032F8B4
:104A40001310490608D532F8131040F60F77394095
:104A50006144403122F8131032F8131040F63F77CA
:104A600039400CF120074F40012D08BF41EA0C07E7
:104A700022F8137032F8131043F60F774CE04F789A
:104A8000B2F85080CC884FEACE06002F24F0010700
:104A900049D091194144A1F8007432F81310490625
:104AA00008D532F8131040F60F7739406144403191
:104AB00022F8131032F8131040F63F77012D01EA67
:104AC00007012AD00CF1200778E0490409D532F813
:104AD000131040F60F773940614401F5804122F808
:104AE000131032F81310490608D532F8131040F6A7
:104AF0000F7739406144403122F8131032F8131017
:104B000043F60F7739400CF54057794022F81310DF
:104B100032F8131040F63F77394041EA0C0122F891
:104B20001310BDE8F081951905EB0804A4F804748E
:104B3000B2F8504005F206452E5B6FF39F262E53C8
:104B4000096949B13E2909D801F001062F5B06EB3E
:104B5000510147EA812111E0615B0AE0CF062F5B3A
:104B60004FEA51164FF0FF3808BF08EB511647EADD
:104B7000862148F20006CFF6FF763143295332F8FA
:104B80001310490409D532F8131040F60F74214070
:104B9000614401F5804122F81310BEF1000F07D0E7
:104BA00032F8131043F60F7739400CF5005705E043
:104BB000118843F60F7739400CF54057794022F8B9
:104BC0001310BDE8F08100000A7B0AB10020704795
:104BD00080B50A784B7830F822C04FEA4202A3B180
:104BE0005FEA4C6348F2A00E09D530F812C040F6D7
:104BF0000F7303EA0C037344203320F81230C97892
:104C000001291AD040F63F7110E05FEA4C414BF2A7
:104C1000800E09D530F8121040F60F731940714418
:104C200001F5805120F8121043F60F7130F8123060
:104C3000194081EA0E0120F81210BDE880400020E2
:104C40007047000002460B78487832F823C040F6DF
:104C50003F71002848F2900008BF43F60F71CFF66D
:104C6000FF7008BF00F57F6001EA0C0141400020A1
:104C700022F82310704700002DE9F0434A78012AFA
:104C80006DD18B690C690A7BA34228BF2346002A99
:104C900000F08E80CF780A6A022F40F0CC8091F825
:104CA000009040F60F6530F8297048F2B00C4FEADA
:104CB0004906A24207EA050740F20E816744D03751
:104CC000A2EB030E20F81670C1F820E030F8162091
:104CD000B0F850604FEAC907520600EB07059AB2D8
:104CE000354400F14881A5F80234D1F814807AB136
:104CF0000A890125024415FA83F56E08A8F1020716
:104D000002F2FE3237F8025F013E22F8025FF9D16B
:104D100008EB030600224E61A64584BFAEEB0302FA
:104D20009E460A62B0F8502000EBC9031A445FEABD
:104D30000E43A2F806E400F05A814A89B71E831890
:104D4000012212FA8EF2520803F2FE3637F8023FC1
:104D5000013A26F8023F40F63F73F7D149E10B7B59
:104D6000002B44D0CB78012B00F08B80022B40F03D
:104D7000B080002A40F06A81B0F850700B78074488
:104D800007F2024434F833706FF39F2724F833702E
:104D90000F69002F00F041813E2F00F2448107F09F
:104DA000010634F8335006EB570745EA87274BE1F5
:104DB0001A040FD0CA884F698518012212FA83F2AB
:104DC0005208BE1E05F2FE3736F8025F013A27F898
:104DD000025FF9D1B0F850200F78024402EBC7020D
:104DE00048F2B00CA2F8023440F63F7301E18A6940
:104DF0000D69531B3CBF002315468B61B0F8503042
:104E00000A78034403F2064434F8327048F2B003DF
:104E10006FF39F27002D24F8327000F092803E2D12
:104E200000F2928005F0010734F8326007EB550775
:104E300046EA872796E0D21A0F780A6230F82750A0
:104E4000B0F85020FE006F06064448F2B00C9FB246
:104E5000324460D4002FA2F8023400F0C8800A89DE
:104E60004F698618012212FA83F25208BB1E06F21D
:104E7000FE3700BF33F8026F013A27F8026FF9D10D
:104E8000B5E00B698F69FE1A3CBF00263B46012A3C
:104E90008E6100F0B980002A40F04481B0F8507073
:104EA0000D78074407F2024434F83570002B6FF395
:104EB0009F2724F8357000F0B3803E2B00F222814A
:104EC00003F0010734F8356007EB530746EA8727FC
:104ED00026E10120BDE8F0830CEB0703303B20F80E
:104EE0001630B0F8503000EBC9073B441704A3F864
:104EF00002247CD00B894F69C618012313FA82F271
:104F00005208BB1E06F2FE3733F8026F013A27F84B
:104F1000026FF9D16BE0002FA2F8063467D04A89FE
:104F20004F698618012212FA83F25208BB1E06F25C
:104F3000FE3700BF33F8026F013A27F8026FF9D14C
:104F400055E034F832700BE0EE064FEA551734F8AE
:104F500032604FF0FF3C08BF0CEB551746EA87273D
:104F600047F4004724F8327042F6D07203EB020C8B
:104F700043F60F733DE0A5F80634D1F814807AB1FA
:104F80004A890125024415FA83F56E08A8F1020743
:104F900002F2FE3237F8025F013E22F8025FF9D1D9
:104FA00008EB030600224E61A64584BFAEEB030268
:104FB0009E460A62B0F8502000EBC9031A445FEA2B
:104FC0000E43A2F802E412D00A89B71E8318012208
:104FD00012FA8EF2520803F2FE3600BF37F8023F93
:104FE000013A26F8023F40F63F73F7D101E040F660
:104FF0003F73097830F821201A4082EA0C0220F829
:1050000021200020BDE8F083B0F850700E780744EE
:1050100007EBC607A7F8023484E034F833700EE0DB
:1050200034F835707AE0FD0634F833504FEA5716FD
:105030004FF0FF3C08BF0CEB571645EA862748F2B5
:105040000006CFF6FF76374324F83370012A19D0D3
:10505000AABBB0F850300A78034403F2064333F891
:1050600032706FF39F2723F832700F69A7B13E2F7C
:1050700015D807F0010633F8325006EB570745EA1A
:1050800087271AE0B0F850200B7802440F6902EB32
:10509000C302A2F8067412E033F832700BE0FC068B
:1050A00033F832404FEA57164FF0FF3508BF05EB93
:1050B000571644EA862747F4004723F83270CA6936
:1050C000002A42F6D07218D00F7844F2400530F82A
:1050D000273003EA0506AE4248F2B00318BF002E9F
:1050E0007FF444AF7A0030F8127040F60F76374004
:1050F0001F44103720F8127036E7A2F5E042A2F5FF
:10510000756C35E7DE064FEA531734F835604FF01B
:10511000FF3C08BF0CEB531746EA872747F40047CC
:1051200024F8357048F2B004012A42F6D07718D03E
:1051300012BBB0F850700A78074407F2064535F8FC
:1051400032706FF39F2725F83270D3B13E2B1BD8F6
:1051500003F0010735F8326007EB530346EA832377
:1051600020E0B0F850200E78024402EBC60204EBB7
:10517000070CA2F80634FBE6A7F5E042A2F5756C31
:10518000F6E635F832300BE0DE0635F832604FEAED
:1051900053174FF0FF3C08BF0CEB531746EA872329
:1051A00043F4004325F8323042F6D07204EB020C8F
:1051B000DEE600004CF2B030C2F20000FCF700B8AE
:1051C000B0F84400704700001044022B00F58062E4
:1051D0000AD358080239023A32F802CF013821F8CE
:1051E00002CFF9D102310232D8071CBF10880870F3
:1051F00070470000002904BF8021A0F84C10002057
:1052000070470000002B08BF70470244581C40083C
:10521000023902F2FE3200BF31F8023F013822F8B3
:10522000023FF9D17047000082B0B0B582B0CDE93D
:1052300006230446D0F8C0008C4606A9019100BFA1
:10524000D0F888102029FBD1C16F19B191F8251031
:105250000129F5D1019B04F18005284640216246D1
:1052600001F02AF8D4F8C01082B208462946FEF7A9
:105270007BF802B0BDE8B04002B07047FEE7000026
:105280002DE9F04F81B0B0F800A09846914607464E
:10529000012A8B4610D1BAF1000F0DD0ABF10401F9
:1052A000504600BF91ED020A0138B1EE400A81ED8F
:1052B000020A01F10801F5D1BAF1FF0F0CDDBAF5D0
:1052C000806F21DBBAF5805F24D0BAF5006F2BD058
:1052D000BAF5806F10D023E0BAF13F0F06DCBAF1C7
:1052E000100F09D0BAF1200F1ED019E0BAF1400F0B
:1052F00010D0BAF1800F13D13846594600F062F849
:10530000B8F1000F17D139E0BAF5807F0CD0BAF5AB
:10531000007F05D17A6858465146012300F046FCCB
:10532000B8F1000F07D129E03846594600F018F9C6
:10533000B8F1000F22D0B7F80CC0BCF1000F1DD09F
:10534000B968002201EB420331F812705B8827F044
:10535000030723F003035BF807005BF803400BEB44
:1053600007060BEB03054BF807404BF80300686892
:1053700073680232624570606B60E3D3B9F1010F6C
:105380001CD1BAF1000F19D000EE10AAB8EE400AF5
:10539000B7EE001A81EE000AABF1080090ED021A98
:1053A00090ED032A20EE011A22EE402A80ED021A27
:1053B00080ED032A0830BAF1010AEFD101B0BDE84F
:1053C000F08F00002DE9F0472DED028B8046038819
:1053D000D8F80420084601EB830A082B4FEA53094A
:1053E000C0F0AE806FF00E010AEB890C00EB890E65
:1053F00001EA4304002700BF0AEB0705C31993ED38
:10540000000A95ED004A93ED011A95ED015A0CEB57
:1054100007060EEB070193ED022A95ED026A70EE86
:10542000045A91ED007AD6ED002AC3ED005A71EED0
:10543000055AD1ED010AD6ED013AC3ED015A72EEDB
:10544000065A93ED033AD1ED021AD6ED024AC3EDA6
:10545000025AD5ED035A30EE440A33EE258A37EE70
:10546000224AD1ED036AD6ED037A83ED038A81EDFA
:10547000004A30EEA34A81ED014A31EEA44A81EDA3
:10548000024A36EEA74A81ED034AD11931EE451A98
:1054900032EE462A33EEE05A34EEE16AD1ED000AEC
:1054A000D1ED011A32EEC74A60EE202A61EE213AB0
:1054B00021EE201A20EE210A31EE400A85ED010A84
:1054C00024EE210A25EE211A25EE205A72EEA32A97
:1054D00024EE204A30EE450AC5ED002A86ED000A8A
:1054E00034EE010A86ED010A91ED020A91ED031AEC
:1054F00033EE653A22EE004A23EE015A23EE003ADB
:1055000022EE012A37EEE67A33EE422A85ED032AAF
:1055100026EE012A27EE011A27EE003A26EE000AAF
:10552000103734EE054A32EE432A30EE010ABC420F
:1055300085ED024A86ED022A86ED030A7FF45CAF10
:105540004946022300F032FBD8F804205046494671
:105550000223BDEC028BBDE8F04700F027BB000042
:105560002DE9F04F81B02DED108B8CB0038891EDBB
:10557000000A5E0801EB860B0BEB860A91ED011A1F
:105580009AED002A9AED013A0AEB860830EE024ABB
:1055900030EE420A31EE032A31EE431A9BED013A16
:1055A0009BED005A0190D0F804E0980898ED017A3C
:1055B000D8ED000A6FF00102009030EE036A71EE40
:1055C000451A74EE452A72EE433A30EE430A31EE44
:1055D000051A34EE054A32EE032A02EB930036EE4A
:1055E000476A71EEA01A72EEE02A73EEC73A30EE07
:1055F000070A31EE601A34EE204A32EE072A4408D8
:1056000081ED004A81ED012A8BED006ACBED011A94
:10561000CAED002ACAED013A88ED000A88ED011AA8
:10562000CDF82880CDF810B000F055816FF0030060
:1056300006EB46026FF0070300EB061503EB82074B
:1056400000EBC60C03EB860B002076464FF0000EF5
:1056500000230990CDE9021A0B97CDE907540B9A64
:1056600001EB05098F18049ACDF818C0C8180AEB89
:1056700003080A9D1A4490ED024A90ED035AD8EDB2
:10568000020AD8ED031A1D4492ED020A92ED032A94
:1056900034EE206A35EE217A95ED021A95ED033A43
:1056A00076EE002A77EE023A72EE812A73EE833AA2
:1056B000C0ED022AC0ED033A01EB0B008C44D0EDA3
:1056C000015AD7ED016ADCED003A75EEA62AD9ED54
:1056D000004A34EE604A72EEA30A70EEA47A35EE08
:1056E000615A90ED008A97ED009A5CED010A59ED40
:1056F000011AC0ED017A1CED01AA78EE097A19EDC4
:1057000001BA37EE8AAA3AEE0BAA80ED00AAF01889
:1057100034EE02AA35EE40BA90ED02CA90ED03DAFB
:105720003AEE43AA3BEE01BA2AEE0CEA2BEE0DFA52
:105730002BEE0CBA2AEE0DAA75EEE65A3BEE4AAAFB
:1057400038EE498A75EEE06A33EEE49A82ED03AAF8
:1057500076EEA16A38EE09AA26EE8DBA2AEE0DDAA7
:105760002AEE0CAA66EE8C6A3EEE0FEA3BEE4AAADF
:1057700076EE8D6A82ED02EA4CED016A8CED00AAAC
:1057800006EB0E0036EE406A37EE427AD0ED046A40
:1057900090ED05AA36EE416A37EE437A26EE26BA38
:1057A00027EE0ACA27EE267A26EE0A6A37EE466AFE
:1057B00088ED036A32EEE36A37EEE07A059536EE5D
:1057C000646A37EE617A66EE662A67EE263A27EE5D
:1057D0000A7A26EE0A6A099A3BEE0CBA32EEC77ACA
:1057E00036EE636A88ED02BA87ED006A87ED017ACA
:1057F000B01890ED066A90ED077A34EE422A35EE45
:10580000000A32EE032A30EE410A22EE061A20EE9A
:10581000073A059831EE031A20EE060A22EE072A0F
:10582000B2460C4630EE420A80ED021A31EEE01A22
:105830001832DDE907540B9F80ED030ADDF80CA058
:10584000DDF8288039EE480A31EE651ADDF818C017
:10585000099221EE072A20EE073A20EE060A21EEF1
:10586000061A029932EE400A31EE031A013C03F1A6
:105870000803A5F10805A7F108070EF1100EACF119
:10588000080CABF1080B09ED011A89ED000A7FF451
:10589000E3AE06EB030C0CF10800089004983246C6
:1058A00000EB030B06EB0E00079010300B90099DE8
:1058B00001EB03090AEB03001544434409F108070F
:1058C0000BF1080400F1080605F1180E03F10808B1
:1058D000CDF824E018E00EF1180009900EF1100048
:1058E0000B900EF10800434608F108080AF108067B
:1058F0000BF10804089001F10807504672467546FE
:10590000CDF81CE0F446894697ED000A96ED001AA2
:1059100094ED007A30EE012AD8ED000A99ED033AB1
:1059200090ED034A72EE472A32EE072A32EE202A21
:1059300030EE410A33EE041A33EE443A9BED034A4B
:1059400093ED035A87ED002A9BED032A30EE046A9B
:1059500071EE443A30EE440A93ED034A31EE021AF6
:1059600031EE041A089F89ED031A73EE471A97ED7A
:10597000001A9CED032A36EE456A71EEA01A73EE0A
:10598000C53A30EE050A26EE014A21EE825A21EE92
:10599000811A26EE022A34EE054A31EE421A0B9F96
:1059A00084ED004A8BED031A97ED001A079F72EE03
:1059B000E02A97ED052A22EE814A23EE825A23EE51
:1059C000811A22EE822A34EE054A31EE421A86ED21
:1059D000004A80ED031A099833EE073A90ED001A59
:1059E00095ED072A33EE603A20EE014A23EE025A83
:1059F00023EE011A20EE020A009D34EE052A31EE54
:105A0000400A88ED002A83ED030A0846294604234C
:105A100000F0CCF8019C049862682946042300F049
:105A2000C5F8626850462946042300F0BFF8626852
:105A30000A98294604230CB0BDEC108B01B0BDE8D8
:105A4000F04F00F0B3B80000002A08BF7047A0F183
:105A50000803081F93ED020A93ED031A20EE000AD3
:105A600021EE011A30EE010A0833B1EEC00A80EDD2
:105A7000010A0430013AEDD1704700002DE9F047EA
:105A8000B0F800E0D0F804C0AEF10108654673B389
:105A900080689FED210A0CEB880AA0F10409ACF1A3
:105AA0000406654607E000BFA2EC011A0435013B7D
:105AB00006F104061BD051F8040BBEF1000F4AF8A2
:105AC000040BB0EE401AEFD0374648467446B0EEAD
:105AD000401A00BF90ED012A97ED013A043023EE01
