:020000040800F2
:1000000048150120ED010008892D0008192A000873
:10001000852D0008A50700083D36000800000000F7
:10002000000000000000000000000000912D00080A
:10003000CD070008000000008D2D0008952D000858
:10004000070200080702000807020008070200086C
:10005000070200080702000807020008070200085C
:10006000070200080702000807020008A9070008A5
:10007000B5070008C10700080702000807020008CA
:10008000070200080702000807020008070200082C
:10009000070200080702000807020008070200081C
:1000A000070200080702000807020008070200080C
:1000B00007020008070200080702000807020008FC
:1000C00007020008070200080702000807020008EC
:1000D00007020008DD3500080702000807020008D3
:1000E00007020008070200080702000807020008CC
:1000F00007020008070200080702000807020008BC
:1001000007020008070200080702000807020008AB
:100110000702000807020008AD2D0008B92D0008ED
:10012000070200080702000807020008070200088B
:10013000070200080702000807020008070200087B
:10014000070200080702000807020008070200086B
:10015000070200080702000807020008070200085B
:10016000070200080702000807020008070200084B
:10017000070200080702000807020008070200083B
:10018000070200080702000807020008070200082B
:10019000070200080000000007020008070200082C
:1001A000070200080702000807020008070200080B
:1001B00007020008070200080702000807020008FB
:1001C00007020008070200080702000807020008EB
:1001D0000702000807020008DFF80CD000F0CAFA96
:1001E00000480047D14400084815012006488047D0
:1001F00006480047FEE7FEE7FEE7FEE7FEE7FEE70C
:10020000FEE7FEE7FEE7FEE7992D0008D9010008AA
:100210002DE9F05F0546002092469B46884606463B
:10022000814640241BE0284641464746224600F0CE
:10023000F2F953465A46C01A914110D31146184656
:10024000224600F0D9F92D1A67EB01084F462246E5
:100250000120002100F0D0F917EB00094E41201ECB
:10026000A4F10104DFDC484631462A464346BDE896
:10027000F09FD2B201E000F8012B491EFBD270477B
:100280000022F6E710B513460A4604461946FFF762
:10029000F0FF204610BD2DE9FE4F804681EA0300A5
:1002A000C00F0C46009021F0004123F00045B8EB50
:1002B0000200A94105D24046214690461C460B4605
:1002C000024623F00040104347D0270DC7F30A0031
:1002D000C3F30A510290401A019040286BDAC3F32D
:1002E000130040F4801B0098924620B10023D2EB0B
:1002F000030A63EB0B0B01985946C0F140025046CC
:1003000000F07AF906460D4650465946019A00F02B
:1003100092F910EB08006141002487EA115284EA47
:10032000E7731A4340D0009A62B3019A012A4FEA58
:10033000075215DC001B61EB02014FF0004202EA9C
:100340000752CDE90042001C41F5801132462B4690
:1003500000F092F903B0BDE8F08F40462146F9E77E
:10036000001B61EB0201001C41F5801300185B418A
:100370002018A2F5001747EB030140EAD570B61923
:100380006D4111E06D084FEA360645EAC0754FEA47
:100390000752001B61EB0201001C41F58011490866
:1003A0004FEA30000019514132462B4603B0BDE8F8
:1003B000F04F00F052B90098012240000023D0EB2A
:1003C000020263EBE073009821464FEAE074B8EB59
:1003D000000061EB0401E9E783F000435BE781F093
:1003E000004158E72DE9FE4F81EA030404F0004480
:1003F00021F0004100944FF0000B23F0004350EA3D
:1004000001045ED052EA03045BD0C3F30A54C1F383
:100410000A552C44A4F2F3340194A0FB0254C1F316
:10042000130141F48011C3F3130343F4801301FB60
:10043000024400FB034E840A970A44EA815447EAC7
:100440008357A4FB076802958D0A05FB07854FEAD1
:10045000932C04FB0C542705029D4FEA065847EAEB
:100460001637B5EB08056EEB070C870E920E47EAC0
:10047000811742EA8312A7FB0201B6EB0B0164EB82
:1004800000042B0D43EA0C335E1844EB1C50DA4693
:100490005146E7FB0201C5F313044FEA0B3343EA6D
:1004A00014534FEA0432019C43EA0603A4F10C04FE
:1004B0000294009CCDE900B400F0DEF803B0BDE882
:1004C000F08F00200146F9E72DE9F04D81EA0304A1
:1004D00004F0004B21F0004514464FF0000A23F0D1
:1004E000004150EA050220D054EA01021DD0C5F3B4
:1004F0000A570246C5F31303C1F31300C1F30A56AA
:1005000040F4801543F48013A7EB0608101BD64671
:1005100008F2FD3873EB050002D308F1010801E091
:1005200092185B41B8F1000F03DA00200146BDE8E4
:10053000F08D00204FF48011064684460EE0171B14
:1005400073EB050705D3121B63EB050306434CEA67
:10055000010C49084FEA300092185B4150EA01074C
:10056000EDD152EA030012D082EA040083EA0501C9
:10057000084305D0101BAB4106D20122002306E040
:1005800000224FF0004302E06FF0010253101AEB1B
:1005900006004CEB085110EB0A0041EB0B01BDE8E3
:1005A000F04D00F05AB800F0004230F000400AD0A0
:1005B000C10D01F56071C0F3160042EA0151C20895
:1005C00040071143704700200146704730B50B4685
:1005D000014600202022012409E021FA02F59D4273
:1005E00005D303FA02F5491B04FA02F52844151E47
:1005F000A2F10102F1DC30BD202A04DB203A00FA2E
:1006000002F1002070479140C2F1200320FA03F369
:10061000194390407047202A04DB203A21FA02F067
:100620000021704721FA02F3D040C2F1200291402C
:10063000084319467047202A06DBCB17203A41FAB7
:1006400002F043EAE07306E041FA02F3D040C2F15F
:100650002002914008431946704710B5141E73F1EB
:10066000000408DA401C41F1000192185B411A4372
:1006700001D120F0010010BD2DE9F04D92469B46BE
:1006800011B1B1FA81F202E0B0FA80F22032904664
:10069000FFF7B2FF04460F4640EA0A0041EA0B01A9
:1006A00053465A46084313D0114653EA010019D065
:1006B000C8F140025046FFF7AEFF05460E465046D1
:1006C00059464246FFF798FF084305D0012004E051
:1006D00020463946BDE8F08D0020054346EAE07625
:1006E0002C4337430A986305E40AA0EB0800002274
:1006F000FD0A44EA47540A3002D500200146E9E7E2
:10070000010510196941DDE9084500196941BDE895
:10071000F04DA2E7C1F30A52C1F3130140F2FF33D7
:1007200041F480119A4202DA00200146704740F2FB
:1007300033439A42A2F2334202DC5242FFF76BBFCC
:10074000FFF75ABF30B5041E71F1000404DB4FF00F
:100750000044404264EB0101141E73F1000405DB08
:100760001C464FF00043524263EB0403994208BF1A
:10077000904230BD1CB509480090094801900546DB
:10078000009C06E0E06840F0010394E80700984709
:100790001034AC42F6D3FFF723FD0000703101089E
:1007A00090310108FEE700004CF2F020C2F2000098
:1007B00000F0D2B84CF25030C2F2000000F0CCB8D9
:1007C0004CF29020C2F2000000F0C6B87047000062
:1007D000EFF3108072B600BFFEE70000B0B540F244
:1007E000E801C2F20001083904384FF480520023B6
:1007F00050F8045F013A41F8085F4B60F8D140F2CD
:10080000E8044AF65070C2F20004C0F60000214627
:100810000022012302F014FF48F2E805C2F20005AD
:10082000204629464FF4805203F0EEFA95ED000A77
:100830009FED0B1A281F20EE010A85ED000A9FED9F
:10084000090A40F6FF7100BF90ED021A013921EE4E
:10085000001A80ED021A00F10400F5D1B0BD00BF0E
:10086000000080390000003A014690F82500022877
:1008700027D180B50868D1E910CE8A6C036823F0CF
:100880000E030360136823F480731360026822F080
:10089000010202600EF01F00012202FA00F0CCF803
:1008A0000400D1E913205060486D30B1026822F491
:1008B00080720260D1E9160242600020BDE88040EB
:1008C00002E00420C8630120012281F825200022D3
:1008D00081F824207047000090F82510022930D1BB
:1008E00080B50168D0E910CE826C0B6823F00E034E
:1008F0000B600B6823F001030B60116821F4807119
:1009000011600EF01F02012101FA02F2CCF804205E
:10091000D0E913325A60426D32B1136823F4807308
:100920001360D0E91623536080F82510826B0021F4
:1009300080F824100AB190470021BDE880400846A5
:1009400070470421C1630121002280F8251080F83E
:100950002420084670470000B0B5D0E910C30268F3
:10096000DCF8001003F01F030424D2F800E09C40E0
:100970000C4218BF1EF004051BD102249C400C42FF
:1009800018BF1EF0020520D1D94009071CD51EF062
:10099000080108BFB0BD116821F00E0111600121EE
:1009A00001FA03F2CCF80420C16380F82510416BF2
:1009B00018E01168890603D4116821F00401116060
:1009C000CCF80440016B91B9B0BD1168890606D41A
:1009D000116821F00A011160012180F82510CCF87E
:1009E0000440C16A0022002980F82420ECD0BDE830
:1009F000B040084700284FF0010C00F08A802DE934
:100A0000F04F0021C4F2020103684FF6F83201F5FD
:100A1000816ECBF6FD72734538BF02F580624CF6ED
:100A2000CD441A44CCF6CC44A2FB042903F0FC02CA
:100A3000A2F10802A2FB042800F1080B01F5806472
:100A40006FF003069BE8040C3CBF0024C4F20204D0
:100A500001F5026506EA9906734538BF01F50065A0
:100A6000C0E91046022480F825401C6847F6F0775C
:100A700024EA0707D0E9054147EA0A0747EA0B07D6
:100A8000D0E907E93C43214341EA0E0141EA09016B
:100A9000114319600021C4F2020101F50861C1642B
:100AA000C8F3041173190CFA01F58364B2F5804F91
:100AB000056504BF00214160476840F68401FAB231
:100AC0001A607B1EC4F20201032B0D6012D8013A9A
:100AD00001EB8203002702F01F02012643F87C7F0E
:100AE00001F1BC0706FA02F2C0E91537C265C1F888
:100AF000C02003E00021C0E91511C1654FF0000CD2
:100B00000121C0F83CC080F8251080F824C0BDE861
:100B1000F04F60467047000090F824C0BCF1010F10
:100B200043D04FF0010C80F824C090F825C0BCF1F0
:100B3000010F37D12DE9F0414FF0020C80F825C0AC
:100B40004FF0000CC0F83CC0D0F800C000F14C0ED3
:100B50009EE83040DCF80060BEF1000F26F0010690
:100B6000CCF8006065601CBFD0E916456560D0E92F
:100B70001056846806F01F060127D0F8308007FA67
:100B800006F66E60CCF80430102C0B4604BF1346FA
:100B90000A46B8F1000FCCF80830CCF80C2006D08B
:100BA0000E210BE0002180F8241002207047DCF8B1
:100BB000001021F00401CCF800100A21DCF800201C
:100BC0001143CCF80010806C0168C90303D501689B
:100BD00041F480710160BEF1000F05D0DEF8000025
:100BE00040F48070CEF80000DCF8000040F0010016
:100BF000CCF800000020BDE8F0810000B0B504464C
:100C000000F0ECF8054640F2D400C2F200000068A3
:100C1000611C18BF044400BF00F0E0F8401BA04274
:100C2000FAD3B0BD2DE9F04F83B00E68002E00F06E
:100C3000C68000F1200241F2004C009200F13847DA
:100C4000C4F6000C06224FEAB725604508BF05220E
:100C5000052D38BF4FEAB722002500274FF0000AC4
:100C600001920AE00E680AF1010A36FA0AF207F167
:100C7000020705F1040500F0A280012202FA0AFC35
:100C800016EA0C09EED0D1F804B003220BF00308E9
:100C9000A8F10106012E02FA07F610D8D0F808E0F4
:100CA000CC682EEA0602BC40224382604268CBF345
:100CB000001422EA0C0204FA0AF422434260B8F15A
:100CC000030F1ED0C2688C68B243BC402243B8F107
:100CD000020FC26015D16FF00302009C02EA5A0BAA
:100CE00054F80BC005F01C030F22D1F8108002FA53
:100CF00003FE2CEA0E0C08FA03F343EA0C0344F853
:100D00000B3002684B68B24303F00306BE40324327
:100D100013F4403F0260A5D041F26003C4F2020325
:100D20001A6840F2004E42F001021A601A68C4F2DA
:100D3000010E02F001020292029A2AF003024FF61B
:100D4000084C7244CFF6FF7C52F80C3005F00C06CC
:100D50000F24B440A343019C04FA06F6334342F83F
:100D60000C30DEF808204B6842EA090640F20C4CD1
:100D7000DC0258BF22EA0906CEF80860C4F2010C72
:100D8000DCF800209C0242EA090658BF22EA090664
:100D9000CCF80060DEF804209C0342EA090658BF44
:100DA00022EA0906CEF80460DEF80020DB0342EAFE
:100DB000090658BF22EA0906CEF8006052E703B0E0
:100DC000BDE8F08F0069084018BF0120704700009F
:100DD0001823002A08BF2823C150704740F2405012
:100DE000C2F201000068704740F2D40040F2405166
:100DF000C2F20000C2F2010100680A6810440860F3
:100E00007047000080B5032000F0C0F80F2000F00C
:100E100009F800281CBF012080BD00F057F8002011
:100E200080BD0000B0B586B041F25801C4F20201A5
:100E30000A68044642F010020A60096801A801F03D
:100E4000100101910199694600F052FC00F072FC1A
:100E50004DF68361C4F21B31A0FB01014FF0FF305E
:100E600000EB91414CF2144041F20002C2F200004A
:100E7000C4F2000240F2E7330025C0E90021C0E9D6
:100E80000253056101F076F808B106B0B0BD4CF22E
:100E90001440C2F2000001F0C1F80028F5D1054667
:100EA000362000F035F80F2C0CD8362021460022D1
:100EB00000F040F840F2D800C2F20000046028467A
:100EC00006B0B0BD012006B0B0BD000080B582B054
:100ED00041F25800C4F20200816841F001018160D2
:100EE000816801F0010101910199016841F080518F
:100EF0000160006800F080500090009800F0AAFFA8
:100F0000022000F0AFFF02B0BDE8804000F0C8B89A
:100F1000002848BF704700F01F01012202FA01F1CA
:100F20001C2202EAD0004EF20012CEF200028150E2
:100F30007047000010B54EF60C5CCEF2000CDCF8E9
:100F40000030C3F3022E8EF00704042C28BF0424C3
:100F5000BEF103034FF0FF3E0EFA04F438BF002346
:100F6000A14399400EFA03F39A43114300F1604202
:100F700000F00F03090102F56442043B63440028BA
:100F800048BF03F10C02117010BD00004EF60C5169
:100F9000CEF200010A684FF6FF031A4060F30A22FE
:100FA00042F0806040F0FD700860704747F2000C2E
:100FB000C4F2000CDCF80020B0F5007F35D000282A
:100FC00066D1DCF8800002F4C06220F48070B2F5D3
:100FD000806FCCF8800026D1DCF80000012262F39B
:100FE0004A20CCF8000040F20000C2F20000006885
:100FF000322358434DF68363C4F21B33A0FB030333
:1010000002EB9340002200BFDCF81410013842F1DB
:101010000003490501D5002BF6D1DCF8140040058A
:1010200044BF0320704700207047DCF8800002F4C2
:10103000C06140F48070B1F5806FCCF88000F2D1CF
:10104000DCF80000012161F34A20CCF8000040F2F6
:101050000000C2F200000068322250434DF6836265
:10106000C4F21B32A0FB020201EB9240002200BF3F
:10107000DCF81410013842F10003490501D5002BBA
:10108000F6D1DCF81400400544BF03207047CAE7DE
:10109000022060F34A22CCF80020002070470000B4
:1010A00047F20800C4F20000016841F48041016089
:1010B000704700002DE9F04381B08146807841F20D
:1010C00088060007C4F2020601D400204AE056F860
:1010D000300C5FEAC0080BD456F8300C40F080505A
:1010E00046F8300C56F8300C00F080500090009814
:1010F00047F20004C4F20004206840F480702060CD
:10110000FFF76CFE054600BF2068C70508D4FFF74F
:1011100065FE401B0328F7D30320002F03D418E0FB
:101120000020002F15D5B16811F4407100F029811D
:10113000D9F85020914240F02981C90740F035810B
:1011400038B9B068D9F8501020F440700843B06046
:101150000020B8F1000F05D456F8301C21F0805162
:1011600046F8301CD9F80010CA0716D18A071DD4DA
:101170004A0724D40A072BD4CA0632D48A0639D4A3
:101180004A0640D40A0647D4CA054ED48A0355D429
:101190008A055CD44A0563D472E03268D9F8043019
:1011A00022F003021A4332608A07E1D53268D9F887
:1011B000083022F00C021A4332604A07DAD532684E
:1011C000D9F80C3022F030021A4332600A07D3D526
:1011D0003268D9F8103022F0C0021A433260CA06D1
:1011E000CCD53268D9F8143022F440721A433260F8
:1011F0008A06C5D53268D9F8183022F440621A43FD
:1012000032604A06BED53268D9F81C3022F440520A
:101210001A4332600A06B7D53268D9F8203022F472
:1012200040421A433260CA05B0D53268D9F824303A
:1012300022F440321A4332608A03A9D57269D9F880
:10124000283022F003021A4372618A05A2D532685F
:10125000D9F82C3022F440221A4332604A050FD5C7
:101260003268D9F8303022F440121A43B3F5801FA7
:10127000326005D156F87C2C42F4801246F87C2C62
:101280000A050FD53268D9F8343022F440021A43E7
:10129000B3F5800F326005D156F87C2C42F48012F1
:1012A00046F87C2CCA040FD53268D9F8383022F0C1
:1012B00040721A43B3F1807F326005D156F87C2C1E
:1012C00042F4801246F87C2C8A040FD53268D9F893
:1012D0003C3022F040621A43B3F1006F326005D116
:1012E00056F87C2C42F4801246F87C2C4A040FD528
:1012F0003268D9F8403022F040621A43B3F1006FEF
:10130000326005D156F87C2C42F4801246F87C2CD1
:101310000A040FD53268D9F8443022F040521A43FB
:10132000B3F1805F326005D156F87C2C42F48032F4
:1013300046F87C2CCA030FD53268D9F8483022F021
:1013400040421A43B3F1804F326005D156F87C2CED
:1013500042F4803246F87C2C49030FD57169D9F8E4
:101360004C2021F440111143B2F5001F716105D1E9
:1013700056F87C1C41F4801146F87C1C01B0BDE895
:10138000F0830021C9073FF4DBAE0EE0B168B2681C
:1013900021F4407142F48032B260B26822F48032AB
:1013A000B260B160C9073FF4CBAE0446FFF716FD4B
:1013B000054641F2893700BFB068800709D4FFF7BE
:1013C0000DFD401BB842F7D3032000287FF4C1AEC7
:1013D000B7E6204600287FF4BCAEB2E62DE9F04720
:1013E000002800F0FE8042F2000AC4F2020A04461D
:1013F000DAF800000D4600F00F0088420DD2DAF84E
:10140000000020F00F002843CAF80000DAF80000BE
:1014100000F00F00A84240F0E480216841F2080883
:10142000C807C4F202080CD14FF0000920688107F8
:101430004BD4B9F1000F61D0D8F8000020F0F000D3
:101440005AE0606858F8082C022800F0C880032889
:1014500040F0CA80920140F1C480D8F80420D8F846
:10146000043042F20046C3F3031302F00302D8F83B
:1014700004700133C0F2F406032A04BF43F200668D
:10148000C0F26E16B6FBF3F2D8F80430C7F30627A5
:101490007A43C3F34163022707EB4303B2FBF3F242
:1014A0004BF20043C0F2C4439A4240F2E480D8F8C1
:1014B000002012F0F00F00F0D480890740F1DB80AB
:1014C000A168002940F0D780CBE0410705D5D8F8C6
:1014D000001041F4E061C8F80010000706D5D8F804
:1014E0000000072161F30D20C8F80000D8F80000C3
:1014F000A16820F0F0000843C8F80000DAF8000006
:1015000000F00F00A84219D9DAF8000020F00F000F
:101510002843CAF80000FFF761FC064641F288370D
:10152000DAF8000000F00F00A84207D0FFF756FCE1
:10153000801BB842F4D90320BDE8F087206841073A
:1015400007D5D8F80010E26821F4E0611143C8F82B
:101550000010000708D5D8F80000216920F4605079
:1015600040EAC100C8F80000D8F8000042F200418B
:10157000C0F2F40100F00C000428084600F09C8042
:10158000D8F8000000F00C00082843F20060C0F218
:101590006E1000F09180D8F8002002F00C020C2AA6
:1015A00040F08980D8F80420D8F8043002F0030213
:1015B000C3F30313D8F804700133032A08BF0146AC
:1015C000B1FBF3F0D8F80410C7F30627C1F341616B
:1015D0000222784302EB4101B0FBF1F06CE0910391
:1015E00004D40120BDE8F0875105FAD5D8F80010E1
:1015F00001F00C0104293ED0D8F8001001F00C01D4
:10160000082938D0D8F8001001F00C010C2932D18B
:10161000D8F80410D8F8042042F20047C2F30312AD
:1016200001F00301D8F804300132C0F2F4070329B5
:1016300004BF43F20067C0F26E17B7FBF2F1D8F8AF
:101640000420C3F306235943C2F34162022303EB90
:101650004202B1FBF2F14BF20042C0F2C4429142AD
:1016600009D9D8F80010082262F307114FF00109D8
:10167000C8F8001001E04FF00009D8F8001021F080
:1016800003010843C8F80000FFF7A8FB064641F233
:10169000883700BFD8F80000616800F00C00B0EB9C
:1016A000810F3FF4C3AEFFF799FB801BB842F1D91D
:1016B0000320BDE8F0870020D8F8001044F6A0729F
:1016C000C1F30311C0F60002515C40F2000201F0C8
:1016D0001F0120FA01F140F2D800C2F200000068B8
:1016E000C2F200021160BDE8F047FFF79BBB0000AB
:1016F0000F22026041F20802C4F20202136803F0F2
:1017000003034360136803F0F0038360136803F47A
:10171000E063C36012684FF4E06303EAD20202613F
:1017200042F20000C4F20200006800F00F000860FE
:101730007047000040F2000041F20801C2F20000D0
:10174000C4F202010068096844F6B072C1F30221D4
:10175000C0F60002515C01F01F01C8407047000054
:1017600040F2000041F20801C2F20000C4F202019E
:101770000068096844F6B072C1F3C221C0F60002E5
:10178000515C01F01F01C8407047000041F20C019C
:10179000C4F2020151F8040C42F20042C0F2F40219
:1017A00000F00C000428104608BF704751F8040CE4
:1017B00000F00C00082843F20060C0F26E1025D043
:1017C00051F8043C03F00C030C2B1CBF00207047A5
:1017D00080B5D1F800C00B680CF0030CC3F3031EF6
:1017E0000B680EF1010EBCF1030F08BF0246096839
:1017F000B2FBFEF0C3F30623C1F34161022258435A
:1018000002EB4101B0FBF1F0BDE880407047000001
:10181000002804BF012070472DE9F04182B0044642
:10182000007841F20006C007C4F202061DD12078FC
:10183000800737D4207800075AD42078400778D41E
:101840002078800600F1BF80E569002D00F01E823F
:10185000B06800F00C000C2840F01E81012D40F013
:101860009881012002B0BDE8F081B06800F00C0161
:10187000F068082954D0032281F00C0122EA00000C
:101880000844B0FA80F040094AD165683068B5F57F
:10189000A02F00F0C680B5F5803F40F0C98040F42D
:1018A0008030CBE0B068F16800F00C00042864D010
:1018B00001F0030180F00C0081F002010844B0FA4D
:1018C00080F0400959D1E1683068002900F0D180EA
:1018D00040F480703060FFF781FA054630684005BB
:1018E00000F1FC80FFF77AFA401B0228F6D936E1B6
:1018F0006169D6F89400002900F0818040F0010071
:10190000C6F89400FFF76AFA054600BFD6F89400BF
:10191000800792D4FFF762FA401B0228F6D91EE135
:10192000306880037FF583AF606800287FF47FAF65
:1019300039E0B06D5FEAC00808D4B06D40F0805067
:10194000B065B06D00F080500190019847F200073B
:10195000C4F200073868C00529D4386840F48070A4
:101960003860FFF73BFA05463868C0051FD4FFF71B
:1019700035FA401B0228F7D9F1E03068400501D55F
:10198000E06880B17068216920F0FE4040EA0160A3
:10199000706040F2D800C2F200000068FFF742FA1F
:1019A00000283FF447AF012002B0BDE8F081A568F0
:1019B000D6F89000052D00F0AE80012D40F0B480E7
:1019C00040F00100B8E0A169D6F89800002900F0C5
:1019D0008D8040F00100C6F89800FFF7FFF905463A
:1019E000D6F8980080073FF52FAFFFF7F7F9401BB7
:1019F00002284FF00300F3D902B0BDE8F08120F0D7
:101A00000100C6F89400FFF7E9F90546D6F89400FE
:101A100080077FF512AFFFF7E1F9401B0228F5D9E7
:101A20009DE040F480203060306840F4803005E074
:101A300020F480303060306820F480203060FFF780
:101A4000CDF9002D054610D0306880033FF5EFAE8C
:101A5000FFF7C4F9401B6428F6D980E0FFF7BEF910
:101A6000401B64284FF00300C6D830688003F5D4CB
:101A7000DDE620F480703060FFF7B0F9054600BF66
:101A8000306840057FF5D6AEFFF7A8F9401B022865
:101A90004FF00300F4D9AFE7306820F08070306079
:101AA000FFF79CF9022D05460CD100BF306880017C
:101AB00040F1A880FFF792F9401B02284FF0030085
:101AC000F4D999E73068800140F1D980FFF786F9B1
:101AD000401B02284FF00300F4D98DE7706821699C
:101AE00020F0FE4040EA01607060A3E620F00100B3
:101AF000C6F89800FFF772F9054600BFD6F89800BF
:101B000080077FF5A1AEFFF769F9401B02284FF06F
:101B10000300F3D970E740F00400C6F89000D6F84F
:101B2000900040F0010007E020F00100C6F89000AE
:101B3000D6F8900020F00400C6F89000FFF74EF9A8
:101B4000002D054641F2883716D000BFD6F8900028
:101B5000800715D4FFF742F9401BB842F6D903209D
:101B600002B0BDE8F08100BFFFF738F9401BB84272
:101B70004FF003003FF640AFD6F890008007F3D453
:101B8000B8F1000F3FF55CAEB06D20F08050B0654D
:101B900056E6F068216A00F003028A427FF403AF40
:101BA000626A6FF00F0300F0F00103EB0212914242
:101BB0007FF4F9AEA16A00F4FE42B2EB012F7FF48C
:101BC000F2AEE16A00F07842B2EBC16F7FF4EBAEA7
:101BD000226B0023CFF6E07303EA025200F4C00147
:101BE000A2F5001291427FF4DEAE616B4FF07E42AF
:101BF00002EA016100F0C06001F17E4188427FF499
:101C0000D2AE43E0F06848F20C01C0F29F1104F13B
:101C1000200700EA010C8ECF6FF00F00D4E90C54BE
:101C200000EB02100022CFF6E07241EA0C0102EA5A
:101C300005520843A2F500124FF07E4540EA03200A
:101C400005EA0465104305F17E4540EAC760284374
:101C5000F060306840F080703060F06840F0807074
:101C6000F060FFF7BBF80446306880010ED4FFF740
:101C7000B5F8001B02284FF00300F5D9BCE6F06868
:101C80004FF6FC71CFF6EE610840F060002002B024
:101C9000BDE8F081002804BF01207047416A19B1F6
:101CA00000210161142104E04168B1F5827F02D076
:101CB0001C2100224250B0B50025856290F85D10CD
:101CC00029B980F85C50044600F056F820460221FD
:101CD00080F85D100168D0F80CE00B68BEF5E06F8D
:101CE00023F040030B6098BF01254EF40063B3F569
:101CF000706F4FEA053C1CBF00258562D0E9015496
:101D0000D0E9043205F4827504F404442C4403F051
:101D100002032344846902F00102C5691A4404F4F1
:101D200000731A4405F03803056A1A4405F080036D
:101D3000856A1A4405F400531A430A600422436A70
:101D40000EF4706502EA1442446B45EA0C0503F098
:101D500010032A4304F008041A4322434A60CA6964
:101D600022F40062CA6100210122016680F85D2030
:101D7000BDE8B040084670472DE9F04387B00446FF
:101D8000006843F60041C4F2000100278842CDE913
:101D90000577CDE90377029702D007B0BDE8F0835D
:101DA00041F24C00C4F20200C16840F2004841F424
:101DB0000041C160C168C4F6000801F4004101910E
:101DC0000199016802AE41F0040101600168022539
:101DD00001F004010191019901684FF0060941F0F9
:101DE000020101600068314600F002000190019894
:101DF0004FF40060029008F58060CDE90357059527
:101E0000CDF81890FEF70EFF282002A9A1C1404688
:101E10003146CDE90559FEF705FF4CF290253020FB
:101E2000C2F20005C4F202000F211022802385E8CF
:101E300087002846C5E90437C5E906772F62FEF713
:101E4000D9FD002818BFFEF7C3FC6565AC6207B07A
:101E5000BDE8F0833020C4F20100016821F00101E7
:101E6000016070473021C4F201010A6822F00202C9
:101E70001043086070470000704700007047000082
:101E80007047000070470000704700007047000076
:101E900090F83C20012A4FF0020266D070B5012371
:101EA00080F83C3080F83D20026842F6004C5468CF
:101EB0009368C4F2010C45F2000E6245C4F2010EB3
:101EC00018BF72452AD14D6824F470042C434FF694
:101ED0008F75CFF6FF550E682C4042F6FF35C4F2E1
:101EE00001053443AA4254600DDC40F2FF76C4F28F
:101EF0000006B24219DCB2F1804F29D040F2004610
:101F0000C4F2000622E043F6FF74C4F20104A242C8
:101F100016DC62451CD043F2004615E043F2004552
:101F2000C4F20105AA42CED0D1E740F60006C4F2C1
:101F30000006B2420CD040F60046C4F2000605E0AE
:101F4000724505D044F20006C4F20106B24204D143
:101F5000896823F08003194391600121002280F8F1
:101F60003D1080F83C20BDE87040104670470000EE
:101F700070470000002804BF0120704710B50446D8
:101F800090F83D0028B9002084F83C00204600F07D
:101F900023F8022084F83D002068211D00F012FF84
:101FA000012084F8480084F83E0084F83F0084F85B
:101FB000400084F8410084F8420084F8430084F82B
:101FC000440084F8450084F8460084F8470084F80B
:101FD0003D00002010BD0000006841F20041C4F245
:101FE0000001884218BF704780B582B041F25800A6
:101FF000C4F202000168002241F020010160006883
:10200000012100F02000019001983720FEF792FF97
:10201000372002B0BDE88040FEF77ABF90F83D104F
:1020200001291BD1022180F83D10016842F6FF32E0
:10203000C868C4F20102914240F00100C8600FDCA0
:1020400040F2FF70C4F20000814218DCB1F1804F11
:102050002CD040F20040C4F2000025E0012070477F
:1020600043F6FF70C4F20100814213DC42F60040E7
:10207000C4F20100814219D043F2004012E040F660
:102080000000C4F20000814210D040F60040C4F2CB
:10209000000009E045F20000C4F20100814205D0D1
:1020A00044F20000C4F2010081420CD1886807228A
:1020B000C0F201020240062A4FF00000CFD0B2F574
:1020C000803F08BF7047086840F0010008600020AA
:1020D0007047000070470000F0B581B0044600680A
:1020E000C5680669B10716D515F0020113D06FF067
:1020F00002010161012121778069800703D0204618
:10210000FFF7E8FF05E0204600F0CAF8204600F09F
:10211000C9F800202077700718D515F0040015D0F5
:1021200020686FF00401016102212177806910F4B9
:10213000407F03D02046FFF7CDFF05E0204600F0AA
:10214000AFF8204600F0AEF800202077300717D512
:1021500015F0080014D020686FF008010161042117
:102160002177C069800703D02046FFF7B3FF05E061
:10217000204600F095F8204600F094F800202077E3
:10218000F00618D515F0100015D020686FF010017A
:10219000016108212177C06910F4407F03D02046F7
:1021A000FFF798FF05E0204600F07AF8204600F09F
:1021B00079F800202077F00718BF15F0010006D04D
:1021C00020686FF001010161204600F06DF816F4FF
:1021D000025F05F0800718BF002F02D1F00509D477
:1021E00010E020686FF4025101612046FFF746FEBF
:1021F000F00507D537B120686FF480710161204682
:10220000FFF73AFE700609D515F0400006D02068A9
:102210006FF040010161204600F058F8B00609D582
:1022200015F0200006D020686FF0200101612046E3
:10223000FFF726FEF00209D515F4801006D02068BD
:102240006FF4801101612046FFF71EFEB00209D530
:1022500015F4001006D020686FF4001101612046CB
:10226000FFF710FE700209D515F4800006D0206833
:102270006FF4800101612046FFF708FE30020CD5A3
:1022800015F4000009D021686FF4000220460A61AD
:1022900001B0BDE8F040FFF76BBE01B0F0BD00003B
:1022A0007047000070470000016841F20002C4F26C
:1022B0000002914208BFFEF797BD4CF26041C2F2A6
:1022C0000001884218BF704700F0A8BB70470000AB
:1022D00090F88410012904BF022070472421C0F81F
:1022E000881001680A680B6822F0005223F001038D
:1022F0000B60002343660A602021C0F8881080F834
:1023000084300020704700007047000070470000D4
:1023100090F88420012A04BF02207047B0B5012341
:10232000242280F88430C0F888200268D0F864E065
:10233000D2F800C01468BEF1000F24F0010414604C
:10234000946824F0606441EA040191601BD09168B4
:1023500093684AF6707E5B0FC0F6000E4AF67875F9
:102360001EF80340C0F60005EB5CE400B4FBF3F399
:10237000C1F34261A0F86A301EF80130695CDB00ED
:10238000B3FBF1F301E0A0F86A302021A0F8683037
:10239000C2F800C0C0F88810002180F88410002026
:1023A000B0BD000090F88420012A04BF02207047CD
:1023B000B0B50123242280F88430C0F88820026858
:1023C000D0F864E0D2F800C01468BEF1000F24F029
:1023D00001041460946824F0604441EA04019160AF
:1023E0001BD0916893684AF6707E5B0FC0F6000EB2
:1023F0004AF678751EF80340C0F60005EB5CE40071
:10240000B4FBF3F3C1F34261A0F86A301EF8013067
:10241000695CDB00B3FBF1F301E0A0F86A30202136
:10242000A0F86830C2F800C0C0F88810002180F819
:1024300084100020B0BD000070470000704700000D
:102440007047000070B5046840F62F03E269216808
:10245000A6681340202B05D101F0200306F080551B
:102460005B1938D140F60F0313400CD00123C1F2A1
:10247000000306EA030C40F22013C0F200430B40B5
:1024800013EB0C032DD1C36ED50616D5012B14D139
:1024900011F0100311D010212162A168490600F14A
:1024A000FC80B0F85C10B0F85E20B0F85E30002B15
:1024B00018BF914240F05B8170BDD30240F1CB80E8
:1024C00016F4800300F0C7804FF480112162BDE84C
:1024D0007040FFF7B3BF416F0029EDD0BDE87040F9
:1024E0000847D30718BF11F4807307D00123236274
:1024F000D0F8903043F00103C0F89030930706F015
:10250000010E0AD5BEF1000F07D002232362D0F8D6
:10251000903043F00403C0F8903053070AD5BEF161
:10252000000F07D004232362D0F8903043F0020359
:10253000C0F8903013070CD501F0200353EA0C03C8
:1025400007D008232362D0F8903043F00803C0F886
:10255000903013050BD511F0806308D04FF4006361
:102560002362D0F8903043F02003C0F89030D0F8C8
:102570009030002BA0D092060AD501F0200106F081
:102580008052891804D0416F11B104468847204613
:102590000168D0F89020896802F0280201F040011B
:1025A000891807D10446FFF74BFF0020C4F89000BC
:1025B00070BD00BF016851E8001F026821F49071EE
:1025C00042E80013002BF5D14FF6FE71CEF6FF71F5
:1025D000026852E8022F03680A4043E80226002EF0
:1025E000F6D1C16E012909D1016851E8001F0268C6
:1025F00021F0100142E80013002BF5D12021C0F892
:102600008C100021C166026841679168490640F15B
:10261000A18000BF016851E8021F026821F040015B
:1026200042E80213002BF5D1D0F88010002900F009
:10263000918043F2BD02C0F60002044608468A6358
:10264000FEF74AF900283FF437AFD4F88000816BD9
:10265000BDE870400847130606D501F0800306F474
:1026600000069B1940F0B380530677D511F0400364
:1026700074D000BF016851E8001F026821F04001DA
:1026800042E80013002BF5D12021C0F8881000216A
:102690008167BDE8704000F0BBB9D0F880100A68CF
:1026A00051688BB2002B4AD0B0F85C60B34246D27E
:1026B000A0F85E101168890635D400BF016851E8A2
:1026C000001F026821F4807142E80013002BF5D14D
:1026D000016851E8021F026821F0010142E802137B
:1026E000002BF5D1016851E8021F026821F040017A
:1026F00042E80213002BF5D12021C0F88C100021F4
:10270000C16600BF016851E8001F026821F0100196
:1027100042E80013002BF5D1D0F88010044608469B
:10272000FEF7A2F8204602210167B0F85C10B0F86D
:102730005E20891A89B2BDE87040FFF7E5BDB0F8A8
:102740005C1099427FF4B8AE126892067FF5B4AE81
:10275000022237E0BDE87040FFF772BE13023DD59C
:1027600011F080433AD0BDE87040FFF765BE891A8A
:10277000026852E8002F036822F4907243E80026B2
:10278000002EF5D14FF6FE72CEF6FF72036853E8C5
:10279000023F0668134046E80235002DF6D120229C
:1027A000C0F88C200022C266426700BF026852E86F
:1027B000002F036822F0100243E80026002EF5D116
:1027C000022289B20267BDE87040FFF79DBD816FAC
:1027D00000293FF471AEBDE870400847D2017FF593
:1027E0006BAEB1F1FF3FC8BF70BDBDE87040FFF7F1
:1027F0008DBD000010B5D0B10446D0F8880028B9CE
:10280000002084F88400204600F026F82420C4F834
:1028100088002068A16A026822F00102026011B1FA
:10282000204600F077FB204600F0D8FC08B10120DC
:1028300010BD2168486820F490404860886820F006
:102840002A008860086840F0010220460A60BDE85E
:10285000104000F0D3BB00002DE9F0419CB00446CD
:10286000002502A854211B95CDE91955CDE917552E
:10287000FDF706FD206843F60001C4F2010188421D
:1028800002D01CB0BDE8F0810120CDE9020502A80C
:10289000FEF710FC002818BFFDF79AFF41F24C002C
:1028A000C4F20200416940F2080841F480414161EC
:1028B0004169002601F48041019101990168C4F247
:1028C000020841F001010160006817A900F0010051
:1028D000019001984FF4C0601790022018900720D3
:1028E0001B904FF09040CDE91966FEF79BF94CF232
:1028F000F025C2F2000518208027C5E9008028468F
:10290000C5E90266C5E90476C5E906662E62FEF7EA
:1029100071F8002818BFFDF75BFFC4F88050AC6267
:102920004CF2503508F11400C2F2000519211022B2
:1029300085E8C7002846C5E90566C5E90766FEF7CC
:1029400059F8002818BFFDF743FF25200021002279
:10295000E567AC62FEF7EEFA2520FEF7D9FA1CB067
:10296000BDE8F081D0F88830202B09D194460029A9
:102970004FF0010218BFBCF1000F04D110467047A0
:10298000022210467047B0B5002221230165A0F84D
:1029900054C0A0F856C0C0F89020C0F88830C36F6B
:1029A00013B343F2CD05C0F6000543F2951443F28C
:1029B000D51E5D630568C0F60004C0F6000EC3E9CD
:1029C0000B4E9A6305F12802044618466346FEF74B
:1029D000A3F80146204639B11021C0F890102021FB
:1029E000C0F8881001220EE0016840220A6200BF90
:1029F000016851E8021F026841F0800142E80213B9
:102A0000002BF5D10022BDE8B04010467047000011
:102A10007047000070470000FEE7000080B500F03E
:102A200021F80138C0B2072888BF80BD05A151F840
:102A3000201040F20C00C2F20000BDE8804000F01F
:102A4000D3BD00BF40B1000814B100084CB100086C
:102A50001FB1000858B100082AB1000864B100088D
:102A600035B10008B0B541F20004C4F600042046B8
:102A70004021FEF7A7F94FF0010518B320462021A9
:102A8000FEF7A0F900B320461021FEF79BF9E8B14C
:102A900020460821FEF796F9D0B140F2E202C2F2D8
:102AA0000002118840F2E003C2F20003002007296F
:102AB000187022D840F2E401C2F2000110800870C0
:102AC000C0B2B0BD012004E0022002E0032000E01B
:102AD000042040F2E201C2F200010A8801320A80B9
:102AE00040F2E401C2F20001087040F2E000C2F2DC
:102AF000000005700020C0B2B0BD40F2E403C2F295
:102B000000031B78108058004FF0FF32292938BF8E
:102B100002EB4300C0B2B0BD80B582B041F24800C4
:102B2000C4F202000168002241F004010160016862
:102B300001F0040101910199016841F00101016076
:102B40000068002100F00100009000980B20FEF7C3
:102B5000F1F90B20FEF7DCF90C2000210022FEF732
:102B6000E9F90C20FEF7D4F90D2000210022FEF730
:102B7000E1F90D2002B0BDE88040FEF7C9B90000C0
:102B80002DE9F04786B0002741F24C000597CDE9CA
:102B90000377CDE90177C4F20200016841F2000435
:102BA00041F0100101600168C4F6000401F0100159
:102BB000009100990168A4F5006541F004010160ED
:102BC0000168012201F004010091009901684FF4AD
:102BD000604941F02001016001684FF0010801F0F7
:102BE000200100910099016841F001010160016834
:102BF00001F0010100910099016841F002010160BA
:102C000000684FF4604100F00200009000982846F0
:102C1000FEF7DEF82046032100224FF0030AFEF7FC
:102C2000D7F8782001AECDE9010720463146039759
:102C3000FDF7F8FF28463146CDE90198CDE9037745
:102C4000FDF7F0FF0220049020463146CDE901A8AF
:102C50000397FDF7E7FF06B0BDE8F087B0B54CF28B
:102C6000B03043F60041C2F20000C4F200014FF45C
:102C7000827200234FF4E06C4FF0020E80E80E5099
:102C800000F114014FF40074082538C10721C0E990
:102C90000833C0E90A31C0E90C35FEF7FBFF002814
:102CA00008BFB0BDBDE8B040FDF792BD10B584B01F
:102CB0004CF2604041F200410024C2F20000C4F234
:102CC000000142F20F730394CDE90144A72280E88A
:102CD0001600C3608461FFF74DF9002818BFFDF7A7
:102CE00077FD4CF26040C2F2000001A90194039408
:102CF000FFF7CEF8002818BFFDF76AFD04B010BD3D
:102D000080B54CF2AC4043F60001C2F20000C4F2C0
:102D1000010100234FF00C0C4FF4E13280E80E006B
:102D2000C0E90333C0E905C3C0E90733C0E909338B
:102D3000FFF760FD002818BFFDF74AFD4CF2AC40DC
:102D4000C2F200000021FFF72DFB002818BFFDF79D
:102D50003FFD4CF2AC40C2F200000021FFF7D8FA70
:102D6000002818BFFDF734FD4CF2AC40C2F2000061
:102D7000FFF7AEFA002808BF80BDBDE88040FDF730
:102D800027BD0000FEE70000FEE7000070470000DE
:102D900070470000704700004EF68850CEF20000E9
:102DA000016841F470010160704700004CF214406A
:102DB000C2F20000FFF790B94CF26040C2F200008E
:102DC000FFF78AB940F6FF330268C4F2000343F20A
:102DD000FF3C9842C4F2010C0ADD60452EDC40F64F
:102DE0000043C4F20003984234D042F600432DE081
:102DF000B0F1804F2ED040F20043C4F2000398425D
:102E000028D040F60003C4F20003984222D0604567
:102E100026DC40F2FF73C4F20003984235DD40F631
:102E20000003C4F20003984245D040F60043C4F2C8
:102E3000000398423FD042F6004338E045F20003D9
:102E4000C4F20103984205D043F20043C4F20103E7
:102E50009842DCD14B6822F070021A436045D8DDFD
:102E600044F2FF33C4F20103984218DD44F20043F8
:102E7000C4F2010398421ED045F20003C4F20103DC
:102E8000984218D044F6000311E0B0F1804F12D000
:102E900040F20043C4F2000398420CD00FE043F22A
:102EA0000043C4F20103984205D044F20003C4F287
:102EB0000103984203D1CB6822F440721A4380B5D3
:102EC0004B6922F0800E8A6843EA0E03D1F800C0F5
:102ED0000360C262A0F18042A2F596324FEAB222AC
:102EE000092AC0F828C0BDE8804008D8012303FAA9
:102EF00002F240F2E5231A421CBF09690163012175
:102F000041610169C90708BF7047016921F00101EA
:102F100001617047816A0A070CD4CA0715D18A0774
:102F20001ED44A0727D4CA0630D48A0639D44A06A2
:102F300042D457E00268D0F838C0536823F4004305
:102F400043EA0C035360CA07E9D00268D0F82CC0EA
:102F5000536823F4003343EA0C0353608A07E0D537
:102F60000268D0F830C0536823F4803343EA0C037E
:102F700053604A07D7D50268D0F834C0536823F4A9
:102F8000802343EA0C035360CA06CED50268D0F80A
:102F90003CC0936823F4805343EA0C0393608A0691
:102FA000C5D50268D0F840C0936823F4005343EAC3
:102FB0000C0393604A0615D5D0F800C0436CDCF8CA
:102FC0000420B3F5801F22F4801242EA0302CCF8F9
:102FD000042007D1DCF80420836C22F4C0021A43D9
:102FE000CCF80420090658BF70470168C06C4A68D5
:102FF00022F400221043486070470000B0B582B050
:1030000004460020C4F89000FDF7E8FE216805465C
:10301000096809071AD56FF07E4C20464FF400115D
:1030200000222B46CDF800C000F038FA70B100BF86
:10303000206850E8000F216820F0800041E800027D
:10304000002AF5D103202021882230E02068006882
:10305000400723D56FF07E4C20464FF480010022BC
:103060002B46CDF800C000F019FAB8B1206850E83E
:10307000000F216820F4907041E80002002AF5D189
:10308000206850E8020F216820F0010041E80202A8
:10309000002AF5D1032020218C2208E02020C4F84A
:1030A0008800C4F88C00002170220020E166A15045
:1030B000002184F8841002B0B0BD0000806A0021B5
:1030C000A0F85E10A0F85610FFF7BAB9806A03683E
:1030D000D0F88820D0F88CC09B681B061BD5212A0D
:1030E00019D10022A0F85620026852E8002F036888
:1030F00022F0C00243E800210029F5D1016851E81F
:10310000021F026821F4000142E80213002BF5D1EE
:103110002021C0F8881001688968490632D5BCF1C1
:10312000220F2FD10021A0F85E1000BF016851E8E6
:10313000001F026821F4907142E80013002BF5D1C2
:103140004FF6FE7CCEF6FF7C026852E8022F036841
:1031500002EA0C0243E802210029F5D1C16E0129DF
:103160000AD100BF016851E8001F026821F0100178
:1031700042E80013002BF5D12021C0F88C1000216B
:10318000C1664167D0F8901041F01001C0F890106E
:10319000FFF756B90168806A0968890648BFFFF7DA
:1031A00037BC0021A0F85610016851E8021F0268E0
:1031B00021F0800142E80213002BF5D1016851E8AB
:1031C000001F026841F0400142E80013002BF5D1D6
:1031D00070470000806AFFF71DBC0000F0B581B0A9
:1031E000044604F108064ECE0068194341EA06037E
:1031F000E169066846F6F315CCF6FF752E403343B9
:103200000B43036043684FF2FF4523F440531A43D6
:10321000426048F20002A369C4F2000290421CBF5F
:10322000266A33438668C1F2FF152E40334383601C
:10323000C36A666A23F00F033343C36244F6FF7325
:10324000C4F2000398424FF0100318DC44F2004629
:10325000C4F20006B04227D044F60006C4F20006CD
:10326000B0422FD044F60046C4F20006B0423ED130
:1032700041F28803C4F202031B689B092FE045F268
:103280000006C4F20006B04215D0904221D043F6A9
:103290000006C4F20106B04229D141F28803C4F20B
:1032A00002031B6879A61EE041F28803C4F2020300
:1032B0001B689B0813E041F28803C4F202031B68F9
:1032C0001B0A0CE041F28803C4F202031B681B09CD
:1032D00005E041F28803C4F202031B689B0A4AF628
:1032E0006076C0F6000603F0030356F823309042E0
:1032F00042F20040C0F2F40013D0B1F5004F1ED1ED
:10330000082B00F264800027DFE803F00569736191
:1033100071616161B500FEF70DFA002840F06A8026
:103320009DE0082B4ED80027DFE803F0054C1E4C2B
:10333000184C4C4C1C00FEF7FDF9B8B98FE0082B77
:1033400049D80027DFE803F0054F74477247474725
:103350009C00FEF7EFF900286BD180E0FEF716FA2B
:1033600020B97CE04FF40040002878D0616A48F62C
:10337000B872C0F6000232F811206568B0FBF2F3B3
:1033800005EB45018B424FF001016BD32E03B34295
:1033900068D800210023FCF73BFF090241EA1061D5
:1033A000000210EB550041F100012A460023FCF712
:1033B0002FFF4FF60052A0F54071C0F20F0291426C
:1033C0004BD34EE0002001270028CFD147E000205A
:1033D000012778B943E00020012750BB3FE0FEF70A
:1033E000BFF938B93BE0FEF7BBF910BB37E0FEF799
:1033F000CDF9A0B3616A48F6B872C0F6000232F89F
:1034000011106268B0FBF1F0510801EB4000B0FB15
:10341000F2F04FF6EF72A0F11001914221D84FF671
:10342000F0710140C0F34200084416E0FEF7AEF927
:10343000A8B1616A48F6B872C0F6000232F81110FD
:103440006268B0FBF1F000EB5200B0FBF2F04FF617
:10345000EF72A0F11001914203D82168C86039468B
:1034600000E001214FF001100022A06662670846CB
:10347000A26701B0F0BD4FF400400028BAD1EEE7DA
:103480004FF400400028D4D1E9E700BF010000005C
:103490000400000002000000080000002DE9F043D5
:1034A00081B004460068C0690840401AB0FA80F054
:1034B0004009904257D1DDF8208015460E469946C6
:1034C00008F1010709E000BF2068C0693040801B97
:1034D000B0FA80F04009A84245D1002FF4D0FDF7A2
:1034E0007DFC0146B8F1000F4FF003003CD0A1EB8A
:1034F0000901414538D8206801684907E4D5402EC4
:10350000E2D0802EE0D0C169090730D4C169090535
:10351000DAD54FF400610162206850E8000F21689D
:1035200020F4907041E80002002AF5D14FF6FE70B9
:10353000CEF6FF70216851E8021F2268014042E880
:103540000213002BF6D1E06E012809D1206850E863
:10355000000F216820F0100041E80002002AF5D198
:10356000032020212CE0002001B0BDE8F0830821D9
:10357000016200BF206850E8000F216820F49070BD
:1035800041E80002002AF5D14FF6FE70CEF6FF703A
:10359000216851E8021F2268014042E80213002B13
:1035A000F6D1E06E012809D1206850E8000F2168AB
:1035B00020F0100041E80002002AF5D10120082186
:1035C0002022C4F88C200022E2666267C4F89010C2
:1035D00084F8842001B0BDE8F08300004CF2AC40D8
:1035E000C2F20000FEF72EBF82B0B0B582B0CDE9C6
:1035F00006230446D0F8C0008C4606A9019100BFFE
:10360000D0F888102029FBD1C16F19B191F825108D
:103610000129F5D1019B04F180052846402162462D
:1036200001F030F8D4F8C01082B208462946FFF7FE
:1036300099F902B0BDE8B04002B07047FEE7000063
:103640002DE9F04F81B0B0F800A0984691460746AA
:10365000012A8B4610D1BAF1000F0DD0ABF1040155
:10366000504600BF91ED020A0138B1EE400A81EDEB
:10367000020A01F10801F5D1BAF1FF0F0CDDBAF52C
:10368000806F21DBBAF5805F24D0BAF5006F2BD0B4
:10369000BAF5806F10D023E0BAF13F0F06DCBAF123
:1036A000100F09D0BAF1200F1ED019E0BAF1400F67
:1036B00010D0BAF1800F13D13846594600F062F8A5
:1036C000B8F1000F17D139E0BAF5807F0CD0BAF508
:1036D000007F05D17A6858465146012300F046FC28
:1036E000B8F1000F07D129E03846594600F018F923
:1036F000B8F1000F22D0B7F80CC0BCF1000F1DD0FC
:10370000B968002201EB420331F812705B8827F0A0
:10371000030723F003035BF807005BF803400BEBA0
:1037200007060BEB03054BF807404BF803006868EE
:1037300073680232624570606B60E3D3B9F1010FC8
:103740001CD1BAF1000F19D000EE10AAB8EE400A51
:10375000B7EE001A81EE000AABF1080090ED021AF4
:1037600090ED032A20EE011A22EE402A80ED021A83
:1037700080ED032A0830BAF1010AEFD101B0BDE8AB
:10378000F08F00002DE9F0472DED028B8046038875
:10379000D8F80420084601EB830A082B4FEA5309A6
:1037A000C0F0AE806FF00E010AEB890C00EB890EC1
:1037B00001EA4304002700BF0AEB0705C31993ED94
:1037C000000A95ED004A93ED011A95ED015A0CEBB4
:1037D00007060EEB070193ED022A95ED026A70EEE3
:1037E000045A91ED007AD6ED002AC3ED005A71EE2D
:1037F000055AD1ED010AD6ED013AC3ED015A72EE38
:10380000065A93ED033AD1ED021AD6ED024AC3ED02
:10381000025AD5ED035A30EE440A33EE258A37EECC
:10382000224AD1ED036AD6ED037A83ED038A81ED56
:10383000004A30EEA34A81ED014A31EEA44A81EDFF
:10384000024A36EEA74A81ED034AD11931EE451AF4
:1038500032EE462A33EEE05A34EEE16AD1ED000A48
:10386000D1ED011A32EEC74A60EE202A61EE213A0C
:1038700021EE201A20EE210A31EE400A85ED010AE0
:1038800024EE210A25EE211A25EE205A72EEA32AF3
:1038900024EE204A30EE450AC5ED002A86ED000AE6
:1038A00034EE010A86ED010A91ED020A91ED031A48
:1038B00033EE653A22EE004A23EE015A23EE003A37
:1038C00022EE012A37EEE67A33EE422A85ED032A0C
:1038D00026EE012A27EE011A27EE003A26EE000A0C
:1038E000103734EE054A32EE432A30EE010ABC426C
:1038F00085ED024A86ED022A86ED030A7FF45CAF6D
:103900004946022300F032FBD8F8042050464946CD
:103910000223BDEC028BBDE8F04700F027BB00009E
:103920002DE9F04F81B02DED108B8CB0038891ED17
:10393000000A5E0801EB860B0BEB860A91ED011A7B
:103940009AED002A9AED013A0AEB860830EE024A17
:1039500030EE420A31EE032A31EE431A9BED013A72
:103960009BED005A0190D0F804E0980898ED017A98
:10397000D8ED000A6FF00102009030EE036A71EE9C
:10398000451A74EE452A72EE433A30EE430A31EEA0
:10399000051A34EE054A32EE032A02EB930036EEA6
:1039A000476A71EEA01A72EEE02A73EEC73A30EE63
:1039B000070A31EE601A34EE204A32EE072A440834
:1039C00081ED004A81ED012A8BED006ACBED011AF1
:1039D000CAED002ACAED013A88ED000A88ED011A05
:1039E000CDF82880CDF810B000F055816FF00300BD
:1039F00006EB46026FF0070300EB061503EB8207A8
:103A000000EBC60C03EB860B002076464FF0000E51
:103A100000230990CDE9021A0B97CDE907540B9AC0
:103A200001EB05098F18049ACDF818C0C8180AEBE5
:103A300003080A9D1A4490ED024A90ED035AD8ED0E
:103A4000020AD8ED031A1D4492ED020A92ED032AF0
:103A500034EE206A35EE217A95ED021A95ED033A9F
:103A600076EE002A77EE023A72EE812A73EE833AFE
:103A7000C0ED022AC0ED033A01EB0B008C44D0EDFF
:103A8000015AD7ED016ADCED003A75EEA62AD9EDB0
:103A9000004A34EE604A72EEA30A70EEA47A35EE64
:103AA000615A90ED008A97ED009A5CED010A59ED9C
:103AB000011AC0ED017A1CED01AA78EE097A19ED20
:103AC00001BA37EE8AAA3AEE0BAA80ED00AAF018E6
:103AD00034EE02AA35EE40BA90ED02CA90ED03DA58
:103AE0003AEE43AA3BEE01BA2AEE0CEA2BEE0DFAAF
:103AF0002BEE0CBA2AEE0DAA75EEE65A3BEE4AAA58
:103B000038EE498A75EEE06A33EEE49A82ED03AA54
:103B100076EEA16A38EE09AA26EE8DBA2AEE0DDA03
:103B20002AEE0CAA66EE8C6A3EEE0FEA3BEE4AAA3B
:103B300076EE8D6A82ED02EA4CED016A8CED00AA08
:103B400006EB0E0036EE406A37EE427AD0ED046A9C
:103B500090ED05AA36EE416A37EE437A26EE26BA94
:103B600027EE0ACA27EE267A26EE0A6A37EE466A5A
:103B700088ED036A32EEE36A37EEE07A059536EEB9
:103B8000646A37EE617A66EE662A67EE263A27EEB9
:103B90000A7A26EE0A6A099A3BEE0CBA32EEC77A26
:103BA00036EE636A88ED02BA87ED006A87ED017A26
:103BB000B01890ED066A90ED077A34EE422A35EEA1
:103BC000000A32EE032A30EE410A22EE061A20EEF7
:103BD000073A059831EE031A20EE060A22EE072A6C
:103BE000B2460C4630EE420A80ED021A31EEE01A7F
:103BF0001832DDE907540B9F80ED030ADDF80CA0B5
:103C0000DDF8288039EE480A31EE651ADDF818C073
:103C1000099221EE072A20EE073A20EE060A21EE4D
:103C2000061A029932EE400A31EE031A013C03F102
:103C30000803A5F10805A7F108070EF1100EACF175
:103C4000080CABF1080B09ED011A89ED000A7FF4AD
:103C5000E3AE06EB030C0CF1080008900498324622
:103C600000EB030B06EB0E00079010300B90099D44
:103C700001EB03090AEB03001544434409F108076B
:103C80000BF1080400F1080605F1180E03F108080D
:103C9000CDF824E018E00EF1180009900EF11000A4
:103CA0000B900EF10800434608F108080AF10806D7
:103CB0000BF10804089001F108075046724675465A
:103CC000CDF81CE0F446894697ED000A96ED001AFF
:103CD00094ED007A30EE012AD8ED000A99ED033A0E
:103CE00090ED034A72EE472A32EE072A32EE202A7E
:103CF00030EE410A33EE041A33EE443A9BED034AA8
:103D000093ED035A87ED002A9BED032A30EE046AF7
:103D100071EE443A30EE440A93ED034A31EE021A52
:103D200031EE041A089F89ED031A73EE471A97EDD6
:103D3000001A9CED032A36EE456A71EEA01A73EE66
:103D4000C53A30EE050A26EE014A21EE825A21EEEE
:103D5000811A26EE022A34EE054A31EE421A0B9FF2
:103D600084ED004A8BED031A97ED001A079F72EE5F
:103D7000E02A97ED052A22EE814A23EE825A23EEAD
:103D8000811A22EE822A34EE054A31EE421A86ED7D
:103D9000004A80ED031A099833EE073A90ED001AB5
:103DA00095ED072A33EE603A20EE014A23EE025ADF
:103DB00023EE011A20EE020A009D34EE052A31EEB0
:103DC000400A88ED002A83ED030A084629460423A9
:103DD00000F0CCF8019C049862682946042300F0A6
:103DE000C5F8626850462946042300F0BFF86268AF
:103DF0000A98294604230CB0BDEC108B01B0BDE835
:103E0000F04F00F0B3B80000002A08BF7047A0F1DF
:103E10000803081F93ED020A93ED031A20EE000A2F
:103E200021EE011A30EE010A0833B1EEC00A80ED2E
:103E3000010A0430013AEDD1704700002DE9F04746
:103E4000B0F800E0D0F804C0AEF10108654673B3E5
:103E500080689FED210A0CEB880AA0F10409ACF1FF
:103E60000406654607E000BFA2EC011A0435013BD9
:103E700006F104061BD051F8040BBEF1000F4AF8FE
:103E8000040BB0EE401AEFD0374648467446B0EE09
:103E9000401A00BF90ED012A97ED013A043023EE5D
:103EA000022A043732EE011A013CF3D1DCE7B8F103
:103EB000000F08BFBDE8F087CEF10000ACF10401AF
:103EC0002A1F00BF52F8043F0130471C41F8043F4D
:103ED000F8D1BDE8F08700BF000000002DE9F043F5
:103EE00085B040F20408C2F20008D8F800704AF623
:103EF00080724CF2E8030446C0F60002C2F20003EE
:103F000002A86521009700F021F840F20809C2F2EA
:103F10000009D9F80000A8B14CF240570026C2F2BF
:103F2000000702ADD8F8003003FB06F004EB800177
:103F300007EB80022846FFF781FFD9F80000013621
:103F40008642EFD305B0BDE8F0830000B0B505466A
:103F50000498298008446FF0030101EB80011846A2
:103F60001C46AA60FCF78CF96C60B0BD2DE9F04FDF
:103F700081B02DED108BA0B0DFED05CACDE9033285
:103F8000021D0C300C46029201901A9102E000BF13
:103F9000F304353FE30824F007001990D800079098
:103FA000A0EBD400C000189003EB43004FEA031EBF
:103FB0000201C60003EB830008935F01029BE5004A
:103FC000C0004FF0000B1F950C96CDE91D42CDE9C6
:103FD0001B7000BF19981F4403EB00091C9803EBEA
:103FE0000E0C03EB00080C981A4403EB000A189817
:103FF00013ED011A1E1817ED012A19ED013A18EDFB
:10400000014A1CED017A52ED010A5AED011A56EDF2
:10401000012A31EE025A33EE046A77EE203A71EE4D
:10402000A24A75EE235A76EE246A75EEA67A43ED1F
:10403000017A75EEE65AD9ED007A98ED008A9AED8C
:1040400000BA96ED00CAD3ED006A47ED015AD7EDEC
:10405000005A9CED009A92ED00AA37EE88EA7BEEBA
:104060000C8A36EEA5DA39EE0AFA35EE635A36EEE8
:10407000646A7EEE684A7DEE0F9A7DEE4F3A35EE29
:1040800024DA35EE645A7EEE28AA0CED01DA33EE1E
:10409000C6DA02ED015A36EE235A31EE421A33EEF9
:1040A000442A37EE603A31EEE24A37EEC86A7BEED8
:1040B0004C0A79EEAABA79EEEA9A72EE441A32EE16
:1040C000042A36EE604A36EE206AC3ED00BAC7ED28
:1040D000009A8CED00DA82ED005A36EEE55A39EEA0
:1040E0004A7A61EEAC1A22EE2C2A24EE2C4A26EEF5
:1040F0002C6A1D9C1F9D1A9971EE210A73EE022AEB
:1041000075EE043A77EE064A31EE611A33EE422A32
:1041100035EE443A37EE464A70EEA45A70EEE40AA1
:1041200031EE045A1B9F31EE441A1E9AA34449ED06
:10413000015A73EEE25A46ED010A72EEA30A08ED47
:10414000015A33EE425A0AED011A32EE031A8B4538
:104150002B44C9ED005AC6ED000A88ED005A8AEDDD
:10416000001AFFF437AF402CC0F0AC810399CDF8B2
:1041700018E088B20899DDF804E0C1EBC1014FEA0C
:10418000C10C0026012405900598049B064403EB0E
:10419000C60191ED000ACDE909E48DED190A91ED12
:1041A000010A03EB06118DED180A91ED000A0C9837
:1041B0008DED170A91ED010A06EB460103EBC102F2
:1041C0008DED160A92ED000A03EB01118DED150A33
:1041D00092ED010A03EB46128DED140A92ED000AEE
:1041E0000B968DED130A92ED010A06EB860203EBA6
:1041F000C2028DED120A92ED000A8DED110A92EDC8
:10420000010A8DED100A91ED000A8DED0F0A91ED76
:10421000010AC6EBC60103EBC1018DED0E0A91ED5B
:10422000000AD1ED016A2346DDE906548DED0D0A41
:104230001C9977440EEB01081E990EEB04090EEB56
:10424000050B0EEB010A0EEB00020EEB0C065EED09
:10425000017A17ED018A19ED019A18ED01AA1BEDFB
:1042600001BA1AED01CA12ED01DA16ED01EA77EE94
:1042700088FA39EE0A0A3BEE0C1A3DEE0E2A3FEEA2
:1042800081FA70EE028A7FEE289A4EED019A3FEE97
:10429000683A9EED00FAD7ED008AD9ED009AD8ED84
:1042A00000AADBED00BAF0EE6C3ADAED00CAD2ED0E
:1042B00000DAD6ED00EA3FEE284A39EEAA5A3BEE84
:1042C000AC6A3DEEAE7A74EE060A75EE071ADDEDC5
:1042D000134ADDED125A70EEA12A70EEE10ACEED1E
:1042E000002A64EE831A65EEA02A64EEA00A25EE89
:1042F000833A71EEA21A30EEC33A47ED011A87ED08
:10430000003A3FEEC11A30EE420A34EE462A35EE4C
:10431000473ADDED170ADDED161A31EE034A32EEAB
:10432000405A20EE846A21EE857A20EE855A21EEED
:10433000844A35EE444A8BED004A9DED0F4A9DEDCF
:104340000E5A31EE431A30EE020A24EE012A25EE0F
:10435000003A24EE000A25EE011A37EE066A33EE23
:10436000022A30EE410A39EE4A1A3DEE4E3A39EE53
:10437000EA5A3DEEEE7A71EE430A31EE031A35EE5B
:10438000473A35EE075A0BED016A0AED012A8AED2C
:10439000000A37EEC80A3BEE4C2A3FEE684A3BEE75
:1043A000EC6A20EEA37A21EE231A23EE233A25EEBF
:1043B000235AF0EE63CA70EE070A72EE011A74EE29
:1043C000032A76EE057ADDED193A9DED18CA30EE36
:1043D000A78A32EEE19A23EE88AA2CEE09BA23EEE0
:1043E000899ADDED0D3A70EEE70A71EEA21A2CEE15
:1043F000088A63EEA02A66EEA17A63EEA11A66EE41
:10440000A00A39EE488A71EEE00A89ED008AC6ED0D
:10441000000A30EE470A32EE411A34EE432A36EEF5
:10442000453ADDED110ADDED101A30EE034A32EEA9
:10443000415A20EE846A21EE857A20EE855A21EEDB
:10444000844A35EE444A88ED004A9DED154A9DEDBB
:10445000145A30EE430A31EE021A24EE002A25EEF9
:10446000013A24EE011A25EE000A3AEE0BAA72EE8A
:10447000A72A36EE076A32EE032A31EE400A09ED2A
:1044800001AA46ED012A08ED016A02ED012A82ED3A
:10449000000A1D9A1A9913441F9A1B9F8B42964437
:1044A000FFF4C6AE0A9C089ADDF824E001340B9EA6
:1044B00094420EF1080E7FF467AE0398089CC0008A
:1044C000039067E520B0BDEC108B01B0BDE8F08F24
:1044D00096B0FCF797FC08AC20463821FBF7D0FEDD
:1044E000002500200795CDE90555CDE90355FCF7DA
:1044F0005DFD012008904FF48030062109900220D4
:10450000119155210F900326CDE91210CDE9140029
:1045100020461096FDF77CF918B1EFF3108072B6C3
:10452000FEE70F20CDE9030603A80421CDE90555D8
:104530000795FCF753FF20B1EFF3108072B600BF70
:10454000FEE7FEF71DFBFEF7E7FAFEF7D9FBFEF7E5
:1045500085FBFEF7ABFB40F20C08C2F2000839A164
:104560004046FFF741F844F6B875C0F60005284606
:10457000FFF7B4FC37A14046FFF736F84CF2405045
:10458000C2F2000000F1C404043D40F6CE760FF202
:10459000D40900BF55F8040FFCF705F8824654F81B
:1045A000040F0F46FBF7FFFF41EC100B4046494656
:1045B00052463B468DED000BFFF716F8013EE9D160
:1045C00044F6B870C0F60000FCF708F948F2E808B5
:1045D00040F20C046FF00306C2F20008C2F20004BD
:1045E00025A543F6FC7700BF08EB06004068FBF703
:1045F000DAFF02460B4620462946FEF7F5FF043651
:10460000BE42F1D14CF2604040F60004C2F200001C
:10461000C4F60004FDF702FD20464FF400410022DD
:10462000FCF7D6FB4FF49670FCF7E8FA20464FF4FF
:1046300000410122FCF7CCFB4FF49670FCF7DEFA48
:10464000EAE700BF46696C74657220537461727446
:104650000A00000046696C7465722053746F700A1A
:1046600000000000576176653A25302E32662C2511
:10467000302E32660A0000004646543A25302E326B
:10468000660A00007CB50C001D461646014601D0A6
:10469000601E00E00020CDE90010064B6A46294666
:1046A000304600F0DBF8002C02D0009A0021117097
:1046B0007CBD00008B4F000802E008C8121F08C133
:1046C000002AFAD170477047002001E001C1121F93
:1046D000002AFBD1704700002DE9FF5F82B0002166
:1046E000DDE90430020DDDF840B0034318D044F694
:1046F0001050A2F2FF3242431514119801281FD026
:10470000A5EB0B00401C5FEA000A4FF000064E4F7D
:10471000DFF83891B046504615D5CAF1000413E0D1
:10472000119801244AA3012801D16FEA0B010298D4
:10473000119AC0E90031C0E9024206B0BDE8F09F1D
:10474000CBF10000DFE704460021404A491842EB64
:104750000450CDE9001012E0E00707D032463B4696
:1047600040464946FBF73EFE8046894632463B4678
:1047700010461946FBF736FE06460F466410002C1D
:10478000EAD1DDE90401DDE90023BAF1000F06DA20
:10479000FBF728FE42464B46FBF724FE05E0FBF7FD
:1047A00093FE42464B46FBF78FFE04460E46002220
:1047B000284BFBF7C7FF03D84FF0FF30014607E057
:1047C0000022254B20463146FBF765FDFBF7A2FF93
:1047D000102409E0002C0ADB0A220023FBF718FD55
:1047E000039B30321A55641E50EA0102F2D1641C58
:1047F000039AC4F111031444119A012A03D001222F
:1048000008430DD10AE0084304D000204FF0110BFB
:10481000119072E7A3EB0B056D1E0DE05B4504DD07
:104820004FF0000205F1010504E003DA4FF0000249
:10483000A5F10105002AECD002981199C0E90231D6
:10484000C0E9004579E70000000014400000F03F97
:10485000300000000000F0430000E03F2DE9FF4F72
:1048600095B09B468946064600250FE2252877D15C
:1048700000242746F84A0121059400E0044316F875
:10488000013F203B01FA03F01042F7D130782A288B
:1048900011D06FF02F033078A0F13002092A16D81A
:1048A000059A44F0020402EB820203EB4202104438
:1048B000761C0590EFE759F8042B0592002A03DADD
:1048C000504244F40054059044F00204761C3078C1
:1048D0002E2816D116F8010F44F004042A280DD012
:1048E0006FF02F023078A0F13003092B09D807EBC5
:1048F000870302EB4303C718761CF3E759F8047BE0
:10490000761C30786C280FD006DC4C2817D068282D
:104910000DD06A2814D104E0742810D07A280FD161
:104920000DE044F400140AE044F4801401E044F47F
:1049300040147278824202D104F58014761C761CF1
:10494000307866280BD013DC582877D009DC002893
:1049500075D04528F6D04628F4D047281AD19DE1D5
:1049600018E0632835D0642879D0652812D195E104
:10497000702873D008DC6728F1D069286FD06E28C2
:104980000DD06F2806D1B5E073282CD0752875D0CE
:10499000782874D05A46179990476D1C75E1C4F376
:1049A0000250022809D003280DD0D9F8001004289D
:1049B0000DD00D6009F1040967E1D9F80010EA177C
:1049C000C1E90052F6E7D9F800100D80F2E70D704A
:1049D000F0E719F8041B8DF8001000208DF8010095
:1049E000EA46012003E059F804AB4FF0FF306107BD
:1049F0004FF0000102D40DE008F101018846B942F0
:104A00000FDA8045F8DB1AF808100029F4D108E025
:104A100008F1010188468142FADB1AF808100029E2
:104A2000F6D105985B46A0EB080721463846179A51
:104A300000F094FA284400EB080507E04DE029E176
:104A40000DE01AF8010B5A4617999047B8F1010882
:104A5000F7D25B4621463846179A13E142E00A2214
:104A60000092C4F302524FF0000A022A08D059F80B
:104A700004CB032A4FEAEC710AD00DE029E02AE0CA
:104A800009F1070121F00702F2E802C1914609E0AD
:104A90000FFA8CFC4FEAEC71042A03D14FFA8CFC1C
:104AA0004FEAEC71002907DA0A460021DCF1000C1C
:104AB00061EB02012D2202E0220504D52B228DF8A4
:104AC0000420012203E0E20701D02022F7E790460C
:104AD00059E00A2102E010220DE010214FF0000AF7
:104AE00000910BE010224FF0000A44F00404082764
:104AF000009203E008224FF0000A0092C4F3025231
:104B0000022A05D059F804CB0021032A08D009E075
:104B100009F1070121F00702F2E802C1914605E020
:104B20001FFA8CFC042A01D10CF0FF0C4FF0000896
:104B3000220728D5702806D0009B83F0100353EA83
:104B40000A0305D00EE040228DF80420012208E07F
:104B50005CEA010206D030228DF804208DF80500B1
:104B600002229046009B83F0080353EA0A030AD10D
:104B70005CEA010201D1620705D530228DF80420DC
:104B80004FF001087F1E582804D034A003900EA8CF
:104B900002900DE036A0F9E753466046009AFBF715
:104BA00037FB84460398825C0298401E0290027094
:104BB0005CEA0100F0D1029806A9081A00F1200A67
:104BC000600702D524F4803400E00127574502DD58
:104BD000A7EB0A0000E0002000EB0A010090059816
:104BE0004144401A0590E00306D45B462146179ADB
:104BF000059800F0B3F90544002706E001A85A46DD
:104C0000C05D179990476D1C7F1C4745F6DBE0039C
:104C10000CD55B462146179A059800F09FF905448C
:104C200004E030205A46179990476D1C0099481EA1
:104C300000900029F5DC08E0029802995A460078B5
:104C4000491C0291179990476D1CBAF10001AAF115
:104C5000010AF1DC65E1000009280100303132333E
:104C600034353637383961626364656600000000A8
:104C70003031323334353637383941424344454692
:104C80000000000000F058F90544761C3078002838
:104C90007FF4ECAD19B02846BDE8F08F620700D470
:104CA000062709F1070222F0070CFCE80223E1467F
:104CB00003F000485FEA080C02D00FF2702C0DE000
:104CC0005FEA045C02D50FF2682C07E05FEAC47C5F
:104CD00002D00FF2602C01E0AFF2700C4FF0FF3801
:104CE00023F00043CDF850C065280CD006DC4528E1
:104CF00009D046281DD047283DD13DE0662818D070
:104D000067287ED138E00021112F01DB112000E05F
:104D1000781CCDE9000106A90EA8FFF7DDFCDDE94E
:104D20000F010E9A03910021009207F1010A0491EC
:104D30004DE04FF000400097CDE9011006A90EA804
:104D4000FFF7CAFCDDE90F0203920E9B11990022C6
:104D5000DDF80CA00093049211B9791C00EB010A54
:104D6000B7EB0A0004D4C0F1FF3007F1010A049048
:104D7000AAEB0700019044E0012F00DA012700218F
:104D8000112F01DD112000E03846CDE9000106A910
:104D90000EA8FFF7A1FCDDE90F010E9A0391002197
:104DA00004910092BA4621070CD40399514500DAC8
:104DB0008A46BAF1010F05DD009AAAF10101515CA2
:104DC000302908D0B84202DA10F1040F06DA0121C6
:104DD000CDE9011015E0AAF10101E9E7002805DCA1
:104DE000049901440491AAEB000102E0411C5145E1
:104DF00000DD8A460499401A401C01904FF00040A3
:104E00000290200704D40198504501DBCDF80480BE
:104E100000208DF84F0002980DF14F07B0F1004FC0
:104E200025D02B200E9002984FF0020800280CDAB3
:104E3000404202902D200E9007E00A210298FBF7D5
:104E4000C5FB3031029007F8011DB8F10001A8F14F
:104E50000108F2DC02980028EFD1791E0E98087044
:104E6000307800F0200040F0450007F8020D12A84D
:104E7000C01B00F107081498007800B1012000EB76
:104E80000A01019801EBE07105984144401A401E67
:104E90000590E00306D45B462146179A059800F07A
:104EA0005DF805441498007818B15A461799904750
:104EB0006D1CE00324D55B462146179A059800F047
:104EC0004DF805441CE00498002807DBDDE90301E8
:104ED000884203DD0098405C179901E01799302063
:104EE0005A469047049805F10105401C049001982A
:104EF000401E019004D12E205A46179990476D1CF0
:104F0000BAF10001AAF1010ADDDC05E017F8010B96
:104F10005A46179990476D1CB8F10001A8F1010895
:104F2000F4DC5B462146179A0598ABE62D0000009D
:104F30002B000000200000002DE9F0410446002570
:104F40001E461746880404D405E039462020B047A1
:104F50006D1C641EF9D52846BDE8F0812DE9F041AD
:104F6000044600251E469046C80301D5302700E0C0
:104F70002027880404D505E041463846B0476D1C1B
:104F8000641EF9D52846BDE8F0814A68002A06D09B
:104F90000A68531C0B6010704868401E48607047D8
:104FA00000000000000000000102030406070809D9
:104FB00000000000010203040557414283AA6C422D
:104FC000CA27A8429E7BE042989D9442DC59E84261
:104FD0008DCC024332C4CD423571E842F1C61D4347
:104FE0007ACED14299140C436CFBEC425D7CFF42BB
:104FF00044E7454342DB2E43513C1F43E88A5F436D
:1050000066581743FE642F4339F1674321502C4300
:105010001931564339F42B4328C75E430E6C56436F
:1050200025C5874355FC5043D2AE8243841698432E
:1050300044AD924320C17643C48B7E430537A543DC
:10504000D3278D430209A4431BC07E4382F68543C8
:105050007C9EA043F74BB44373089643BA4F9243E8
:1050600036A99F43F963B7434919C143F9BCC94302
:1050700020C9B84322ED9E4369D3B9431A4AA343DA
:10508000DFB4C643BE4AC743CAD6C8430A9AD1430F
:105090003D34BB439BA4B6432CA0BC43B976D94353
:1050A0007461E84328A2D2437CCDD2431D7BE943FF
:1050B0003206EE43F3B4DE43965AEE43C639DA4382
:1050C00016AFD943E6CFDF43F3E0D2432FC5F64313
:1050D000A006D643C89ADD43844CFC431064E643E3
:1050E0003072EC43872DDF434B1CE1432FC5E8436F
:1050F0006FD4F443A816F04347D503442C3BEE434A
:1051000073DD0444807E0644D729064401AF06447B
:10511000F2310144650CF843A014ED4361E9074402
:1051200019B0E043E603F943D704F2431B95FD436E
:105130000347F8431DA0E843A03FED43795D0844D1
:10514000936A03445D0CEA434F8E0144FF33F443FA
:105150007A49044441C7E5432DB303443F2506443F
:10516000DEBD0544A79E034406CDE5438DE405441A
:10517000689CF6439BAA024418110444BA37EE43D4
:10518000F9ECF343CEE7D843A94AED43F13F02449B
:1051900094A8D643F0DFE5435E7DED437A8AFB4376
:1051A000063BE4436057D6431B33DD43D139E44328
:1051B000511DF3438FEBE44345C0E743A453D5436C
:1051C0004FEAD043D248C943B08EC343E919C34321
:1051D000B949D743B15DE343DC0EDB435899BE4385
:1051E0002705D0433A9EBF4331B8CB43829BB3439C
:1051F000DA9FBD43DED8CC43C191B543939EC643ED
:10520000DE3BB0433D56C54357D7A3438DBCBE4399
:10521000ACAB90436D66AB43F077B143C5DB9E43C7
:1052200006CCA243FC8B9A431B5FA2430B979D4382
:10523000C3199143CDBA8C438B7F9743573E92431A
:1052400081579543DC2A724329ED4C43DEDF7643D8
:105250007AA58643BE5A4343C4E786430B1483436F
:10526000061975439E437743A2561A43F57E55436C
:10527000F63D65439AFF1B43831759432C240B4388
:10528000097A3743E12EC34212122C4332C51F4321
:10529000E5C19342BA2101439FBDF642E82277421D
:1052A00044070B43F8988C422D55C0427B2DE042B9
:1052B0008814C242DBB0B34295A37F42C6C9744290
:1052C00034217342A4B09342BA9B01421E664E4001
:1052D000813D3940697B8A41993969C2D62C43C2E4
:1052E0005B027EC243976FC232CB8AC1D4A578C21B
:1052F000BB4713C2461155C2F9E31DC23C5D26C22D
:10530000A19BD6C222FE61C2F57A7FC2FF35E6C2FA
:10531000732424C3D72600C37C3121C3C7E309C348
:10532000A0202FC3C9A905C3119AFCC2B2C703C3E9
:10533000FE2E07C3D04B62C3A25F5CC3C7ED19C387
:10534000E0045EC3D06F62C3E3A259C38D3F37C38D
:10535000133B85C396D64FC3973471C3179465C367
:10536000AC9990C30C659EC318B77EC3F8E295C391
:105370009D5D78C3E9F28BC3731C9CC34B8DA6C3A0
:10538000130388C3461EA9C340E592C31B6B98C391
:105390008CD8A2C36D3C9DC30A99B4C3E324BAC39D
:1053A0005D43B7C39A78ADC3F4D9A5C33BABC4C3BF
:1053B0007080CDC3BA97D5C3439FBFC3B801C2C3E2
:1053C000283FB5C35F6DD0C370C8C8C3A8FFC1C3B1
:1053D0003001BCC3E173CFC3BE8BE8C318E0DCC3AC
:1053E000FD91CCC3A0FEDEC33CEFECC36361D4C32C
:1053F0004480E0C31516CAC346D3E2C3F6EEFAC32F
:105400005CB5E2C3BD37FBC32830E1C30720D2C37C
:105410007C6AEBC3BB01E0C33077D8C3CC2FE0C3B9
:1054200097AFEDC32585EFC3D73700C42933FDC33C
:1054300089C104C47411E1C322D3F7C384B501C484
:10544000A7ACF9C330D001C47B56E1C3A0C902C4E4
:10545000893803C441E2E8C3A5FB08C4862BEEC328
:10546000D36708C4CC61F3C3AC4F00C48EA2EFC3B2
:10547000FFB006C4BA7803C4586806C4F79E02C4D5
:10548000333DE9C3FE1C04C4276B08C46CC307C4C6
:1054900094F2E6C3F3EA05C4F2C201C459B801C4E8
:1054A000BAB7E4C3604FEAC3B067EDC34FE0EFC3E0
:1054B0008F3CF9C3949EF0C3A571F6C36159F1C343
:1054C000672AE0C3E421FFC36110DFC33E45DAC3AE
:1054D0006078CEC3EBDCE2C31712E3C32C4AD6C319
:1054E0005CFAF9C34C5EDFC38869DDC37B89D0C336
:1054F0007E80CEC38A8CDAC38C3DD7C30F0AE8C343
:1055000070F3BEC39B46D3C39EB6CBC3E2C2B7C340
:105510002A55BEC32C92BEC3D403B3C383E8D7C3FA
:10552000B212C5C39424B9C30B85D2C3FC37B4C32C
:105530001AC49DC3F565B1C3A621C1C3BDD9C2C3F9
:10554000AA4096C3FBCF9DC310D895C306ADB5C383
:10555000B8EBAFC3E8E88AC3503B88C3D86E81C3B9
:10556000784190C3F56F8FC372D49EC3CCBA97C3F2
:105570004B8389C3708A77C36E3E66C3F12895C397
:1055800099987AC347B33CC3C69541C354AC30C362
:10559000B99447C383B85FC393E420C3D14D39C3E3
:1055A0003B265AC32AC544C3D86418C38F0240C3DC
:1055B000623D29C3F0CB0FC39E9406C3FC1D37C3C5
:1055C000381A09C3471CB2C2116B14C3EA77D5C29B
:1055D0003147D1C23B9CE5C2DCB135C2C1AF82C20A
:1055E000D992CAC2B4B0D3C2E3D7BCC2F3C2BEC060
:1055F0009129EBC14C2827C1D12FC441535C47C22C
:10560000CB3FB941C60447BF9CEB2FC06704F1C133
:105610005D7D4742BC4C8840355A60427CB8774239
:10562000A16A88422C9E1C42C7FA4B42911CBF4281
:1056300002351142B7794A42425ABA42CA55174313
:105640003A88CA422C1899424E70A64235E322434A
:10565000C4C01143B285F742562046436C27244309
:105660009A194A43BDB75343DD3A5E4320E62443CB
:1056700099CE214312073443C5E83143B9D93A439F
:105680007C8A5F43DCA33B43DBA66443C6F37C43D5
:1056900064E7844352D95B432F16814361F9644325
:1056A000441C7A43A0A38843E5A57C43770290433A
:1056B000F113A643685FA243631095431D629743AD
:1056C000C7C8BA4318C7A64358099943B798A14316
:1056D000DA7EAD430B729F43024FC043B949C343C7
:1056E000B98AC743868BD34312E5D6430FACCB436D
:1056F000695FB7432DF5BE43B951C3431A18CA4376
:105700008807CB430D53D143344EBC438C17C2435F
:10571000F220C5433A18D643DCCED343EE15E3431B
:1057200082FEE243891FEB4316D6DF43E546DB43A7
:10573000AF5FE5438F21F2439AE6E443E3C6D343E8
:10574000D270D843A3B1E343D01BEE43094BDC43F3
:105750006DC8F8433C68DD4329210144FD0F034433
:105760005E90F7438421DD4360B0F04384F8044445
:10577000B6E6E5435D73F643B343E643CAC3054467
:105780004306EF43DF9DF143592AF44381BFE143D0
:10579000B86CF843B33007441418E7439F53FD43F4
:1057A0006E6A034427FBE143132700440247054484
:1057B0004B63E343044FFF43FB30EF43F40CE243FE
:1057C00038EB07442C7DE44343C50644ED64FB43BA
:1057D0000662E5437B10E243C29AE9430A68F34359
:1057E0000655E5433547E24358D6F743C7AEFA437B
:1057F00009ECFF43D37AF1430EFEED4317FDD3438B
:1058000019C7D043B74DE0434D9ACC43CD45F04343
:105810006B92EC43B97BD243B486DB436050E643E2
:105820005DF4ED435370CB4333C6C8438537E9433A
:10583000EEF8E043D604E6432534E843A85CCA43C7
:105840001E4AE143E60BB543BBBEDC4336CCB54351
:10585000C9FAB243DCFBB743989CA4438755BA43CB
:10586000C963C5437E21CC430979B043E8CBB64335
:105870002E0CBC43A9DBA5435DD89843BD8AA54344
:10588000A046B143A684AE430E50A743D3AB874393
:1058900069C9954340037D430DFD6F431F798543DF
:1058A00082846D4389C2654330E58E43E1DE7E43E9
:1058B000543A8F43185356435B41424328025143A5
:1058C0003D0D5843458480438BCD7343D68B27438E
:1058D0005534584379791F43C4300B4364124F4306
:1058E0001F46224328CEED42F41A1043C3B9144395
:1058F00053B50543A6C026434866D54273ABC242A2
:10590000C0DD1743A12F92428B99F842E0810343F7
:1059100095396542D117DC42883C93422EA523423B
:105920002CB5AF4272817242263B9940152587C142
:105930004365AE41FBDF4C423AAD3A42F0D9F2C189
:105940008B672BC244F73CC2917681C11DE440C2F3
:10595000827509C1033EA9C0835C86C1FC3B93C22A
:1059600094B5EEC28E27C6C2E9D49BC27A76D4C261
:105970001157B1C2D927F8C2C03213C3972EF3C250
:1059800014DFC5C214E10BC3FD6E2DC3F9104AC369
:1059900071B93DC3A53B2EC39D0040C39EC84BC3F8
:1059A000817B5BC34BDB24C327B34EC316203CC3B0
:1059B000B46265C3BA9950C30AB98AC3A52F74C328
:1059C0003EA18AC3F28C7BC301A499C38B4B9BC3BA
:1059D00078E09FC3C4FB7FC3653792C3BF9D84C378
:1059E000C92B7FC321C284C33CACA5C35A7896C3DC
:1059F000C05AAAC37D78A7C38D95A6C3BEEB95C335
:105A00003BC2B8C34DBF9FC3566BBCC3EB41BCC3C5
:105A10001F71BBC3F53CBCC3611DD1C35710C3C3C9
:105A200015E9B8C3E65FD7C3F709B7C3FB85B4C3AD
:105A3000AA53C0C38AF4CDC314DFD3C3206FCAC333
:105A4000429BECC3DB39C4C3E2EED9C3EF38C2C317
:105A5000A49ED5C332D4D4C38A21F4C354E5CBC3A6
:105A60005EC6F5C37292DEC38714D6C37E74DDC3EF
:105A700041BEFEC3ADC5DDC3B7ACE6C331B900C49A
:105A80006140D6C38DE3ECC31752F3C38407DEC372
:105A900017E6FFC3E04CDDC3969CDFC37B64F4C311
:105AA0007EC1E5C3CC13E6C3A6D7E3C3BC4CECC3AD
:105AB000AFCFDFC300D5E9C3A35E01C4D75CE4C3A5
:105AC0004F10FEC33AC9FBC339EAEDC3FF06EDC36D
:105AD000228FFBC350F5E4C338CBEBC359E906C4AE
